{
	"contracts/TokenFactory.sol": {
		"TokenFactory": {
			"abi": [
				{
					"inputs": [],
					"stateMutability": "nonpayable",
					"type": "constructor"
				},
				{
					"anonymous": false,
					"inputs": [
						{
							"indexed": true,
							"internalType": "address",
							"name": "tokenAddress",
							"type": "address"
						},
						{
							"indexed": false,
							"internalType": "string",
							"name": "name",
							"type": "string"
						},
						{
							"indexed": false,
							"internalType": "string",
							"name": "symbol",
							"type": "string"
						},
						{
							"indexed": true,
							"internalType": "address",
							"name": "creator",
							"type": "address"
						}
					],
					"name": "TokenCreated",
					"type": "event"
				},
				{
					"inputs": [
						{
							"internalType": "string",
							"name": "name",
							"type": "string"
						},
						{
							"internalType": "string",
							"name": "symbol",
							"type": "string"
						},
						{
							"internalType": "uint256",
							"name": "initialSupply",
							"type": "uint256"
						}
					],
					"name": "createToken",
					"outputs": [
						{
							"internalType": "address",
							"name": "",
							"type": "address"
						}
					],
					"stateMutability": "nonpayable",
					"type": "function"
				},
				{
					"inputs": [
						{
							"internalType": "address",
							"name": "",
							"type": "address"
						},
						{
							"internalType": "uint256",
							"name": "",
							"type": "uint256"
						}
					],
					"name": "creatorTokens",
					"outputs": [
						{
							"internalType": "address",
							"name": "",
							"type": "address"
						}
					],
					"stateMutability": "view",
					"type": "function"
				},
				{
					"inputs": [
						{
							"internalType": "uint256",
							"name": "",
							"type": "uint256"
						}
					],
					"name": "deployedTokens",
					"outputs": [
						{
							"internalType": "address",
							"name": "",
							"type": "address"
						}
					],
					"stateMutability": "view",
					"type": "function"
				},
				{
					"inputs": [],
					"name": "getAllTokens",
					"outputs": [
						{
							"internalType": "address[]",
							"name": "",
							"type": "address[]"
						}
					],
					"stateMutability": "view",
					"type": "function"
				},
				{
					"inputs": [
						{
							"internalType": "address",
							"name": "creator",
							"type": "address"
						}
					],
					"name": "getTokensByCreator",
					"outputs": [
						{
							"internalType": "address[]",
							"name": "",
							"type": "address[]"
						}
					],
					"stateMutability": "view",
					"type": "function"
				}
			],
			"devdoc": {
				"kind": "dev",
				"methods": {},
				"version": 1
			},
			"evm": {
				"assembly": "    /* \"contracts/TokenFactory.sol\":448:1942  contract TokenFactory {... */\n  mstore(0x40, 0x80)\n    /* \"contracts/TokenFactory.sol\":661:677  constructor() {} */\n  callvalue\n  dup1\n  iszero\n  tag_1\n  jumpi\n  0x00\n  dup1\n  revert\ntag_1:\n  pop\n    /* \"contracts/TokenFactory.sol\":448:1942  contract TokenFactory {... */\n  dataSize(sub_0)\n  dup1\n  dataOffset(sub_0)\n  0x00\n  codecopy\n  0x00\n  return\nstop\n\nsub_0: assembly {\n        /* \"contracts/TokenFactory.sol\":448:1942  contract TokenFactory {... */\n      mstore(0x40, 0x80)\n      callvalue\n      dup1\n      iszero\n      tag_1\n      jumpi\n      0x00\n      dup1\n      revert\n    tag_1:\n      pop\n      jumpi(tag_2, lt(calldatasize, 0x04))\n      shr(0xe0, calldataload(0x00))\n      dup1\n      0x2a5c792a\n      eq\n      tag_3\n      jumpi\n      dup1\n      0x5b060530\n      eq\n      tag_4\n      jumpi\n      dup1\n      0xd5c71275\n      eq\n      tag_5\n      jumpi\n      dup1\n      0xdb3fa4cc\n      eq\n      tag_6\n      jumpi\n      dup1\n      0xec81aadb\n      eq\n      tag_7\n      jumpi\n    tag_2:\n      0x00\n      dup1\n      revert\n        /* \"contracts/TokenFactory.sol\":1643:1744  function getAllTokens() public view returns (address[] memory) {... */\n    tag_3:\n      tag_8\n      tag_9\n      jump\t// in\n    tag_8:\n      mload(0x40)\n      tag_10\n      swap2\n      swap1\n      tag_11\n      jump\t// in\n    tag_10:\n      mload(0x40)\n      dup1\n      swap2\n      sub\n      swap1\n      return\n        /* \"contracts/TokenFactory.sol\":920:1580  function createToken(... */\n    tag_4:\n      tag_12\n      0x04\n      dup1\n      calldatasize\n      sub\n      dup2\n      add\n      swap1\n      tag_13\n      swap2\n      swap1\n      tag_14\n      jump\t// in\n    tag_13:\n      tag_15\n      jump\t// in\n    tag_12:\n      mload(0x40)\n      tag_16\n      swap2\n      swap1\n      tag_17\n      jump\t// in\n    tag_16:\n      mload(0x40)\n      dup1\n      swap2\n      sub\n      swap1\n      return\n        /* \"contracts/TokenFactory.sol\":1810:1940  function getTokensByCreator(address creator) public view returns (address[] memory) {... */\n    tag_5:\n      tag_18\n      0x04\n      dup1\n      calldatasize\n      sub\n      dup2\n      add\n      swap1\n      tag_19\n      swap2\n      swap1\n      tag_20\n      jump\t// in\n    tag_19:\n      tag_21\n      jump\t// in\n    tag_18:\n      mload(0x40)\n      tag_22\n      swap2\n      swap1\n      tag_11\n      jump\t// in\n    tag_22:\n      mload(0x40)\n      dup1\n      swap2\n      sub\n      swap1\n      return\n        /* \"contracts/TokenFactory.sol\":825:875  mapping(address => address[]) public creatorTokens */\n    tag_6:\n      tag_23\n      0x04\n      dup1\n      calldatasize\n      sub\n      dup2\n      add\n      swap1\n      tag_24\n      swap2\n      swap1\n      tag_25\n      jump\t// in\n    tag_24:\n      tag_26\n      jump\t// in\n    tag_23:\n      mload(0x40)\n      tag_27\n      swap2\n      swap1\n      tag_17\n      jump\t// in\n    tag_27:\n      mload(0x40)\n      dup1\n      swap2\n      sub\n      swap1\n      return\n        /* \"contracts/TokenFactory.sol\":732:763  address[] public deployedTokens */\n    tag_7:\n      tag_28\n      0x04\n      dup1\n      calldatasize\n      sub\n      dup2\n      add\n      swap1\n      tag_29\n      swap2\n      swap1\n      tag_30\n      jump\t// in\n    tag_29:\n      tag_31\n      jump\t// in\n    tag_28:\n      mload(0x40)\n      tag_32\n      swap2\n      swap1\n      tag_17\n      jump\t// in\n    tag_32:\n      mload(0x40)\n      dup1\n      swap2\n      sub\n      swap1\n      return\n        /* \"contracts/TokenFactory.sol\":1643:1744  function getAllTokens() public view returns (address[] memory) {... */\n    tag_9:\n        /* \"contracts/TokenFactory.sol\":1688:1704  address[] memory */\n      0x60\n        /* \"contracts/TokenFactory.sol\":1723:1737  deployedTokens */\n      0x00\n        /* \"contracts/TokenFactory.sol\":1716:1737  return deployedTokens */\n      dup1\n      sload\n      dup1\n      0x20\n      mul\n      0x20\n      add\n      mload(0x40)\n      swap1\n      dup2\n      add\n      0x40\n      mstore\n      dup1\n      swap3\n      swap2\n      swap1\n      dup2\n      dup2\n      mstore\n      0x20\n      add\n      dup3\n      dup1\n      sload\n      dup1\n      iszero\n      tag_34\n      jumpi\n      0x20\n      mul\n      dup3\n      add\n      swap2\n      swap1\n      0x00\n      mstore\n      keccak256(0x00, 0x20)\n      swap1\n    tag_35:\n      dup2\n      0x00\n      swap1\n      sload\n      swap1\n      0x0100\n      exp\n      swap1\n      div\n      0xffffffffffffffffffffffffffffffffffffffff\n      and\n      0xffffffffffffffffffffffffffffffffffffffff\n      and\n      dup2\n      mstore\n      0x20\n      add\n      swap1\n      0x01\n      add\n      swap1\n      dup1\n      dup4\n      gt\n      tag_35\n      jumpi\n    tag_34:\n      pop\n      pop\n      pop\n      pop\n      pop\n      swap1\n      pop\n        /* \"contracts/TokenFactory.sol\":1643:1744  function getAllTokens() public view returns (address[] memory) {... */\n      swap1\n      jump\t// out\n        /* \"contracts/TokenFactory.sol\":920:1580  function createToken(... */\n    tag_15:\n        /* \"contracts/TokenFactory.sol\":1053:1060  address */\n      0x00\n        /* \"contracts/TokenFactory.sol\":1109:1129  CustomToken newToken */\n      dup1\n        /* \"contracts/TokenFactory.sol\":1161:1165  name */\n      dup5\n        /* \"contracts/TokenFactory.sol\":1180:1186  symbol */\n      dup5\n        /* \"contracts/TokenFactory.sol\":1201:1214  initialSupply */\n      dup5\n        /* \"contracts/TokenFactory.sol\":1229:1239  msg.sender */\n      caller\n        /* \"contracts/TokenFactory.sol\":1132:1296  new CustomToken(... */\n      mload(0x40)\n      tag_37\n      swap1\n      tag_38\n      jump\t// in\n    tag_37:\n      tag_39\n      swap5\n      swap4\n      swap3\n      swap2\n      swap1\n      tag_40\n      jump\t// in\n    tag_39:\n      mload(0x40)\n      dup1\n      swap2\n      sub\n      swap1\n      0x00\n      create\n      dup1\n      iszero\n      dup1\n      iszero\n      tag_41\n      jumpi\n      returndatasize\n      0x00\n      dup1\n      returndatacopy\n      revert(0x00, returndatasize)\n    tag_41:\n      pop\n        /* \"contracts/TokenFactory.sol\":1109:1296  CustomToken newToken = new CustomToken(... */\n      swap1\n      pop\n        /* \"contracts/TokenFactory.sol\":1346:1360  deployedTokens */\n      0x00\n        /* \"contracts/TokenFactory.sol\":1374:1382  newToken */\n      dup2\n        /* \"contracts/TokenFactory.sol\":1346:1384  deployedTokens.push(address(newToken)) */\n      swap1\n      dup1\n      0x01\n      dup2\n      sload\n      add\n      dup1\n      dup3\n      sstore\n      dup1\n      swap2\n      pop\n      pop\n      0x01\n      swap1\n      sub\n      swap1\n      0x00\n      mstore\n      keccak256(0x00, 0x20)\n      add\n      0x00\n      swap1\n      swap2\n      swap1\n      swap2\n      swap1\n      swap2\n      0x0100\n      exp\n      dup2\n      sload\n      dup2\n      0xffffffffffffffffffffffffffffffffffffffff\n      mul\n      not\n      and\n      swap1\n      dup4\n      0xffffffffffffffffffffffffffffffffffffffff\n      and\n      mul\n      or\n      swap1\n      sstore\n      pop\n        /* \"contracts/TokenFactory.sol\":1394:1407  creatorTokens */\n      0x01\n        /* \"contracts/TokenFactory.sol\":1394:1419  creatorTokens[msg.sender] */\n      0x00\n        /* \"contracts/TokenFactory.sol\":1408:1418  msg.sender */\n      caller\n        /* \"contracts/TokenFactory.sol\":1394:1419  creatorTokens[msg.sender] */\n      0xffffffffffffffffffffffffffffffffffffffff\n      and\n      0xffffffffffffffffffffffffffffffffffffffff\n      and\n      dup2\n      mstore\n      0x20\n      add\n      swap1\n      dup2\n      mstore\n      0x20\n      add\n      0x00\n      keccak256\n        /* \"contracts/TokenFactory.sol\":1433:1441  newToken */\n      dup2\n        /* \"contracts/TokenFactory.sol\":1394:1443  creatorTokens[msg.sender].push(address(newToken)) */\n      swap1\n      dup1\n      0x01\n      dup2\n      sload\n      add\n      dup1\n      dup3\n      sstore\n      dup1\n      swap2\n      pop\n      pop\n      0x01\n      swap1\n      sub\n      swap1\n      0x00\n      mstore\n      keccak256(0x00, 0x20)\n      add\n      0x00\n      swap1\n      swap2\n      swap1\n      swap2\n      swap1\n      swap2\n      0x0100\n      exp\n      dup2\n      sload\n      dup2\n      0xffffffffffffffffffffffffffffffffffffffff\n      mul\n      not\n      and\n      swap1\n      dup4\n      0xffffffffffffffffffffffffffffffffffffffff\n      and\n      mul\n      or\n      swap1\n      sstore\n      pop\n        /* \"contracts/TokenFactory.sol\":1527:1537  msg.sender */\n      caller\n        /* \"contracts/TokenFactory.sol\":1481:1538  TokenCreated(address(newToken), name, symbol, msg.sender) */\n      0xffffffffffffffffffffffffffffffffffffffff\n      and\n        /* \"contracts/TokenFactory.sol\":1502:1510  newToken */\n      dup2\n        /* \"contracts/TokenFactory.sol\":1481:1538  TokenCreated(address(newToken), name, symbol, msg.sender) */\n      0xffffffffffffffffffffffffffffffffffffffff\n      and\n      0x6596c1670eb3390048d23721809c3da5d3f531375ac0e2cab0f77a808ed64331\n        /* \"contracts/TokenFactory.sol\":1513:1517  name */\n      dup8\n        /* \"contracts/TokenFactory.sol\":1519:1525  symbol */\n      dup8\n        /* \"contracts/TokenFactory.sol\":1481:1538  TokenCreated(address(newToken), name, symbol, msg.sender) */\n      mload(0x40)\n      tag_44\n      swap3\n      swap2\n      swap1\n      tag_45\n      jump\t// in\n    tag_44:\n      mload(0x40)\n      dup1\n      swap2\n      sub\n      swap1\n      log3\n        /* \"contracts/TokenFactory.sol\":1564:1572  newToken */\n      dup1\n        /* \"contracts/TokenFactory.sol\":1549:1573  return address(newToken) */\n      swap2\n      pop\n      pop\n        /* \"contracts/TokenFactory.sol\":920:1580  function createToken(... */\n      swap4\n      swap3\n      pop\n      pop\n      pop\n      jump\t// out\n        /* \"contracts/TokenFactory.sol\":1810:1940  function getTokensByCreator(address creator) public view returns (address[] memory) {... */\n    tag_21:\n        /* \"contracts/TokenFactory.sol\":1876:1892  address[] memory */\n      0x60\n        /* \"contracts/TokenFactory.sol\":1911:1924  creatorTokens */\n      0x01\n        /* \"contracts/TokenFactory.sol\":1911:1933  creatorTokens[creator] */\n      0x00\n        /* \"contracts/TokenFactory.sol\":1925:1932  creator */\n      dup4\n        /* \"contracts/TokenFactory.sol\":1911:1933  creatorTokens[creator] */\n      0xffffffffffffffffffffffffffffffffffffffff\n      and\n      0xffffffffffffffffffffffffffffffffffffffff\n      and\n      dup2\n      mstore\n      0x20\n      add\n      swap1\n      dup2\n      mstore\n      0x20\n      add\n      0x00\n      keccak256\n        /* \"contracts/TokenFactory.sol\":1904:1933  return creatorTokens[creator] */\n      dup1\n      sload\n      dup1\n      0x20\n      mul\n      0x20\n      add\n      mload(0x40)\n      swap1\n      dup2\n      add\n      0x40\n      mstore\n      dup1\n      swap3\n      swap2\n      swap1\n      dup2\n      dup2\n      mstore\n      0x20\n      add\n      dup3\n      dup1\n      sload\n      dup1\n      iszero\n      tag_47\n      jumpi\n      0x20\n      mul\n      dup3\n      add\n      swap2\n      swap1\n      0x00\n      mstore\n      keccak256(0x00, 0x20)\n      swap1\n    tag_48:\n      dup2\n      0x00\n      swap1\n      sload\n      swap1\n      0x0100\n      exp\n      swap1\n      div\n      0xffffffffffffffffffffffffffffffffffffffff\n      and\n      0xffffffffffffffffffffffffffffffffffffffff\n      and\n      dup2\n      mstore\n      0x20\n      add\n      swap1\n      0x01\n      add\n      swap1\n      dup1\n      dup4\n      gt\n      tag_48\n      jumpi\n    tag_47:\n      pop\n      pop\n      pop\n      pop\n      pop\n      swap1\n      pop\n        /* \"contracts/TokenFactory.sol\":1810:1940  function getTokensByCreator(address creator) public view returns (address[] memory) {... */\n      swap2\n      swap1\n      pop\n      jump\t// out\n        /* \"contracts/TokenFactory.sol\":825:875  mapping(address => address[]) public creatorTokens */\n    tag_26:\n      mstore(0x20, 0x01)\n      dup2\n      0x00\n      mstore\n      keccak256(0x00, 0x40)\n      dup2\n      dup2\n      sload\n      dup2\n      lt\n      tag_49\n      jumpi\n      0x00\n      dup1\n      revert\n    tag_49:\n      swap1\n      0x00\n      mstore\n      keccak256(0x00, 0x20)\n      add\n      0x00\n      swap2\n      pop\n      swap2\n      pop\n      swap1\n      sload\n      swap1\n      0x0100\n      exp\n      swap1\n      div\n      0xffffffffffffffffffffffffffffffffffffffff\n      and\n      dup2\n      jump\t// out\n        /* \"contracts/TokenFactory.sol\":732:763  address[] public deployedTokens */\n    tag_31:\n      0x00\n      dup2\n      dup2\n      sload\n      dup2\n      lt\n      tag_51\n      jumpi\n      0x00\n      dup1\n      revert\n    tag_51:\n      swap1\n      0x00\n      mstore\n      keccak256(0x00, 0x20)\n      add\n      0x00\n      swap2\n      pop\n      sload\n      swap1\n      0x0100\n      exp\n      swap1\n      div\n      0xffffffffffffffffffffffffffffffffffffffff\n      and\n      dup2\n      jump\t// out\n    tag_38:\n      dataSize(sub_0)\n      dup1\n      dataOffset(sub_0)\n      dup4\n      codecopy\n      add\n      swap1\n      jump\t// out\n        /* \"#utility.yul\":7:121   */\n    tag_53:\n        /* \"#utility.yul\":74:80   */\n      0x00\n        /* \"#utility.yul\":108:113   */\n      dup2\n        /* \"#utility.yul\":102:114   */\n      mload\n        /* \"#utility.yul\":92:114   */\n      swap1\n      pop\n        /* \"#utility.yul\":7:121   */\n      swap2\n      swap1\n      pop\n      jump\t// out\n        /* \"#utility.yul\":127:311   */\n    tag_54:\n        /* \"#utility.yul\":226:237   */\n      0x00\n        /* \"#utility.yul\":260:266   */\n      dup3\n        /* \"#utility.yul\":255:258   */\n      dup3\n        /* \"#utility.yul\":248:267   */\n      mstore\n        /* \"#utility.yul\":300:304   */\n      0x20\n        /* \"#utility.yul\":295:298   */\n      dup3\n        /* \"#utility.yul\":291:305   */\n      add\n        /* \"#utility.yul\":276:305   */\n      swap1\n      pop\n        /* \"#utility.yul\":127:311   */\n      swap3\n      swap2\n      pop\n      pop\n      jump\t// out\n        /* \"#utility.yul\":317:449   */\n    tag_55:\n        /* \"#utility.yul\":384:388   */\n      0x00\n        /* \"#utility.yul\":407:410   */\n      dup2\n        /* \"#utility.yul\":399:410   */\n      swap1\n      pop\n        /* \"#utility.yul\":437:441   */\n      0x20\n        /* \"#utility.yul\":432:435   */\n      dup3\n        /* \"#utility.yul\":428:442   */\n      add\n        /* \"#utility.yul\":420:442   */\n      swap1\n      pop\n        /* \"#utility.yul\":317:449   */\n      swap2\n      swap1\n      pop\n      jump\t// out\n        /* \"#utility.yul\":455:581   */\n    tag_56:\n        /* \"#utility.yul\":492:499   */\n      0x00\n        /* \"#utility.yul\":532:574   */\n      0xffffffffffffffffffffffffffffffffffffffff\n        /* \"#utility.yul\":525:530   */\n      dup3\n        /* \"#utility.yul\":521:575   */\n      and\n        /* \"#utility.yul\":510:575   */\n      swap1\n      pop\n        /* \"#utility.yul\":455:581   */\n      swap2\n      swap1\n      pop\n      jump\t// out\n        /* \"#utility.yul\":587:683   */\n    tag_57:\n        /* \"#utility.yul\":624:631   */\n      0x00\n        /* \"#utility.yul\":653:677   */\n      tag_92\n        /* \"#utility.yul\":671:676   */\n      dup3\n        /* \"#utility.yul\":653:677   */\n      tag_56\n      jump\t// in\n    tag_92:\n        /* \"#utility.yul\":642:677   */\n      swap1\n      pop\n        /* \"#utility.yul\":587:683   */\n      swap2\n      swap1\n      pop\n      jump\t// out\n        /* \"#utility.yul\":689:797   */\n    tag_58:\n        /* \"#utility.yul\":766:790   */\n      tag_94\n        /* \"#utility.yul\":784:789   */\n      dup2\n        /* \"#utility.yul\":766:790   */\n      tag_57\n      jump\t// in\n    tag_94:\n        /* \"#utility.yul\":761:764   */\n      dup3\n        /* \"#utility.yul\":754:791   */\n      mstore\n        /* \"#utility.yul\":689:797   */\n      pop\n      pop\n      jump\t// out\n        /* \"#utility.yul\":803:982   */\n    tag_59:\n        /* \"#utility.yul\":872:882   */\n      0x00\n        /* \"#utility.yul\":893:939   */\n      tag_96\n        /* \"#utility.yul\":935:938   */\n      dup4\n        /* \"#utility.yul\":927:933   */\n      dup4\n        /* \"#utility.yul\":893:939   */\n      tag_58\n      jump\t// in\n    tag_96:\n        /* \"#utility.yul\":971:975   */\n      0x20\n        /* \"#utility.yul\":966:969   */\n      dup4\n        /* \"#utility.yul\":962:976   */\n      add\n        /* \"#utility.yul\":948:976   */\n      swap1\n      pop\n        /* \"#utility.yul\":803:982   */\n      swap3\n      swap2\n      pop\n      pop\n      jump\t// out\n        /* \"#utility.yul\":988:1101   */\n    tag_60:\n        /* \"#utility.yul\":1058:1062   */\n      0x00\n        /* \"#utility.yul\":1090:1094   */\n      0x20\n        /* \"#utility.yul\":1085:1088   */\n      dup3\n        /* \"#utility.yul\":1081:1095   */\n      add\n        /* \"#utility.yul\":1073:1095   */\n      swap1\n      pop\n        /* \"#utility.yul\":988:1101   */\n      swap2\n      swap1\n      pop\n      jump\t// out\n        /* \"#utility.yul\":1137:1869   */\n    tag_61:\n        /* \"#utility.yul\":1256:1259   */\n      0x00\n        /* \"#utility.yul\":1285:1339   */\n      tag_99\n        /* \"#utility.yul\":1333:1338   */\n      dup3\n        /* \"#utility.yul\":1285:1339   */\n      tag_53\n      jump\t// in\n    tag_99:\n        /* \"#utility.yul\":1355:1441   */\n      tag_100\n        /* \"#utility.yul\":1434:1440   */\n      dup2\n        /* \"#utility.yul\":1429:1432   */\n      dup6\n        /* \"#utility.yul\":1355:1441   */\n      tag_54\n      jump\t// in\n    tag_100:\n        /* \"#utility.yul\":1348:1441   */\n      swap4\n      pop\n        /* \"#utility.yul\":1465:1521   */\n      tag_101\n        /* \"#utility.yul\":1515:1520   */\n      dup4\n        /* \"#utility.yul\":1465:1521   */\n      tag_55\n      jump\t// in\n    tag_101:\n        /* \"#utility.yul\":1544:1551   */\n      dup1\n        /* \"#utility.yul\":1575:1576   */\n      0x00\n        /* \"#utility.yul\":1560:1844   */\n    tag_102:\n        /* \"#utility.yul\":1585:1591   */\n      dup4\n        /* \"#utility.yul\":1582:1583   */\n      dup2\n        /* \"#utility.yul\":1579:1592   */\n      lt\n        /* \"#utility.yul\":1560:1844   */\n      iszero\n      tag_104\n      jumpi\n        /* \"#utility.yul\":1661:1667   */\n      dup2\n        /* \"#utility.yul\":1655:1668   */\n      mload\n        /* \"#utility.yul\":1688:1751   */\n      tag_105\n        /* \"#utility.yul\":1747:1750   */\n      dup9\n        /* \"#utility.yul\":1732:1745   */\n      dup3\n        /* \"#utility.yul\":1688:1751   */\n      tag_59\n      jump\t// in\n    tag_105:\n        /* \"#utility.yul\":1681:1751   */\n      swap8\n      pop\n        /* \"#utility.yul\":1774:1834   */\n      tag_106\n        /* \"#utility.yul\":1827:1833   */\n      dup4\n        /* \"#utility.yul\":1774:1834   */\n      tag_60\n      jump\t// in\n    tag_106:\n        /* \"#utility.yul\":1764:1834   */\n      swap3\n      pop\n        /* \"#utility.yul\":1620:1844   */\n      pop\n        /* \"#utility.yul\":1607:1608   */\n      0x01\n        /* \"#utility.yul\":1604:1605   */\n      dup2\n        /* \"#utility.yul\":1600:1609   */\n      add\n        /* \"#utility.yul\":1595:1609   */\n      swap1\n      pop\n        /* \"#utility.yul\":1560:1844   */\n      jump(tag_102)\n    tag_104:\n        /* \"#utility.yul\":1564:1578   */\n      pop\n        /* \"#utility.yul\":1860:1863   */\n      dup6\n        /* \"#utility.yul\":1853:1863   */\n      swap4\n      pop\n        /* \"#utility.yul\":1261:1869   */\n      pop\n      pop\n      pop\n        /* \"#utility.yul\":1137:1869   */\n      swap3\n      swap2\n      pop\n      pop\n      jump\t// out\n        /* \"#utility.yul\":1875:2248   */\n    tag_11:\n        /* \"#utility.yul\":2018:2022   */\n      0x00\n        /* \"#utility.yul\":2056:2058   */\n      0x20\n        /* \"#utility.yul\":2045:2054   */\n      dup3\n        /* \"#utility.yul\":2041:2059   */\n      add\n        /* \"#utility.yul\":2033:2059   */\n      swap1\n      pop\n        /* \"#utility.yul\":2105:2114   */\n      dup2\n        /* \"#utility.yul\":2099:2103   */\n      dup2\n        /* \"#utility.yul\":2095:2115   */\n      sub\n        /* \"#utility.yul\":2091:2092   */\n      0x00\n        /* \"#utility.yul\":2080:2089   */\n      dup4\n        /* \"#utility.yul\":2076:2093   */\n      add\n        /* \"#utility.yul\":2069:2116   */\n      mstore\n        /* \"#utility.yul\":2133:2241   */\n      tag_108\n        /* \"#utility.yul\":2236:2240   */\n      dup2\n        /* \"#utility.yul\":2227:2233   */\n      dup5\n        /* \"#utility.yul\":2133:2241   */\n      tag_61\n      jump\t// in\n    tag_108:\n        /* \"#utility.yul\":2125:2241   */\n      swap1\n      pop\n        /* \"#utility.yul\":1875:2248   */\n      swap3\n      swap2\n      pop\n      pop\n      jump\t// out\n        /* \"#utility.yul\":2254:2329   */\n    tag_62:\n        /* \"#utility.yul\":2287:2293   */\n      0x00\n        /* \"#utility.yul\":2320:2322   */\n      0x40\n        /* \"#utility.yul\":2314:2323   */\n      mload\n        /* \"#utility.yul\":2304:2323   */\n      swap1\n      pop\n        /* \"#utility.yul\":2254:2329   */\n      swap1\n      jump\t// out\n        /* \"#utility.yul\":2335:2452   */\n    tag_63:\n        /* \"#utility.yul\":2444:2445   */\n      0x00\n        /* \"#utility.yul\":2441:2442   */\n      dup1\n        /* \"#utility.yul\":2434:2446   */\n      revert\n        /* \"#utility.yul\":2458:2575   */\n    tag_64:\n        /* \"#utility.yul\":2567:2568   */\n      0x00\n        /* \"#utility.yul\":2564:2565   */\n      dup1\n        /* \"#utility.yul\":2557:2569   */\n      revert\n        /* \"#utility.yul\":2581:2698   */\n    tag_65:\n        /* \"#utility.yul\":2690:2691   */\n      0x00\n        /* \"#utility.yul\":2687:2688   */\n      dup1\n        /* \"#utility.yul\":2680:2692   */\n      revert\n        /* \"#utility.yul\":2704:2821   */\n    tag_66:\n        /* \"#utility.yul\":2813:2814   */\n      0x00\n        /* \"#utility.yul\":2810:2811   */\n      dup1\n        /* \"#utility.yul\":2803:2815   */\n      revert\n        /* \"#utility.yul\":2827:2929   */\n    tag_67:\n        /* \"#utility.yul\":2868:2874   */\n      0x00\n        /* \"#utility.yul\":2919:2921   */\n      0x1f\n        /* \"#utility.yul\":2915:2922   */\n      not\n        /* \"#utility.yul\":2910:2912   */\n      0x1f\n        /* \"#utility.yul\":2903:2908   */\n      dup4\n        /* \"#utility.yul\":2899:2913   */\n      add\n        /* \"#utility.yul\":2895:2923   */\n      and\n        /* \"#utility.yul\":2885:2923   */\n      swap1\n      pop\n        /* \"#utility.yul\":2827:2929   */\n      swap2\n      swap1\n      pop\n      jump\t// out\n        /* \"#utility.yul\":2935:3115   */\n    tag_68:\n        /* \"#utility.yul\":2983:3060   */\n      0x4e487b7100000000000000000000000000000000000000000000000000000000\n        /* \"#utility.yul\":2980:2981   */\n      0x00\n        /* \"#utility.yul\":2973:3061   */\n      mstore\n        /* \"#utility.yul\":3080:3084   */\n      0x41\n        /* \"#utility.yul\":3077:3078   */\n      0x04\n        /* \"#utility.yul\":3070:3085   */\n      mstore\n        /* \"#utility.yul\":3104:3108   */\n      0x24\n        /* \"#utility.yul\":3101:3102   */\n      0x00\n        /* \"#utility.yul\":3094:3109   */\n      revert\n        /* \"#utility.yul\":3121:3402   */\n    tag_69:\n        /* \"#utility.yul\":3204:3231   */\n      tag_117\n        /* \"#utility.yul\":3226:3230   */\n      dup3\n        /* \"#utility.yul\":3204:3231   */\n      tag_67\n      jump\t// in\n    tag_117:\n        /* \"#utility.yul\":3196:3202   */\n      dup2\n        /* \"#utility.yul\":3192:3232   */\n      add\n        /* \"#utility.yul\":3334:3340   */\n      dup2\n        /* \"#utility.yul\":3322:3332   */\n      dup2\n        /* \"#utility.yul\":3319:3341   */\n      lt\n        /* \"#utility.yul\":3298:3316   */\n      0xffffffffffffffff\n        /* \"#utility.yul\":3286:3296   */\n      dup3\n        /* \"#utility.yul\":3283:3317   */\n      gt\n        /* \"#utility.yul\":3280:3342   */\n      or\n        /* \"#utility.yul\":3277:3365   */\n      iszero\n      tag_118\n      jumpi\n        /* \"#utility.yul\":3345:3363   */\n      tag_119\n      tag_68\n      jump\t// in\n    tag_119:\n        /* \"#utility.yul\":3277:3365   */\n    tag_118:\n        /* \"#utility.yul\":3385:3395   */\n      dup1\n        /* \"#utility.yul\":3381:3383   */\n      0x40\n        /* \"#utility.yul\":3374:3396   */\n      mstore\n        /* \"#utility.yul\":3164:3402   */\n      pop\n        /* \"#utility.yul\":3121:3402   */\n      pop\n      pop\n      jump\t// out\n        /* \"#utility.yul\":3408:3537   */\n    tag_70:\n        /* \"#utility.yul\":3442:3448   */\n      0x00\n        /* \"#utility.yul\":3469:3489   */\n      tag_121\n      tag_62\n      jump\t// in\n    tag_121:\n        /* \"#utility.yul\":3459:3489   */\n      swap1\n      pop\n        /* \"#utility.yul\":3498:3531   */\n      tag_122\n        /* \"#utility.yul\":3526:3530   */\n      dup3\n        /* \"#utility.yul\":3518:3524   */\n      dup3\n        /* \"#utility.yul\":3498:3531   */\n      tag_69\n      jump\t// in\n    tag_122:\n        /* \"#utility.yul\":3408:3537   */\n      swap2\n      swap1\n      pop\n      jump\t// out\n        /* \"#utility.yul\":3543:3851   */\n    tag_71:\n        /* \"#utility.yul\":3605:3609   */\n      0x00\n        /* \"#utility.yul\":3695:3713   */\n      0xffffffffffffffff\n        /* \"#utility.yul\":3687:3693   */\n      dup3\n        /* \"#utility.yul\":3684:3714   */\n      gt\n        /* \"#utility.yul\":3681:3737   */\n      iszero\n      tag_124\n      jumpi\n        /* \"#utility.yul\":3717:3735   */\n      tag_125\n      tag_68\n      jump\t// in\n    tag_125:\n        /* \"#utility.yul\":3681:3737   */\n    tag_124:\n        /* \"#utility.yul\":3755:3784   */\n      tag_126\n        /* \"#utility.yul\":3777:3783   */\n      dup3\n        /* \"#utility.yul\":3755:3784   */\n      tag_67\n      jump\t// in\n    tag_126:\n        /* \"#utility.yul\":3747:3784   */\n      swap1\n      pop\n        /* \"#utility.yul\":3839:3843   */\n      0x20\n        /* \"#utility.yul\":3833:3837   */\n      dup2\n        /* \"#utility.yul\":3829:3844   */\n      add\n        /* \"#utility.yul\":3821:3844   */\n      swap1\n      pop\n        /* \"#utility.yul\":3543:3851   */\n      swap2\n      swap1\n      pop\n      jump\t// out\n        /* \"#utility.yul\":3857:4005   */\n    tag_72:\n        /* \"#utility.yul\":3955:3961   */\n      dup3\n        /* \"#utility.yul\":3950:3953   */\n      dup2\n        /* \"#utility.yul\":3945:3948   */\n      dup4\n        /* \"#utility.yul\":3932:3962   */\n      calldatacopy\n        /* \"#utility.yul\":3996:3997   */\n      0x00\n        /* \"#utility.yul\":3987:3993   */\n      dup4\n        /* \"#utility.yul\":3982:3985   */\n      dup4\n        /* \"#utility.yul\":3978:3994   */\n      add\n        /* \"#utility.yul\":3971:3998   */\n      mstore\n        /* \"#utility.yul\":3857:4005   */\n      pop\n      pop\n      pop\n      jump\t// out\n        /* \"#utility.yul\":4011:4436   */\n    tag_73:\n        /* \"#utility.yul\":4089:4094   */\n      0x00\n        /* \"#utility.yul\":4114:4180   */\n      tag_129\n        /* \"#utility.yul\":4130:4179   */\n      tag_130\n        /* \"#utility.yul\":4172:4178   */\n      dup5\n        /* \"#utility.yul\":4130:4179   */\n      tag_71\n      jump\t// in\n    tag_130:\n        /* \"#utility.yul\":4114:4180   */\n      tag_70\n      jump\t// in\n    tag_129:\n        /* \"#utility.yul\":4105:4180   */\n      swap1\n      pop\n        /* \"#utility.yul\":4203:4209   */\n      dup3\n        /* \"#utility.yul\":4196:4201   */\n      dup2\n        /* \"#utility.yul\":4189:4210   */\n      mstore\n        /* \"#utility.yul\":4241:4245   */\n      0x20\n        /* \"#utility.yul\":4234:4239   */\n      dup2\n        /* \"#utility.yul\":4230:4246   */\n      add\n        /* \"#utility.yul\":4279:4282   */\n      dup5\n        /* \"#utility.yul\":4270:4276   */\n      dup5\n        /* \"#utility.yul\":4265:4268   */\n      dup5\n        /* \"#utility.yul\":4261:4277   */\n      add\n        /* \"#utility.yul\":4258:4283   */\n      gt\n        /* \"#utility.yul\":4255:4367   */\n      iszero\n      tag_131\n      jumpi\n        /* \"#utility.yul\":4286:4365   */\n      tag_132\n      tag_66\n      jump\t// in\n    tag_132:\n        /* \"#utility.yul\":4255:4367   */\n    tag_131:\n        /* \"#utility.yul\":4376:4430   */\n      tag_133\n        /* \"#utility.yul\":4423:4429   */\n      dup5\n        /* \"#utility.yul\":4418:4421   */\n      dup3\n        /* \"#utility.yul\":4413:4416   */\n      dup6\n        /* \"#utility.yul\":4376:4430   */\n      tag_72\n      jump\t// in\n    tag_133:\n        /* \"#utility.yul\":4095:4436   */\n      pop\n        /* \"#utility.yul\":4011:4436   */\n      swap4\n      swap3\n      pop\n      pop\n      pop\n      jump\t// out\n        /* \"#utility.yul\":4456:4796   */\n    tag_74:\n        /* \"#utility.yul\":4512:4517   */\n      0x00\n        /* \"#utility.yul\":4561:4564   */\n      dup3\n        /* \"#utility.yul\":4554:4558   */\n      0x1f\n        /* \"#utility.yul\":4546:4552   */\n      dup4\n        /* \"#utility.yul\":4542:4559   */\n      add\n        /* \"#utility.yul\":4538:4565   */\n      slt\n        /* \"#utility.yul\":4528:4650   */\n      tag_135\n      jumpi\n        /* \"#utility.yul\":4569:4648   */\n      tag_136\n      tag_65\n      jump\t// in\n    tag_136:\n        /* \"#utility.yul\":4528:4650   */\n    tag_135:\n        /* \"#utility.yul\":4686:4692   */\n      dup2\n        /* \"#utility.yul\":4673:4693   */\n      calldataload\n        /* \"#utility.yul\":4711:4790   */\n      tag_137\n        /* \"#utility.yul\":4786:4789   */\n      dup5\n        /* \"#utility.yul\":4778:4784   */\n      dup3\n        /* \"#utility.yul\":4771:4775   */\n      0x20\n        /* \"#utility.yul\":4763:4769   */\n      dup7\n        /* \"#utility.yul\":4759:4776   */\n      add\n        /* \"#utility.yul\":4711:4790   */\n      tag_73\n      jump\t// in\n    tag_137:\n        /* \"#utility.yul\":4702:4790   */\n      swap2\n      pop\n        /* \"#utility.yul\":4518:4796   */\n      pop\n        /* \"#utility.yul\":4456:4796   */\n      swap3\n      swap2\n      pop\n      pop\n      jump\t// out\n        /* \"#utility.yul\":4802:4879   */\n    tag_75:\n        /* \"#utility.yul\":4839:4846   */\n      0x00\n        /* \"#utility.yul\":4868:4873   */\n      dup2\n        /* \"#utility.yul\":4857:4873   */\n      swap1\n      pop\n        /* \"#utility.yul\":4802:4879   */\n      swap2\n      swap1\n      pop\n      jump\t// out\n        /* \"#utility.yul\":4885:5007   */\n    tag_76:\n        /* \"#utility.yul\":4958:4982   */\n      tag_140\n        /* \"#utility.yul\":4976:4981   */\n      dup2\n        /* \"#utility.yul\":4958:4982   */\n      tag_75\n      jump\t// in\n    tag_140:\n        /* \"#utility.yul\":4951:4956   */\n      dup2\n        /* \"#utility.yul\":4948:4983   */\n      eq\n        /* \"#utility.yul\":4938:5001   */\n      tag_141\n      jumpi\n        /* \"#utility.yul\":4997:4998   */\n      0x00\n        /* \"#utility.yul\":4994:4995   */\n      dup1\n        /* \"#utility.yul\":4987:4999   */\n      revert\n        /* \"#utility.yul\":4938:5001   */\n    tag_141:\n        /* \"#utility.yul\":4885:5007   */\n      pop\n      jump\t// out\n        /* \"#utility.yul\":5013:5152   */\n    tag_77:\n        /* \"#utility.yul\":5059:5064   */\n      0x00\n        /* \"#utility.yul\":5097:5103   */\n      dup2\n        /* \"#utility.yul\":5084:5104   */\n      calldataload\n        /* \"#utility.yul\":5075:5104   */\n      swap1\n      pop\n        /* \"#utility.yul\":5113:5146   */\n      tag_143\n        /* \"#utility.yul\":5140:5145   */\n      dup2\n        /* \"#utility.yul\":5113:5146   */\n      tag_76\n      jump\t// in\n    tag_143:\n        /* \"#utility.yul\":5013:5152   */\n      swap3\n      swap2\n      pop\n      pop\n      jump\t// out\n        /* \"#utility.yul\":5158:6137   */\n    tag_14:\n        /* \"#utility.yul\":5255:5261   */\n      0x00\n        /* \"#utility.yul\":5263:5269   */\n      dup1\n        /* \"#utility.yul\":5271:5277   */\n      0x00\n        /* \"#utility.yul\":5320:5322   */\n      0x60\n        /* \"#utility.yul\":5308:5317   */\n      dup5\n        /* \"#utility.yul\":5299:5306   */\n      dup7\n        /* \"#utility.yul\":5295:5318   */\n      sub\n        /* \"#utility.yul\":5291:5323   */\n      slt\n        /* \"#utility.yul\":5288:5407   */\n      iszero\n      tag_145\n      jumpi\n        /* \"#utility.yul\":5326:5405   */\n      tag_146\n      tag_63\n      jump\t// in\n    tag_146:\n        /* \"#utility.yul\":5288:5407   */\n    tag_145:\n        /* \"#utility.yul\":5474:5475   */\n      0x00\n        /* \"#utility.yul\":5463:5472   */\n      dup5\n        /* \"#utility.yul\":5459:5476   */\n      add\n        /* \"#utility.yul\":5446:5477   */\n      calldataload\n        /* \"#utility.yul\":5504:5522   */\n      0xffffffffffffffff\n        /* \"#utility.yul\":5496:5502   */\n      dup2\n        /* \"#utility.yul\":5493:5523   */\n      gt\n        /* \"#utility.yul\":5490:5607   */\n      iszero\n      tag_147\n      jumpi\n        /* \"#utility.yul\":5526:5605   */\n      tag_148\n      tag_64\n      jump\t// in\n    tag_148:\n        /* \"#utility.yul\":5490:5607   */\n    tag_147:\n        /* \"#utility.yul\":5631:5694   */\n      tag_149\n        /* \"#utility.yul\":5686:5693   */\n      dup7\n        /* \"#utility.yul\":5677:5683   */\n      dup3\n        /* \"#utility.yul\":5666:5675   */\n      dup8\n        /* \"#utility.yul\":5662:5684   */\n      add\n        /* \"#utility.yul\":5631:5694   */\n      tag_74\n      jump\t// in\n    tag_149:\n        /* \"#utility.yul\":5621:5694   */\n      swap4\n      pop\n        /* \"#utility.yul\":5417:5704   */\n      pop\n        /* \"#utility.yul\":5771:5773   */\n      0x20\n        /* \"#utility.yul\":5760:5769   */\n      dup5\n        /* \"#utility.yul\":5756:5774   */\n      add\n        /* \"#utility.yul\":5743:5775   */\n      calldataload\n        /* \"#utility.yul\":5802:5820   */\n      0xffffffffffffffff\n        /* \"#utility.yul\":5794:5800   */\n      dup2\n        /* \"#utility.yul\":5791:5821   */\n      gt\n        /* \"#utility.yul\":5788:5905   */\n      iszero\n      tag_150\n      jumpi\n        /* \"#utility.yul\":5824:5903   */\n      tag_151\n      tag_64\n      jump\t// in\n    tag_151:\n        /* \"#utility.yul\":5788:5905   */\n    tag_150:\n        /* \"#utility.yul\":5929:5992   */\n      tag_152\n        /* \"#utility.yul\":5984:5991   */\n      dup7\n        /* \"#utility.yul\":5975:5981   */\n      dup3\n        /* \"#utility.yul\":5964:5973   */\n      dup8\n        /* \"#utility.yul\":5960:5982   */\n      add\n        /* \"#utility.yul\":5929:5992   */\n      tag_74\n      jump\t// in\n    tag_152:\n        /* \"#utility.yul\":5919:5992   */\n      swap3\n      pop\n        /* \"#utility.yul\":5714:6002   */\n      pop\n        /* \"#utility.yul\":6041:6043   */\n      0x40\n        /* \"#utility.yul\":6067:6120   */\n      tag_153\n        /* \"#utility.yul\":6112:6119   */\n      dup7\n        /* \"#utility.yul\":6103:6109   */\n      dup3\n        /* \"#utility.yul\":6092:6101   */\n      dup8\n        /* \"#utility.yul\":6088:6110   */\n      add\n        /* \"#utility.yul\":6067:6120   */\n      tag_77\n      jump\t// in\n    tag_153:\n        /* \"#utility.yul\":6057:6120   */\n      swap2\n      pop\n        /* \"#utility.yul\":6012:6130   */\n      pop\n        /* \"#utility.yul\":5158:6137   */\n      swap3\n      pop\n      swap3\n      pop\n      swap3\n      jump\t// out\n        /* \"#utility.yul\":6143:6261   */\n    tag_78:\n        /* \"#utility.yul\":6230:6254   */\n      tag_155\n        /* \"#utility.yul\":6248:6253   */\n      dup2\n        /* \"#utility.yul\":6230:6254   */\n      tag_57\n      jump\t// in\n    tag_155:\n        /* \"#utility.yul\":6225:6228   */\n      dup3\n        /* \"#utility.yul\":6218:6255   */\n      mstore\n        /* \"#utility.yul\":6143:6261   */\n      pop\n      pop\n      jump\t// out\n        /* \"#utility.yul\":6267:6489   */\n    tag_17:\n        /* \"#utility.yul\":6360:6364   */\n      0x00\n        /* \"#utility.yul\":6398:6400   */\n      0x20\n        /* \"#utility.yul\":6387:6396   */\n      dup3\n        /* \"#utility.yul\":6383:6401   */\n      add\n        /* \"#utility.yul\":6375:6401   */\n      swap1\n      pop\n        /* \"#utility.yul\":6411:6482   */\n      tag_157\n        /* \"#utility.yul\":6479:6480   */\n      0x00\n        /* \"#utility.yul\":6468:6477   */\n      dup4\n        /* \"#utility.yul\":6464:6481   */\n      add\n        /* \"#utility.yul\":6455:6461   */\n      dup5\n        /* \"#utility.yul\":6411:6482   */\n      tag_78\n      jump\t// in\n    tag_157:\n        /* \"#utility.yul\":6267:6489   */\n      swap3\n      swap2\n      pop\n      pop\n      jump\t// out\n        /* \"#utility.yul\":6495:6617   */\n    tag_79:\n        /* \"#utility.yul\":6568:6592   */\n      tag_159\n        /* \"#utility.yul\":6586:6591   */\n      dup2\n        /* \"#utility.yul\":6568:6592   */\n      tag_57\n      jump\t// in\n    tag_159:\n        /* \"#utility.yul\":6561:6566   */\n      dup2\n        /* \"#utility.yul\":6558:6593   */\n      eq\n        /* \"#utility.yul\":6548:6611   */\n      tag_160\n      jumpi\n        /* \"#utility.yul\":6607:6608   */\n      0x00\n        /* \"#utility.yul\":6604:6605   */\n      dup1\n        /* \"#utility.yul\":6597:6609   */\n      revert\n        /* \"#utility.yul\":6548:6611   */\n    tag_160:\n        /* \"#utility.yul\":6495:6617   */\n      pop\n      jump\t// out\n        /* \"#utility.yul\":6623:6762   */\n    tag_80:\n        /* \"#utility.yul\":6669:6674   */\n      0x00\n        /* \"#utility.yul\":6707:6713   */\n      dup2\n        /* \"#utility.yul\":6694:6714   */\n      calldataload\n        /* \"#utility.yul\":6685:6714   */\n      swap1\n      pop\n        /* \"#utility.yul\":6723:6756   */\n      tag_162\n        /* \"#utility.yul\":6750:6755   */\n      dup2\n        /* \"#utility.yul\":6723:6756   */\n      tag_79\n      jump\t// in\n    tag_162:\n        /* \"#utility.yul\":6623:6762   */\n      swap3\n      swap2\n      pop\n      pop\n      jump\t// out\n        /* \"#utility.yul\":6768:7097   */\n    tag_20:\n        /* \"#utility.yul\":6827:6833   */\n      0x00\n        /* \"#utility.yul\":6876:6878   */\n      0x20\n        /* \"#utility.yul\":6864:6873   */\n      dup3\n        /* \"#utility.yul\":6855:6862   */\n      dup5\n        /* \"#utility.yul\":6851:6874   */\n      sub\n        /* \"#utility.yul\":6847:6879   */\n      slt\n        /* \"#utility.yul\":6844:6963   */\n      iszero\n      tag_164\n      jumpi\n        /* \"#utility.yul\":6882:6961   */\n      tag_165\n      tag_63\n      jump\t// in\n    tag_165:\n        /* \"#utility.yul\":6844:6963   */\n    tag_164:\n        /* \"#utility.yul\":7002:7003   */\n      0x00\n        /* \"#utility.yul\":7027:7080   */\n      tag_166\n        /* \"#utility.yul\":7072:7079   */\n      dup5\n        /* \"#utility.yul\":7063:7069   */\n      dup3\n        /* \"#utility.yul\":7052:7061   */\n      dup6\n        /* \"#utility.yul\":7048:7070   */\n      add\n        /* \"#utility.yul\":7027:7080   */\n      tag_80\n      jump\t// in\n    tag_166:\n        /* \"#utility.yul\":7017:7080   */\n      swap2\n      pop\n        /* \"#utility.yul\":6973:7090   */\n      pop\n        /* \"#utility.yul\":6768:7097   */\n      swap3\n      swap2\n      pop\n      pop\n      jump\t// out\n        /* \"#utility.yul\":7103:7577   */\n    tag_25:\n        /* \"#utility.yul\":7171:7177   */\n      0x00\n        /* \"#utility.yul\":7179:7185   */\n      dup1\n        /* \"#utility.yul\":7228:7230   */\n      0x40\n        /* \"#utility.yul\":7216:7225   */\n      dup4\n        /* \"#utility.yul\":7207:7214   */\n      dup6\n        /* \"#utility.yul\":7203:7226   */\n      sub\n        /* \"#utility.yul\":7199:7231   */\n      slt\n        /* \"#utility.yul\":7196:7315   */\n      iszero\n      tag_168\n      jumpi\n        /* \"#utility.yul\":7234:7313   */\n      tag_169\n      tag_63\n      jump\t// in\n    tag_169:\n        /* \"#utility.yul\":7196:7315   */\n    tag_168:\n        /* \"#utility.yul\":7354:7355   */\n      0x00\n        /* \"#utility.yul\":7379:7432   */\n      tag_170\n        /* \"#utility.yul\":7424:7431   */\n      dup6\n        /* \"#utility.yul\":7415:7421   */\n      dup3\n        /* \"#utility.yul\":7404:7413   */\n      dup7\n        /* \"#utility.yul\":7400:7422   */\n      add\n        /* \"#utility.yul\":7379:7432   */\n      tag_80\n      jump\t// in\n    tag_170:\n        /* \"#utility.yul\":7369:7432   */\n      swap3\n      pop\n        /* \"#utility.yul\":7325:7442   */\n      pop\n        /* \"#utility.yul\":7481:7483   */\n      0x20\n        /* \"#utility.yul\":7507:7560   */\n      tag_171\n        /* \"#utility.yul\":7552:7559   */\n      dup6\n        /* \"#utility.yul\":7543:7549   */\n      dup3\n        /* \"#utility.yul\":7532:7541   */\n      dup7\n        /* \"#utility.yul\":7528:7550   */\n      add\n        /* \"#utility.yul\":7507:7560   */\n      tag_77\n      jump\t// in\n    tag_171:\n        /* \"#utility.yul\":7497:7560   */\n      swap2\n      pop\n        /* \"#utility.yul\":7452:7570   */\n      pop\n        /* \"#utility.yul\":7103:7577   */\n      swap3\n      pop\n      swap3\n      swap1\n      pop\n      jump\t// out\n        /* \"#utility.yul\":7583:7912   */\n    tag_30:\n        /* \"#utility.yul\":7642:7648   */\n      0x00\n        /* \"#utility.yul\":7691:7693   */\n      0x20\n        /* \"#utility.yul\":7679:7688   */\n      dup3\n        /* \"#utility.yul\":7670:7677   */\n      dup5\n        /* \"#utility.yul\":7666:7689   */\n      sub\n        /* \"#utility.yul\":7662:7694   */\n      slt\n        /* \"#utility.yul\":7659:7778   */\n      iszero\n      tag_173\n      jumpi\n        /* \"#utility.yul\":7697:7776   */\n      tag_174\n      tag_63\n      jump\t// in\n    tag_174:\n        /* \"#utility.yul\":7659:7778   */\n    tag_173:\n        /* \"#utility.yul\":7817:7818   */\n      0x00\n        /* \"#utility.yul\":7842:7895   */\n      tag_175\n        /* \"#utility.yul\":7887:7894   */\n      dup5\n        /* \"#utility.yul\":7878:7884   */\n      dup3\n        /* \"#utility.yul\":7867:7876   */\n      dup6\n        /* \"#utility.yul\":7863:7885   */\n      add\n        /* \"#utility.yul\":7842:7895   */\n      tag_77\n      jump\t// in\n    tag_175:\n        /* \"#utility.yul\":7832:7895   */\n      swap2\n      pop\n        /* \"#utility.yul\":7788:7905   */\n      pop\n        /* \"#utility.yul\":7583:7912   */\n      swap3\n      swap2\n      pop\n      pop\n      jump\t// out\n        /* \"#utility.yul\":7918:8017   */\n    tag_81:\n        /* \"#utility.yul\":7970:7976   */\n      0x00\n        /* \"#utility.yul\":8004:8009   */\n      dup2\n        /* \"#utility.yul\":7998:8010   */\n      mload\n        /* \"#utility.yul\":7988:8010   */\n      swap1\n      pop\n        /* \"#utility.yul\":7918:8017   */\n      swap2\n      swap1\n      pop\n      jump\t// out\n        /* \"#utility.yul\":8023:8192   */\n    tag_82:\n        /* \"#utility.yul\":8107:8118   */\n      0x00\n        /* \"#utility.yul\":8141:8147   */\n      dup3\n        /* \"#utility.yul\":8136:8139   */\n      dup3\n        /* \"#utility.yul\":8129:8148   */\n      mstore\n        /* \"#utility.yul\":8181:8185   */\n      0x20\n        /* \"#utility.yul\":8176:8179   */\n      dup3\n        /* \"#utility.yul\":8172:8186   */\n      add\n        /* \"#utility.yul\":8157:8186   */\n      swap1\n      pop\n        /* \"#utility.yul\":8023:8192   */\n      swap3\n      swap2\n      pop\n      pop\n      jump\t// out\n        /* \"#utility.yul\":8198:8337   */\n    tag_83:\n        /* \"#utility.yul\":8287:8293   */\n      dup3\n        /* \"#utility.yul\":8282:8285   */\n      dup2\n        /* \"#utility.yul\":8277:8280   */\n      dup4\n        /* \"#utility.yul\":8271:8294   */\n      mcopy\n        /* \"#utility.yul\":8328:8329   */\n      0x00\n        /* \"#utility.yul\":8319:8325   */\n      dup4\n        /* \"#utility.yul\":8314:8317   */\n      dup4\n        /* \"#utility.yul\":8310:8326   */\n      add\n        /* \"#utility.yul\":8303:8330   */\n      mstore\n        /* \"#utility.yul\":8198:8337   */\n      pop\n      pop\n      pop\n      jump\t// out\n        /* \"#utility.yul\":8343:8720   */\n    tag_84:\n        /* \"#utility.yul\":8431:8434   */\n      0x00\n        /* \"#utility.yul\":8459:8498   */\n      tag_180\n        /* \"#utility.yul\":8492:8497   */\n      dup3\n        /* \"#utility.yul\":8459:8498   */\n      tag_81\n      jump\t// in\n    tag_180:\n        /* \"#utility.yul\":8514:8585   */\n      tag_181\n        /* \"#utility.yul\":8578:8584   */\n      dup2\n        /* \"#utility.yul\":8573:8576   */\n      dup6\n        /* \"#utility.yul\":8514:8585   */\n      tag_82\n      jump\t// in\n    tag_181:\n        /* \"#utility.yul\":8507:8585   */\n      swap4\n      pop\n        /* \"#utility.yul\":8594:8659   */\n      tag_182\n        /* \"#utility.yul\":8652:8658   */\n      dup2\n        /* \"#utility.yul\":8647:8650   */\n      dup6\n        /* \"#utility.yul\":8640:8644   */\n      0x20\n        /* \"#utility.yul\":8633:8638   */\n      dup7\n        /* \"#utility.yul\":8629:8645   */\n      add\n        /* \"#utility.yul\":8594:8659   */\n      tag_83\n      jump\t// in\n    tag_182:\n        /* \"#utility.yul\":8684:8713   */\n      tag_183\n        /* \"#utility.yul\":8706:8712   */\n      dup2\n        /* \"#utility.yul\":8684:8713   */\n      tag_67\n      jump\t// in\n    tag_183:\n        /* \"#utility.yul\":8679:8682   */\n      dup5\n        /* \"#utility.yul\":8675:8714   */\n      add\n        /* \"#utility.yul\":8668:8714   */\n      swap2\n      pop\n        /* \"#utility.yul\":8435:8720   */\n      pop\n        /* \"#utility.yul\":8343:8720   */\n      swap3\n      swap2\n      pop\n      pop\n      jump\t// out\n        /* \"#utility.yul\":8726:8844   */\n    tag_85:\n        /* \"#utility.yul\":8813:8837   */\n      tag_185\n        /* \"#utility.yul\":8831:8836   */\n      dup2\n        /* \"#utility.yul\":8813:8837   */\n      tag_75\n      jump\t// in\n    tag_185:\n        /* \"#utility.yul\":8808:8811   */\n      dup3\n        /* \"#utility.yul\":8801:8838   */\n      mstore\n        /* \"#utility.yul\":8726:8844   */\n      pop\n      pop\n      jump\t// out\n        /* \"#utility.yul\":8850:9585   */\n    tag_40:\n        /* \"#utility.yul\":9067:9071   */\n      0x00\n        /* \"#utility.yul\":9105:9108   */\n      0x80\n        /* \"#utility.yul\":9094:9103   */\n      dup3\n        /* \"#utility.yul\":9090:9109   */\n      add\n        /* \"#utility.yul\":9082:9109   */\n      swap1\n      pop\n        /* \"#utility.yul\":9155:9164   */\n      dup2\n        /* \"#utility.yul\":9149:9153   */\n      dup2\n        /* \"#utility.yul\":9145:9165   */\n      sub\n        /* \"#utility.yul\":9141:9142   */\n      0x00\n        /* \"#utility.yul\":9130:9139   */\n      dup4\n        /* \"#utility.yul\":9126:9143   */\n      add\n        /* \"#utility.yul\":9119:9166   */\n      mstore\n        /* \"#utility.yul\":9183:9261   */\n      tag_187\n        /* \"#utility.yul\":9256:9260   */\n      dup2\n        /* \"#utility.yul\":9247:9253   */\n      dup8\n        /* \"#utility.yul\":9183:9261   */\n      tag_84\n      jump\t// in\n    tag_187:\n        /* \"#utility.yul\":9175:9261   */\n      swap1\n      pop\n        /* \"#utility.yul\":9308:9317   */\n      dup2\n        /* \"#utility.yul\":9302:9306   */\n      dup2\n        /* \"#utility.yul\":9298:9318   */\n      sub\n        /* \"#utility.yul\":9293:9295   */\n      0x20\n        /* \"#utility.yul\":9282:9291   */\n      dup4\n        /* \"#utility.yul\":9278:9296   */\n      add\n        /* \"#utility.yul\":9271:9319   */\n      mstore\n        /* \"#utility.yul\":9336:9414   */\n      tag_188\n        /* \"#utility.yul\":9409:9413   */\n      dup2\n        /* \"#utility.yul\":9400:9406   */\n      dup7\n        /* \"#utility.yul\":9336:9414   */\n      tag_84\n      jump\t// in\n    tag_188:\n        /* \"#utility.yul\":9328:9414   */\n      swap1\n      pop\n        /* \"#utility.yul\":9424:9496   */\n      tag_189\n        /* \"#utility.yul\":9492:9494   */\n      0x40\n        /* \"#utility.yul\":9481:9490   */\n      dup4\n        /* \"#utility.yul\":9477:9495   */\n      add\n        /* \"#utility.yul\":9468:9474   */\n      dup6\n        /* \"#utility.yul\":9424:9496   */\n      tag_85\n      jump\t// in\n    tag_189:\n        /* \"#utility.yul\":9506:9578   */\n      tag_190\n        /* \"#utility.yul\":9574:9576   */\n      0x60\n        /* \"#utility.yul\":9563:9572   */\n      dup4\n        /* \"#utility.yul\":9559:9577   */\n      add\n        /* \"#utility.yul\":9550:9556   */\n      dup5\n        /* \"#utility.yul\":9506:9578   */\n      tag_78\n      jump\t// in\n    tag_190:\n        /* \"#utility.yul\":8850:9585   */\n      swap6\n      swap5\n      pop\n      pop\n      pop\n      pop\n      pop\n      jump\t// out\n        /* \"#utility.yul\":9591:10105   */\n    tag_45:\n        /* \"#utility.yul\":9752:9756   */\n      0x00\n        /* \"#utility.yul\":9790:9792   */\n      0x40\n        /* \"#utility.yul\":9779:9788   */\n      dup3\n        /* \"#utility.yul\":9775:9793   */\n      add\n        /* \"#utility.yul\":9767:9793   */\n      swap1\n      pop\n        /* \"#utility.yul\":9839:9848   */\n      dup2\n        /* \"#utility.yul\":9833:9837   */\n      dup2\n        /* \"#utility.yul\":9829:9849   */\n      sub\n        /* \"#utility.yul\":9825:9826   */\n      0x00\n        /* \"#utility.yul\":9814:9823   */\n      dup4\n        /* \"#utility.yul\":9810:9827   */\n      add\n        /* \"#utility.yul\":9803:9850   */\n      mstore\n        /* \"#utility.yul\":9867:9945   */\n      tag_192\n        /* \"#utility.yul\":9940:9944   */\n      dup2\n        /* \"#utility.yul\":9931:9937   */\n      dup6\n        /* \"#utility.yul\":9867:9945   */\n      tag_84\n      jump\t// in\n    tag_192:\n        /* \"#utility.yul\":9859:9945   */\n      swap1\n      pop\n        /* \"#utility.yul\":9992:10001   */\n      dup2\n        /* \"#utility.yul\":9986:9990   */\n      dup2\n        /* \"#utility.yul\":9982:10002   */\n      sub\n        /* \"#utility.yul\":9977:9979   */\n      0x20\n        /* \"#utility.yul\":9966:9975   */\n      dup4\n        /* \"#utility.yul\":9962:9980   */\n      add\n        /* \"#utility.yul\":9955:10003   */\n      mstore\n        /* \"#utility.yul\":10020:10098   */\n      tag_193\n        /* \"#utility.yul\":10093:10097   */\n      dup2\n        /* \"#utility.yul\":10084:10090   */\n      dup5\n        /* \"#utility.yul\":10020:10098   */\n      tag_84\n      jump\t// in\n    tag_193:\n        /* \"#utility.yul\":10012:10098   */\n      swap1\n      pop\n        /* \"#utility.yul\":9591:10105   */\n      swap4\n      swap3\n      pop\n      pop\n      pop\n      jump\t// out\n    stop\n\n    sub_0: assembly {\n            /* \"contracts/TokenFactory.sol\":168:446  contract CustomToken is ERC20, Ownable {... */\n          mstore(0x40, 0x80)\n            /* \"contracts/TokenFactory.sol\":213:444  constructor(... */\n          callvalue\n          dup1\n          iszero\n          tag_1\n          jumpi\n          0x00\n          dup1\n          revert\n        tag_1:\n          pop\n          mload(0x40)\n          sub(codesize, bytecodeSize)\n          dup1\n          bytecodeSize\n          dup4\n          codecopy\n          dup2\n          dup2\n          add\n          0x40\n          mstore\n          dup2\n          add\n          swap1\n          tag_2\n          swap2\n          swap1\n          tag_3\n          jump\t// in\n        tag_2:\n            /* \"contracts/TokenFactory.sol\":379:391  initialOwner */\n          dup1\n            /* \"contracts/TokenFactory.sol\":357:361  name */\n          dup5\n            /* \"contracts/TokenFactory.sol\":363:369  symbol */\n          dup5\n            /* \"@openzeppelin/contracts/token/ERC20/ERC20.sol\":1675:1680  name_ */\n          dup2\n            /* \"@openzeppelin/contracts/token/ERC20/ERC20.sol\":1667:1672  _name */\n          0x03\n            /* \"@openzeppelin/contracts/token/ERC20/ERC20.sol\":1667:1680  _name = name_ */\n          swap1\n          dup2\n          tag_8\n          swap2\n          swap1\n          tag_9\n          jump\t// in\n        tag_8:\n          pop\n            /* \"@openzeppelin/contracts/token/ERC20/ERC20.sol\":1700:1707  symbol_ */\n          dup1\n            /* \"@openzeppelin/contracts/token/ERC20/ERC20.sol\":1690:1697  _symbol */\n          0x04\n            /* \"@openzeppelin/contracts/token/ERC20/ERC20.sol\":1690:1707  _symbol = symbol_ */\n          swap1\n          dup2\n          tag_10\n          swap2\n          swap1\n          tag_9\n          jump\t// in\n        tag_10:\n          pop\n            /* \"@openzeppelin/contracts/token/ERC20/ERC20.sol\":1601:1714  constructor(string memory name_, string memory symbol_) {... */\n          pop\n          pop\n            /* \"@openzeppelin/contracts/access/Ownable.sol\":1297:1298  0 */\n          0x00\n            /* \"@openzeppelin/contracts/access/Ownable.sol\":1273:1299  initialOwner == address(0) */\n          0xffffffffffffffffffffffffffffffffffffffff\n          and\n            /* \"@openzeppelin/contracts/access/Ownable.sol\":1273:1285  initialOwner */\n          dup2\n            /* \"@openzeppelin/contracts/access/Ownable.sol\":1273:1299  initialOwner == address(0) */\n          0xffffffffffffffffffffffffffffffffffffffff\n          and\n          sub\n            /* \"@openzeppelin/contracts/access/Ownable.sol\":1269:1364  if (initialOwner == address(0)) {... */\n          tag_12\n          jumpi\n            /* \"@openzeppelin/contracts/access/Ownable.sol\":1350:1351  0 */\n          0x00\n            /* \"@openzeppelin/contracts/access/Ownable.sol\":1322:1353  OwnableInvalidOwner(address(0)) */\n          mload(0x40)\n          0x1e4fbdf700000000000000000000000000000000000000000000000000000000\n          dup2\n          mstore\n          0x04\n          add\n          tag_13\n          swap2\n          swap1\n          tag_14\n          jump\t// in\n        tag_13:\n          mload(0x40)\n          dup1\n          swap2\n          sub\n          swap1\n          revert\n            /* \"@openzeppelin/contracts/access/Ownable.sol\":1269:1364  if (initialOwner == address(0)) {... */\n        tag_12:\n            /* \"@openzeppelin/contracts/access/Ownable.sol\":1373:1405  _transferOwnership(initialOwner) */\n          tag_15\n            /* \"@openzeppelin/contracts/access/Ownable.sol\":1392:1404  initialOwner */\n          dup2\n            /* \"@openzeppelin/contracts/access/Ownable.sol\":1373:1391  _transferOwnership */\n          shl(0x20, tag_16)\n            /* \"@openzeppelin/contracts/access/Ownable.sol\":1373:1405  _transferOwnership(initialOwner) */\n          0x20\n          shr\n          jump\t// in\n        tag_15:\n            /* \"@openzeppelin/contracts/access/Ownable.sol\":1225:1412  constructor(address initialOwner) {... */\n          pop\n            /* \"contracts/TokenFactory.sol\":403:437  _mint(initialOwner, initialSupply) */\n          tag_18\n            /* \"contracts/TokenFactory.sol\":409:421  initialOwner */\n          dup2\n            /* \"contracts/TokenFactory.sol\":423:436  initialSupply */\n          dup4\n            /* \"contracts/TokenFactory.sol\":403:408  _mint */\n          shl(0x20, tag_19)\n            /* \"contracts/TokenFactory.sol\":403:437  _mint(initialOwner, initialSupply) */\n          0x20\n          shr\n          jump\t// in\n        tag_18:\n            /* \"contracts/TokenFactory.sol\":213:444  constructor(... */\n          pop\n          pop\n          pop\n          pop\n            /* \"contracts/TokenFactory.sol\":168:446  contract CustomToken is ERC20, Ownable {... */\n          jump(tag_20)\n            /* \"@openzeppelin/contracts/access/Ownable.sol\":2912:3099  function _transferOwnership(address newOwner) internal virtual {... */\n        tag_16:\n            /* \"@openzeppelin/contracts/access/Ownable.sol\":2985:3001  address oldOwner */\n          0x00\n            /* \"@openzeppelin/contracts/access/Ownable.sol\":3004:3010  _owner */\n          0x05\n          0x00\n          swap1\n          sload\n          swap1\n          0x0100\n          exp\n          swap1\n          div\n          0xffffffffffffffffffffffffffffffffffffffff\n          and\n            /* \"@openzeppelin/contracts/access/Ownable.sol\":2985:3010  address oldOwner = _owner */\n          swap1\n          pop\n            /* \"@openzeppelin/contracts/access/Ownable.sol\":3029:3037  newOwner */\n          dup2\n            /* \"@openzeppelin/contracts/access/Ownable.sol\":3020:3026  _owner */\n          0x05\n          0x00\n            /* \"@openzeppelin/contracts/access/Ownable.sol\":3020:3037  _owner = newOwner */\n          0x0100\n          exp\n          dup2\n          sload\n          dup2\n          0xffffffffffffffffffffffffffffffffffffffff\n          mul\n          not\n          and\n          swap1\n          dup4\n          0xffffffffffffffffffffffffffffffffffffffff\n          and\n          mul\n          or\n          swap1\n          sstore\n          pop\n            /* \"@openzeppelin/contracts/access/Ownable.sol\":3083:3091  newOwner */\n          dup2\n            /* \"@openzeppelin/contracts/access/Ownable.sol\":3052:3092  OwnershipTransferred(oldOwner, newOwner) */\n          0xffffffffffffffffffffffffffffffffffffffff\n          and\n            /* \"@openzeppelin/contracts/access/Ownable.sol\":3073:3081  oldOwner */\n          dup2\n            /* \"@openzeppelin/contracts/access/Ownable.sol\":3052:3092  OwnershipTransferred(oldOwner, newOwner) */\n          0xffffffffffffffffffffffffffffffffffffffff\n          and\n          0x8be0079c531659141344cd1fd0a4f28419497f9722a3daafe3b4186f6b6457e0\n          mload(0x40)\n          mload(0x40)\n          dup1\n          swap2\n          sub\n          swap1\n          log3\n            /* \"@openzeppelin/contracts/access/Ownable.sol\":2975:3099  {... */\n          pop\n            /* \"@openzeppelin/contracts/access/Ownable.sol\":2912:3099  function _transferOwnership(address newOwner) internal virtual {... */\n          pop\n          jump\t// out\n            /* \"@openzeppelin/contracts/token/ERC20/ERC20.sol\":7458:7666  function _mint(address account, uint256 value) internal {... */\n        tag_19:\n            /* \"@openzeppelin/contracts/token/ERC20/ERC20.sol\":7547:7548  0 */\n          0x00\n            /* \"@openzeppelin/contracts/token/ERC20/ERC20.sol\":7528:7549  account == address(0) */\n          0xffffffffffffffffffffffffffffffffffffffff\n          and\n            /* \"@openzeppelin/contracts/token/ERC20/ERC20.sol\":7528:7535  account */\n          dup3\n            /* \"@openzeppelin/contracts/token/ERC20/ERC20.sol\":7528:7549  account == address(0) */\n          0xffffffffffffffffffffffffffffffffffffffff\n          and\n          sub\n            /* \"@openzeppelin/contracts/token/ERC20/ERC20.sol\":7524:7615  if (account == address(0)) {... */\n          tag_23\n          jumpi\n            /* \"@openzeppelin/contracts/token/ERC20/ERC20.sol\":7601:7602  0 */\n          0x00\n            /* \"@openzeppelin/contracts/token/ERC20/ERC20.sol\":7572:7604  ERC20InvalidReceiver(address(0)) */\n          mload(0x40)\n          0xec442f0500000000000000000000000000000000000000000000000000000000\n          dup2\n          mstore\n          0x04\n          add\n          tag_24\n          swap2\n          swap1\n          tag_14\n          jump\t// in\n        tag_24:\n          mload(0x40)\n          dup1\n          swap2\n          sub\n          swap1\n          revert\n            /* \"@openzeppelin/contracts/token/ERC20/ERC20.sol\":7524:7615  if (account == address(0)) {... */\n        tag_23:\n            /* \"@openzeppelin/contracts/token/ERC20/ERC20.sol\":7624:7659  _update(address(0), account, value) */\n          tag_25\n            /* \"@openzeppelin/contracts/token/ERC20/ERC20.sol\":7640:7641  0 */\n          0x00\n            /* \"@openzeppelin/contracts/token/ERC20/ERC20.sol\":7644:7651  account */\n          dup4\n            /* \"@openzeppelin/contracts/token/ERC20/ERC20.sol\":7653:7658  value */\n          dup4\n            /* \"@openzeppelin/contracts/token/ERC20/ERC20.sol\":7624:7631  _update */\n          shl(0x20, tag_26)\n            /* \"@openzeppelin/contracts/token/ERC20/ERC20.sol\":7624:7659  _update(address(0), account, value) */\n          0x20\n          shr\n          jump\t// in\n        tag_25:\n            /* \"@openzeppelin/contracts/token/ERC20/ERC20.sol\":7458:7666  function _mint(address account, uint256 value) internal {... */\n          pop\n          pop\n          jump\t// out\n            /* \"@openzeppelin/contracts/token/ERC20/ERC20.sol\":6008:7115  function _update(address from, address to, uint256 value) internal virtual {... */\n        tag_26:\n            /* \"@openzeppelin/contracts/token/ERC20/ERC20.sol\":6113:6114  0 */\n          0x00\n            /* \"@openzeppelin/contracts/token/ERC20/ERC20.sol\":6097:6115  from == address(0) */\n          0xffffffffffffffffffffffffffffffffffffffff\n          and\n            /* \"@openzeppelin/contracts/token/ERC20/ERC20.sol\":6097:6101  from */\n          dup4\n            /* \"@openzeppelin/contracts/token/ERC20/ERC20.sol\":6097:6115  from == address(0) */\n          0xffffffffffffffffffffffffffffffffffffffff\n          and\n          sub\n            /* \"@openzeppelin/contracts/token/ERC20/ERC20.sol\":6093:6633  if (from == address(0)) {... */\n          tag_28\n          jumpi\n            /* \"@openzeppelin/contracts/token/ERC20/ERC20.sol\":6249:6254  value */\n          dup1\n            /* \"@openzeppelin/contracts/token/ERC20/ERC20.sol\":6233:6245  _totalSupply */\n          0x02\n          0x00\n            /* \"@openzeppelin/contracts/token/ERC20/ERC20.sol\":6233:6254  _totalSupply += value */\n          dup3\n          dup3\n          sload\n          tag_29\n          swap2\n          swap1\n          tag_30\n          jump\t// in\n        tag_29:\n          swap3\n          pop\n          pop\n          dup2\n          swap1\n          sstore\n          pop\n            /* \"@openzeppelin/contracts/token/ERC20/ERC20.sol\":6093:6633  if (from == address(0)) {... */\n          jump(tag_31)\n        tag_28:\n            /* \"@openzeppelin/contracts/token/ERC20/ERC20.sol\":6285:6304  uint256 fromBalance */\n          0x00\n            /* \"@openzeppelin/contracts/token/ERC20/ERC20.sol\":6307:6316  _balances */\n          dup1\n            /* \"@openzeppelin/contracts/token/ERC20/ERC20.sol\":6307:6322  _balances[from] */\n          0x00\n            /* \"@openzeppelin/contracts/token/ERC20/ERC20.sol\":6317:6321  from */\n          dup6\n            /* \"@openzeppelin/contracts/token/ERC20/ERC20.sol\":6307:6322  _balances[from] */\n          0xffffffffffffffffffffffffffffffffffffffff\n          and\n          0xffffffffffffffffffffffffffffffffffffffff\n          and\n          dup2\n          mstore\n          0x20\n          add\n          swap1\n          dup2\n          mstore\n          0x20\n          add\n          0x00\n          keccak256\n          sload\n            /* \"@openzeppelin/contracts/token/ERC20/ERC20.sol\":6285:6322  uint256 fromBalance = _balances[from] */\n          swap1\n          pop\n            /* \"@openzeppelin/contracts/token/ERC20/ERC20.sol\":6354:6359  value */\n          dup2\n            /* \"@openzeppelin/contracts/token/ERC20/ERC20.sol\":6340:6351  fromBalance */\n          dup2\n            /* \"@openzeppelin/contracts/token/ERC20/ERC20.sol\":6340:6359  fromBalance < value */\n          lt\n            /* \"@openzeppelin/contracts/token/ERC20/ERC20.sol\":6336:6451  if (fromBalance < value) {... */\n          iszero\n          tag_32\n          jumpi\n            /* \"@openzeppelin/contracts/token/ERC20/ERC20.sol\":6411:6415  from */\n          dup4\n            /* \"@openzeppelin/contracts/token/ERC20/ERC20.sol\":6417:6428  fromBalance */\n          dup2\n            /* \"@openzeppelin/contracts/token/ERC20/ERC20.sol\":6430:6435  value */\n          dup4\n            /* \"@openzeppelin/contracts/token/ERC20/ERC20.sol\":6386:6436  ERC20InsufficientBalance(from, fromBalance, value) */\n          mload(0x40)\n          0xe450d38c00000000000000000000000000000000000000000000000000000000\n          dup2\n          mstore\n          0x04\n          add\n          tag_33\n          swap4\n          swap3\n          swap2\n          swap1\n          tag_34\n          jump\t// in\n        tag_33:\n          mload(0x40)\n          dup1\n          swap2\n          sub\n          swap1\n          revert\n            /* \"@openzeppelin/contracts/token/ERC20/ERC20.sol\":6336:6451  if (fromBalance < value) {... */\n        tag_32:\n            /* \"@openzeppelin/contracts/token/ERC20/ERC20.sol\":6603:6608  value */\n          dup2\n            /* \"@openzeppelin/contracts/token/ERC20/ERC20.sol\":6589:6600  fromBalance */\n          dup2\n            /* \"@openzeppelin/contracts/token/ERC20/ERC20.sol\":6589:6608  fromBalance - value */\n          sub\n            /* \"@openzeppelin/contracts/token/ERC20/ERC20.sol\":6571:6580  _balances */\n          0x00\n            /* \"@openzeppelin/contracts/token/ERC20/ERC20.sol\":6571:6586  _balances[from] */\n          dup1\n            /* \"@openzeppelin/contracts/token/ERC20/ERC20.sol\":6581:6585  from */\n          dup7\n            /* \"@openzeppelin/contracts/token/ERC20/ERC20.sol\":6571:6586  _balances[from] */\n          0xffffffffffffffffffffffffffffffffffffffff\n          and\n          0xffffffffffffffffffffffffffffffffffffffff\n          and\n          dup2\n          mstore\n          0x20\n          add\n          swap1\n          dup2\n          mstore\n          0x20\n          add\n          0x00\n          keccak256\n            /* \"@openzeppelin/contracts/token/ERC20/ERC20.sol\":6571:6608  _balances[from] = fromBalance - value */\n          dup2\n          swap1\n          sstore\n          pop\n            /* \"@openzeppelin/contracts/token/ERC20/ERC20.sol\":6271:6633  {... */\n          pop\n            /* \"@openzeppelin/contracts/token/ERC20/ERC20.sol\":6093:6633  if (from == address(0)) {... */\n        tag_31:\n            /* \"@openzeppelin/contracts/token/ERC20/ERC20.sol\":6661:6662  0 */\n          0x00\n            /* \"@openzeppelin/contracts/token/ERC20/ERC20.sol\":6647:6663  to == address(0) */\n          0xffffffffffffffffffffffffffffffffffffffff\n          and\n            /* \"@openzeppelin/contracts/token/ERC20/ERC20.sol\":6647:6649  to */\n          dup3\n            /* \"@openzeppelin/contracts/token/ERC20/ERC20.sol\":6647:6663  to == address(0) */\n          0xffffffffffffffffffffffffffffffffffffffff\n          and\n          sub\n            /* \"@openzeppelin/contracts/token/ERC20/ERC20.sol\":6643:7068  if (to == address(0)) {... */\n          tag_35\n          jumpi\n            /* \"@openzeppelin/contracts/token/ERC20/ERC20.sol\":6826:6831  value */\n          dup1\n            /* \"@openzeppelin/contracts/token/ERC20/ERC20.sol\":6810:6822  _totalSupply */\n          0x02\n          0x00\n            /* \"@openzeppelin/contracts/token/ERC20/ERC20.sol\":6810:6831  _totalSupply -= value */\n          dup3\n          dup3\n          sload\n          sub\n          swap3\n          pop\n          pop\n          dup2\n          swap1\n          sstore\n          pop\n            /* \"@openzeppelin/contracts/token/ERC20/ERC20.sol\":6643:7068  if (to == address(0)) {... */\n          jump(tag_36)\n        tag_35:\n            /* \"@openzeppelin/contracts/token/ERC20/ERC20.sol\":7038:7043  value */\n          dup1\n            /* \"@openzeppelin/contracts/token/ERC20/ERC20.sol\":7021:7030  _balances */\n          0x00\n            /* \"@openzeppelin/contracts/token/ERC20/ERC20.sol\":7021:7034  _balances[to] */\n          dup1\n            /* \"@openzeppelin/contracts/token/ERC20/ERC20.sol\":7031:7033  to */\n          dup5\n            /* \"@openzeppelin/contracts/token/ERC20/ERC20.sol\":7021:7034  _balances[to] */\n          0xffffffffffffffffffffffffffffffffffffffff\n          and\n          0xffffffffffffffffffffffffffffffffffffffff\n          and\n          dup2\n          mstore\n          0x20\n          add\n          swap1\n          dup2\n          mstore\n          0x20\n          add\n          0x00\n          keccak256\n          0x00\n            /* \"@openzeppelin/contracts/token/ERC20/ERC20.sol\":7021:7043  _balances[to] += value */\n          dup3\n          dup3\n          sload\n          add\n          swap3\n          pop\n          pop\n          dup2\n          swap1\n          sstore\n          pop\n            /* \"@openzeppelin/contracts/token/ERC20/ERC20.sol\":6643:7068  if (to == address(0)) {... */\n        tag_36:\n            /* \"@openzeppelin/contracts/token/ERC20/ERC20.sol\":7098:7100  to */\n          dup2\n            /* \"@openzeppelin/contracts/token/ERC20/ERC20.sol\":7083:7108  Transfer(from, to, value) */\n          0xffffffffffffffffffffffffffffffffffffffff\n          and\n            /* \"@openzeppelin/contracts/token/ERC20/ERC20.sol\":7092:7096  from */\n          dup4\n            /* \"@openzeppelin/contracts/token/ERC20/ERC20.sol\":7083:7108  Transfer(from, to, value) */\n          0xffffffffffffffffffffffffffffffffffffffff\n          and\n          0xddf252ad1be2c89b69c2b068fc378daa952ba7f163c4a11628f55a4df523b3ef\n            /* \"@openzeppelin/contracts/token/ERC20/ERC20.sol\":7102:7107  value */\n          dup4\n            /* \"@openzeppelin/contracts/token/ERC20/ERC20.sol\":7083:7108  Transfer(from, to, value) */\n          mload(0x40)\n          tag_37\n          swap2\n          swap1\n          tag_38\n          jump\t// in\n        tag_37:\n          mload(0x40)\n          dup1\n          swap2\n          sub\n          swap1\n          log3\n            /* \"@openzeppelin/contracts/token/ERC20/ERC20.sol\":6008:7115  function _update(address from, address to, uint256 value) internal virtual {... */\n          pop\n          pop\n          pop\n          jump\t// out\n            /* \"#utility.yul\":7:82   */\n        tag_39:\n            /* \"#utility.yul\":40:46   */\n          0x00\n            /* \"#utility.yul\":73:75   */\n          0x40\n            /* \"#utility.yul\":67:76   */\n          mload\n            /* \"#utility.yul\":57:76   */\n          swap1\n          pop\n            /* \"#utility.yul\":7:82   */\n          swap1\n          jump\t// out\n            /* \"#utility.yul\":88:205   */\n        tag_40:\n            /* \"#utility.yul\":197:198   */\n          0x00\n            /* \"#utility.yul\":194:195   */\n          dup1\n            /* \"#utility.yul\":187:199   */\n          revert\n            /* \"#utility.yul\":211:328   */\n        tag_41:\n            /* \"#utility.yul\":320:321   */\n          0x00\n            /* \"#utility.yul\":317:318   */\n          dup1\n            /* \"#utility.yul\":310:322   */\n          revert\n            /* \"#utility.yul\":334:451   */\n        tag_42:\n            /* \"#utility.yul\":443:444   */\n          0x00\n            /* \"#utility.yul\":440:441   */\n          dup1\n            /* \"#utility.yul\":433:445   */\n          revert\n            /* \"#utility.yul\":457:574   */\n        tag_43:\n            /* \"#utility.yul\":566:567   */\n          0x00\n            /* \"#utility.yul\":563:564   */\n          dup1\n            /* \"#utility.yul\":556:568   */\n          revert\n            /* \"#utility.yul\":580:682   */\n        tag_44:\n            /* \"#utility.yul\":621:627   */\n          0x00\n            /* \"#utility.yul\":672:674   */\n          0x1f\n            /* \"#utility.yul\":668:675   */\n          not\n            /* \"#utility.yul\":663:665   */\n          0x1f\n            /* \"#utility.yul\":656:661   */\n          dup4\n            /* \"#utility.yul\":652:666   */\n          add\n            /* \"#utility.yul\":648:676   */\n          and\n            /* \"#utility.yul\":638:676   */\n          swap1\n          pop\n            /* \"#utility.yul\":580:682   */\n          swap2\n          swap1\n          pop\n          jump\t// out\n            /* \"#utility.yul\":688:868   */\n        tag_45:\n            /* \"#utility.yul\":736:813   */\n          0x4e487b7100000000000000000000000000000000000000000000000000000000\n            /* \"#utility.yul\":733:734   */\n          0x00\n            /* \"#utility.yul\":726:814   */\n          mstore\n            /* \"#utility.yul\":833:837   */\n          0x41\n            /* \"#utility.yul\":830:831   */\n          0x04\n            /* \"#utility.yul\":823:838   */\n          mstore\n            /* \"#utility.yul\":857:861   */\n          0x24\n            /* \"#utility.yul\":854:855   */\n          0x00\n            /* \"#utility.yul\":847:862   */\n          revert\n            /* \"#utility.yul\":874:1155   */\n        tag_46:\n            /* \"#utility.yul\":957:984   */\n          tag_89\n            /* \"#utility.yul\":979:983   */\n          dup3\n            /* \"#utility.yul\":957:984   */\n          tag_44\n          jump\t// in\n        tag_89:\n            /* \"#utility.yul\":949:955   */\n          dup2\n            /* \"#utility.yul\":945:985   */\n          add\n            /* \"#utility.yul\":1087:1093   */\n          dup2\n            /* \"#utility.yul\":1075:1085   */\n          dup2\n            /* \"#utility.yul\":1072:1094   */\n          lt\n            /* \"#utility.yul\":1051:1069   */\n          0xffffffffffffffff\n            /* \"#utility.yul\":1039:1049   */\n          dup3\n            /* \"#utility.yul\":1036:1070   */\n          gt\n            /* \"#utility.yul\":1033:1095   */\n          or\n            /* \"#utility.yul\":1030:1118   */\n          iszero\n          tag_90\n          jumpi\n            /* \"#utility.yul\":1098:1116   */\n          tag_91\n          tag_45\n          jump\t// in\n        tag_91:\n            /* \"#utility.yul\":1030:1118   */\n        tag_90:\n            /* \"#utility.yul\":1138:1148   */\n          dup1\n            /* \"#utility.yul\":1134:1136   */\n          0x40\n            /* \"#utility.yul\":1127:1149   */\n          mstore\n            /* \"#utility.yul\":917:1155   */\n          pop\n            /* \"#utility.yul\":874:1155   */\n          pop\n          pop\n          jump\t// out\n            /* \"#utility.yul\":1161:1290   */\n        tag_47:\n            /* \"#utility.yul\":1195:1201   */\n          0x00\n            /* \"#utility.yul\":1222:1242   */\n          tag_93\n          tag_39\n          jump\t// in\n        tag_93:\n            /* \"#utility.yul\":1212:1242   */\n          swap1\n          pop\n            /* \"#utility.yul\":1251:1284   */\n          tag_94\n            /* \"#utility.yul\":1279:1283   */\n          dup3\n            /* \"#utility.yul\":1271:1277   */\n          dup3\n            /* \"#utility.yul\":1251:1284   */\n          tag_46\n          jump\t// in\n        tag_94:\n            /* \"#utility.yul\":1161:1290   */\n          swap2\n          swap1\n          pop\n          jump\t// out\n            /* \"#utility.yul\":1296:1604   */\n        tag_48:\n            /* \"#utility.yul\":1358:1362   */\n          0x00\n            /* \"#utility.yul\":1448:1466   */\n          0xffffffffffffffff\n            /* \"#utility.yul\":1440:1446   */\n          dup3\n            /* \"#utility.yul\":1437:1467   */\n          gt\n            /* \"#utility.yul\":1434:1490   */\n          iszero\n          tag_96\n          jumpi\n            /* \"#utility.yul\":1470:1488   */\n          tag_97\n          tag_45\n          jump\t// in\n        tag_97:\n            /* \"#utility.yul\":1434:1490   */\n        tag_96:\n            /* \"#utility.yul\":1508:1537   */\n          tag_98\n            /* \"#utility.yul\":1530:1536   */\n          dup3\n            /* \"#utility.yul\":1508:1537   */\n          tag_44\n          jump\t// in\n        tag_98:\n            /* \"#utility.yul\":1500:1537   */\n          swap1\n          pop\n            /* \"#utility.yul\":1592:1596   */\n          0x20\n            /* \"#utility.yul\":1586:1590   */\n          dup2\n            /* \"#utility.yul\":1582:1597   */\n          add\n            /* \"#utility.yul\":1574:1597   */\n          swap1\n          pop\n            /* \"#utility.yul\":1296:1604   */\n          swap2\n          swap1\n          pop\n          jump\t// out\n            /* \"#utility.yul\":1610:1749   */\n        tag_49:\n            /* \"#utility.yul\":1699:1705   */\n          dup3\n            /* \"#utility.yul\":1694:1697   */\n          dup2\n            /* \"#utility.yul\":1689:1692   */\n          dup4\n            /* \"#utility.yul\":1683:1706   */\n          mcopy\n            /* \"#utility.yul\":1740:1741   */\n          0x00\n            /* \"#utility.yul\":1731:1737   */\n          dup4\n            /* \"#utility.yul\":1726:1729   */\n          dup4\n            /* \"#utility.yul\":1722:1738   */\n          add\n            /* \"#utility.yul\":1715:1742   */\n          mstore\n            /* \"#utility.yul\":1610:1749   */\n          pop\n          pop\n          pop\n          jump\t// out\n            /* \"#utility.yul\":1755:2189   */\n        tag_50:\n            /* \"#utility.yul\":1844:1849   */\n          0x00\n            /* \"#utility.yul\":1869:1935   */\n          tag_101\n            /* \"#utility.yul\":1885:1934   */\n          tag_102\n            /* \"#utility.yul\":1927:1933   */\n          dup5\n            /* \"#utility.yul\":1885:1934   */\n          tag_48\n          jump\t// in\n        tag_102:\n            /* \"#utility.yul\":1869:1935   */\n          tag_47\n          jump\t// in\n        tag_101:\n            /* \"#utility.yul\":1860:1935   */\n          swap1\n          pop\n            /* \"#utility.yul\":1958:1964   */\n          dup3\n            /* \"#utility.yul\":1951:1956   */\n          dup2\n            /* \"#utility.yul\":1944:1965   */\n          mstore\n            /* \"#utility.yul\":1996:2000   */\n          0x20\n            /* \"#utility.yul\":1989:1994   */\n          dup2\n            /* \"#utility.yul\":1985:2001   */\n          add\n            /* \"#utility.yul\":2034:2037   */\n          dup5\n            /* \"#utility.yul\":2025:2031   */\n          dup5\n            /* \"#utility.yul\":2020:2023   */\n          dup5\n            /* \"#utility.yul\":2016:2032   */\n          add\n            /* \"#utility.yul\":2013:2038   */\n          gt\n            /* \"#utility.yul\":2010:2122   */\n          iszero\n          tag_103\n          jumpi\n            /* \"#utility.yul\":2041:2120   */\n          tag_104\n          tag_43\n          jump\t// in\n        tag_104:\n            /* \"#utility.yul\":2010:2122   */\n        tag_103:\n            /* \"#utility.yul\":2131:2183   */\n          tag_105\n            /* \"#utility.yul\":2176:2182   */\n          dup5\n            /* \"#utility.yul\":2171:2174   */\n          dup3\n            /* \"#utility.yul\":2166:2169   */\n          dup6\n            /* \"#utility.yul\":2131:2183   */\n          tag_49\n          jump\t// in\n        tag_105:\n            /* \"#utility.yul\":1850:2189   */\n          pop\n            /* \"#utility.yul\":1755:2189   */\n          swap4\n          swap3\n          pop\n          pop\n          pop\n          jump\t// out\n            /* \"#utility.yul\":2209:2564   */\n        tag_51:\n            /* \"#utility.yul\":2276:2281   */\n          0x00\n            /* \"#utility.yul\":2325:2328   */\n          dup3\n            /* \"#utility.yul\":2318:2322   */\n          0x1f\n            /* \"#utility.yul\":2310:2316   */\n          dup4\n            /* \"#utility.yul\":2306:2323   */\n          add\n            /* \"#utility.yul\":2302:2329   */\n          slt\n            /* \"#utility.yul\":2292:2414   */\n          tag_107\n          jumpi\n            /* \"#utility.yul\":2333:2412   */\n          tag_108\n          tag_42\n          jump\t// in\n        tag_108:\n            /* \"#utility.yul\":2292:2414   */\n        tag_107:\n            /* \"#utility.yul\":2443:2449   */\n          dup2\n            /* \"#utility.yul\":2437:2450   */\n          mload\n            /* \"#utility.yul\":2468:2558   */\n          tag_109\n            /* \"#utility.yul\":2554:2557   */\n          dup5\n            /* \"#utility.yul\":2546:2552   */\n          dup3\n            /* \"#utility.yul\":2539:2543   */\n          0x20\n            /* \"#utility.yul\":2531:2537   */\n          dup7\n            /* \"#utility.yul\":2527:2544   */\n          add\n            /* \"#utility.yul\":2468:2558   */\n          tag_50\n          jump\t// in\n        tag_109:\n            /* \"#utility.yul\":2459:2558   */\n          swap2\n          pop\n            /* \"#utility.yul\":2282:2564   */\n          pop\n            /* \"#utility.yul\":2209:2564   */\n          swap3\n          swap2\n          pop\n          pop\n          jump\t// out\n            /* \"#utility.yul\":2570:2647   */\n        tag_52:\n            /* \"#utility.yul\":2607:2614   */\n          0x00\n            /* \"#utility.yul\":2636:2641   */\n          dup2\n            /* \"#utility.yul\":2625:2641   */\n          swap1\n          pop\n            /* \"#utility.yul\":2570:2647   */\n          swap2\n          swap1\n          pop\n          jump\t// out\n            /* \"#utility.yul\":2653:2775   */\n        tag_53:\n            /* \"#utility.yul\":2726:2750   */\n          tag_112\n            /* \"#utility.yul\":2744:2749   */\n          dup2\n            /* \"#utility.yul\":2726:2750   */\n          tag_52\n          jump\t// in\n        tag_112:\n            /* \"#utility.yul\":2719:2724   */\n          dup2\n            /* \"#utility.yul\":2716:2751   */\n          eq\n            /* \"#utility.yul\":2706:2769   */\n          tag_113\n          jumpi\n            /* \"#utility.yul\":2765:2766   */\n          0x00\n            /* \"#utility.yul\":2762:2763   */\n          dup1\n            /* \"#utility.yul\":2755:2767   */\n          revert\n            /* \"#utility.yul\":2706:2769   */\n        tag_113:\n            /* \"#utility.yul\":2653:2775   */\n          pop\n          jump\t// out\n            /* \"#utility.yul\":2781:2924   */\n        tag_54:\n            /* \"#utility.yul\":2838:2843   */\n          0x00\n            /* \"#utility.yul\":2869:2875   */\n          dup2\n            /* \"#utility.yul\":2863:2876   */\n          mload\n            /* \"#utility.yul\":2854:2876   */\n          swap1\n          pop\n            /* \"#utility.yul\":2885:2918   */\n          tag_115\n            /* \"#utility.yul\":2912:2917   */\n          dup2\n            /* \"#utility.yul\":2885:2918   */\n          tag_53\n          jump\t// in\n        tag_115:\n            /* \"#utility.yul\":2781:2924   */\n          swap3\n          swap2\n          pop\n          pop\n          jump\t// out\n            /* \"#utility.yul\":2930:3056   */\n        tag_55:\n            /* \"#utility.yul\":2967:2974   */\n          0x00\n            /* \"#utility.yul\":3007:3049   */\n          0xffffffffffffffffffffffffffffffffffffffff\n            /* \"#utility.yul\":3000:3005   */\n          dup3\n            /* \"#utility.yul\":2996:3050   */\n          and\n            /* \"#utility.yul\":2985:3050   */\n          swap1\n          pop\n            /* \"#utility.yul\":2930:3056   */\n          swap2\n          swap1\n          pop\n          jump\t// out\n            /* \"#utility.yul\":3062:3158   */\n        tag_56:\n            /* \"#utility.yul\":3099:3106   */\n          0x00\n            /* \"#utility.yul\":3128:3152   */\n          tag_118\n            /* \"#utility.yul\":3146:3151   */\n          dup3\n            /* \"#utility.yul\":3128:3152   */\n          tag_55\n          jump\t// in\n        tag_118:\n            /* \"#utility.yul\":3117:3152   */\n          swap1\n          pop\n            /* \"#utility.yul\":3062:3158   */\n          swap2\n          swap1\n          pop\n          jump\t// out\n            /* \"#utility.yul\":3164:3286   */\n        tag_57:\n            /* \"#utility.yul\":3237:3261   */\n          tag_120\n            /* \"#utility.yul\":3255:3260   */\n          dup2\n            /* \"#utility.yul\":3237:3261   */\n          tag_56\n          jump\t// in\n        tag_120:\n            /* \"#utility.yul\":3230:3235   */\n          dup2\n            /* \"#utility.yul\":3227:3262   */\n          eq\n            /* \"#utility.yul\":3217:3280   */\n          tag_121\n          jumpi\n            /* \"#utility.yul\":3276:3277   */\n          0x00\n            /* \"#utility.yul\":3273:3274   */\n          dup1\n            /* \"#utility.yul\":3266:3278   */\n          revert\n            /* \"#utility.yul\":3217:3280   */\n        tag_121:\n            /* \"#utility.yul\":3164:3286   */\n          pop\n          jump\t// out\n            /* \"#utility.yul\":3292:3435   */\n        tag_58:\n            /* \"#utility.yul\":3349:3354   */\n          0x00\n            /* \"#utility.yul\":3380:3386   */\n          dup2\n            /* \"#utility.yul\":3374:3387   */\n          mload\n            /* \"#utility.yul\":3365:3387   */\n          swap1\n          pop\n            /* \"#utility.yul\":3396:3429   */\n          tag_123\n            /* \"#utility.yul\":3423:3428   */\n          dup2\n            /* \"#utility.yul\":3396:3429   */\n          tag_57\n          jump\t// in\n        tag_123:\n            /* \"#utility.yul\":3292:3435   */\n          swap3\n          swap2\n          pop\n          pop\n          jump\t// out\n            /* \"#utility.yul\":3441:4607   */\n        tag_3:\n            /* \"#utility.yul\":3558:3564   */\n          0x00\n            /* \"#utility.yul\":3566:3572   */\n          dup1\n            /* \"#utility.yul\":3574:3580   */\n          0x00\n            /* \"#utility.yul\":3582:3588   */\n          dup1\n            /* \"#utility.yul\":3631:3634   */\n          0x80\n            /* \"#utility.yul\":3619:3628   */\n          dup6\n            /* \"#utility.yul\":3610:3617   */\n          dup8\n            /* \"#utility.yul\":3606:3629   */\n          sub\n            /* \"#utility.yul\":3602:3635   */\n          slt\n            /* \"#utility.yul\":3599:3719   */\n          iszero\n          tag_125\n          jumpi\n            /* \"#utility.yul\":3638:3717   */\n          tag_126\n          tag_40\n          jump\t// in\n        tag_126:\n            /* \"#utility.yul\":3599:3719   */\n        tag_125:\n            /* \"#utility.yul\":3779:3780   */\n          0x00\n            /* \"#utility.yul\":3768:3777   */\n          dup6\n            /* \"#utility.yul\":3764:3781   */\n          add\n            /* \"#utility.yul\":3758:3782   */\n          mload\n            /* \"#utility.yul\":3809:3827   */\n          0xffffffffffffffff\n            /* \"#utility.yul\":3801:3807   */\n          dup2\n            /* \"#utility.yul\":3798:3828   */\n          gt\n            /* \"#utility.yul\":3795:3912   */\n          iszero\n          tag_127\n          jumpi\n            /* \"#utility.yul\":3831:3910   */\n          tag_128\n          tag_41\n          jump\t// in\n        tag_128:\n            /* \"#utility.yul\":3795:3912   */\n        tag_127:\n            /* \"#utility.yul\":3936:4010   */\n          tag_129\n            /* \"#utility.yul\":4002:4009   */\n          dup8\n            /* \"#utility.yul\":3993:3999   */\n          dup3\n            /* \"#utility.yul\":3982:3991   */\n          dup9\n            /* \"#utility.yul\":3978:4000   */\n          add\n            /* \"#utility.yul\":3936:4010   */\n          tag_51\n          jump\t// in\n        tag_129:\n            /* \"#utility.yul\":3926:4010   */\n          swap5\n          pop\n            /* \"#utility.yul\":3729:4020   */\n          pop\n            /* \"#utility.yul\":4080:4082   */\n          0x20\n            /* \"#utility.yul\":4069:4078   */\n          dup6\n            /* \"#utility.yul\":4065:4083   */\n          add\n            /* \"#utility.yul\":4059:4084   */\n          mload\n            /* \"#utility.yul\":4111:4129   */\n          0xffffffffffffffff\n            /* \"#utility.yul\":4103:4109   */\n          dup2\n            /* \"#utility.yul\":4100:4130   */\n          gt\n            /* \"#utility.yul\":4097:4214   */\n          iszero\n          tag_130\n          jumpi\n            /* \"#utility.yul\":4133:4212   */\n          tag_131\n          tag_41\n          jump\t// in\n        tag_131:\n            /* \"#utility.yul\":4097:4214   */\n        tag_130:\n            /* \"#utility.yul\":4238:4312   */\n          tag_132\n            /* \"#utility.yul\":4304:4311   */\n          dup8\n            /* \"#utility.yul\":4295:4301   */\n          dup3\n            /* \"#utility.yul\":4284:4293   */\n          dup9\n            /* \"#utility.yul\":4280:4302   */\n          add\n            /* \"#utility.yul\":4238:4312   */\n          tag_51\n          jump\t// in\n        tag_132:\n            /* \"#utility.yul\":4228:4312   */\n          swap4\n          pop\n            /* \"#utility.yul\":4030:4322   */\n          pop\n            /* \"#utility.yul\":4361:4363   */\n          0x40\n            /* \"#utility.yul\":4387:4451   */\n          tag_133\n            /* \"#utility.yul\":4443:4450   */\n          dup8\n            /* \"#utility.yul\":4434:4440   */\n          dup3\n            /* \"#utility.yul\":4423:4432   */\n          dup9\n            /* \"#utility.yul\":4419:4441   */\n          add\n            /* \"#utility.yul\":4387:4451   */\n          tag_54\n          jump\t// in\n        tag_133:\n            /* \"#utility.yul\":4377:4451   */\n          swap3\n          pop\n            /* \"#utility.yul\":4332:4461   */\n          pop\n            /* \"#utility.yul\":4500:4502   */\n          0x60\n            /* \"#utility.yul\":4526:4590   */\n          tag_134\n            /* \"#utility.yul\":4582:4589   */\n          dup8\n            /* \"#utility.yul\":4573:4579   */\n          dup3\n            /* \"#utility.yul\":4562:4571   */\n          dup9\n            /* \"#utility.yul\":4558:4580   */\n          add\n            /* \"#utility.yul\":4526:4590   */\n          tag_58\n          jump\t// in\n        tag_134:\n            /* \"#utility.yul\":4516:4590   */\n          swap2\n          pop\n            /* \"#utility.yul\":4471:4600   */\n          pop\n            /* \"#utility.yul\":3441:4607   */\n          swap3\n          swap6\n          swap2\n          swap5\n          pop\n          swap3\n          pop\n          jump\t// out\n            /* \"#utility.yul\":4613:4712   */\n        tag_59:\n            /* \"#utility.yul\":4665:4671   */\n          0x00\n            /* \"#utility.yul\":4699:4704   */\n          dup2\n            /* \"#utility.yul\":4693:4705   */\n          mload\n            /* \"#utility.yul\":4683:4705   */\n          swap1\n          pop\n            /* \"#utility.yul\":4613:4712   */\n          swap2\n          swap1\n          pop\n          jump\t// out\n            /* \"#utility.yul\":4718:4898   */\n        tag_60:\n            /* \"#utility.yul\":4766:4843   */\n          0x4e487b7100000000000000000000000000000000000000000000000000000000\n            /* \"#utility.yul\":4763:4764   */\n          0x00\n            /* \"#utility.yul\":4756:4844   */\n          mstore\n            /* \"#utility.yul\":4863:4867   */\n          0x22\n            /* \"#utility.yul\":4860:4861   */\n          0x04\n            /* \"#utility.yul\":4853:4868   */\n          mstore\n            /* \"#utility.yul\":4887:4891   */\n          0x24\n            /* \"#utility.yul\":4884:4885   */\n          0x00\n            /* \"#utility.yul\":4877:4892   */\n          revert\n            /* \"#utility.yul\":4904:5224   */\n        tag_61:\n            /* \"#utility.yul\":4948:4954   */\n          0x00\n            /* \"#utility.yul\":4985:4986   */\n          0x02\n            /* \"#utility.yul\":4979:4983   */\n          dup3\n            /* \"#utility.yul\":4975:4987   */\n          div\n            /* \"#utility.yul\":4965:4987   */\n          swap1\n          pop\n            /* \"#utility.yul\":5032:5033   */\n          0x01\n            /* \"#utility.yul\":5026:5030   */\n          dup3\n            /* \"#utility.yul\":5022:5034   */\n          and\n            /* \"#utility.yul\":5053:5071   */\n          dup1\n            /* \"#utility.yul\":5043:5124   */\n          tag_138\n          jumpi\n            /* \"#utility.yul\":5109:5113   */\n          0x7f\n            /* \"#utility.yul\":5101:5107   */\n          dup3\n            /* \"#utility.yul\":5097:5114   */\n          and\n            /* \"#utility.yul\":5087:5114   */\n          swap2\n          pop\n            /* \"#utility.yul\":5043:5124   */\n        tag_138:\n            /* \"#utility.yul\":5171:5173   */\n          0x20\n            /* \"#utility.yul\":5163:5169   */\n          dup3\n            /* \"#utility.yul\":5160:5174   */\n          lt\n            /* \"#utility.yul\":5140:5158   */\n          dup2\n            /* \"#utility.yul\":5137:5175   */\n          sub\n            /* \"#utility.yul\":5134:5218   */\n          tag_139\n          jumpi\n            /* \"#utility.yul\":5190:5208   */\n          tag_140\n          tag_60\n          jump\t// in\n        tag_140:\n            /* \"#utility.yul\":5134:5218   */\n        tag_139:\n            /* \"#utility.yul\":4955:5224   */\n          pop\n            /* \"#utility.yul\":4904:5224   */\n          swap2\n          swap1\n          pop\n          jump\t// out\n            /* \"#utility.yul\":5230:5371   */\n        tag_62:\n            /* \"#utility.yul\":5279:5283   */\n          0x00\n            /* \"#utility.yul\":5302:5305   */\n          dup2\n            /* \"#utility.yul\":5294:5305   */\n          swap1\n          pop\n            /* \"#utility.yul\":5325:5328   */\n          dup2\n            /* \"#utility.yul\":5322:5323   */\n          0x00\n            /* \"#utility.yul\":5315:5329   */\n          mstore\n            /* \"#utility.yul\":5359:5363   */\n          0x20\n            /* \"#utility.yul\":5356:5357   */\n          0x00\n            /* \"#utility.yul\":5346:5364   */\n          keccak256\n            /* \"#utility.yul\":5338:5364   */\n          swap1\n          pop\n            /* \"#utility.yul\":5230:5371   */\n          swap2\n          swap1\n          pop\n          jump\t// out\n            /* \"#utility.yul\":5377:5470   */\n        tag_63:\n            /* \"#utility.yul\":5414:5420   */\n          0x00\n            /* \"#utility.yul\":5461:5463   */\n          0x20\n            /* \"#utility.yul\":5456:5458   */\n          0x1f\n            /* \"#utility.yul\":5449:5454   */\n          dup4\n            /* \"#utility.yul\":5445:5459   */\n          add\n            /* \"#utility.yul\":5441:5464   */\n          div\n            /* \"#utility.yul\":5431:5464   */\n          swap1\n          pop\n            /* \"#utility.yul\":5377:5470   */\n          swap2\n          swap1\n          pop\n          jump\t// out\n            /* \"#utility.yul\":5476:5583   */\n        tag_64:\n            /* \"#utility.yul\":5520:5528   */\n          0x00\n            /* \"#utility.yul\":5570:5575   */\n          dup3\n            /* \"#utility.yul\":5564:5568   */\n          dup3\n            /* \"#utility.yul\":5560:5576   */\n          shl\n            /* \"#utility.yul\":5539:5576   */\n          swap1\n          pop\n            /* \"#utility.yul\":5476:5583   */\n          swap3\n          swap2\n          pop\n          pop\n          jump\t// out\n            /* \"#utility.yul\":5589:5982   */\n        tag_65:\n            /* \"#utility.yul\":5658:5664   */\n          0x00\n            /* \"#utility.yul\":5708:5709   */\n          0x08\n            /* \"#utility.yul\":5696:5706   */\n          dup4\n            /* \"#utility.yul\":5692:5710   */\n          mul\n            /* \"#utility.yul\":5731:5828   */\n          tag_145\n            /* \"#utility.yul\":5761:5827   */\n          0xffffffffffffffffffffffffffffffffffffffffffffffffffffffffffffffff\n            /* \"#utility.yul\":5750:5759   */\n          dup3\n            /* \"#utility.yul\":5731:5828   */\n          tag_64\n          jump\t// in\n        tag_145:\n            /* \"#utility.yul\":5849:5888   */\n          tag_146\n            /* \"#utility.yul\":5879:5887   */\n          dup7\n            /* \"#utility.yul\":5868:5877   */\n          dup4\n            /* \"#utility.yul\":5849:5888   */\n          tag_64\n          jump\t// in\n        tag_146:\n            /* \"#utility.yul\":5837:5888   */\n          swap6\n          pop\n            /* \"#utility.yul\":5921:5925   */\n          dup1\n            /* \"#utility.yul\":5917:5926   */\n          not\n            /* \"#utility.yul\":5910:5915   */\n          dup5\n            /* \"#utility.yul\":5906:5927   */\n          and\n            /* \"#utility.yul\":5897:5927   */\n          swap4\n          pop\n            /* \"#utility.yul\":5970:5974   */\n          dup1\n            /* \"#utility.yul\":5960:5968   */\n          dup7\n            /* \"#utility.yul\":5956:5975   */\n          and\n            /* \"#utility.yul\":5949:5954   */\n          dup5\n            /* \"#utility.yul\":5946:5976   */\n          or\n            /* \"#utility.yul\":5936:5976   */\n          swap3\n          pop\n            /* \"#utility.yul\":5665:5982   */\n          pop\n          pop\n            /* \"#utility.yul\":5589:5982   */\n          swap4\n          swap3\n          pop\n          pop\n          pop\n          jump\t// out\n            /* \"#utility.yul\":5988:6048   */\n        tag_66:\n            /* \"#utility.yul\":6016:6019   */\n          0x00\n            /* \"#utility.yul\":6037:6042   */\n          dup2\n            /* \"#utility.yul\":6030:6042   */\n          swap1\n          pop\n            /* \"#utility.yul\":5988:6048   */\n          swap2\n          swap1\n          pop\n          jump\t// out\n            /* \"#utility.yul\":6054:6196   */\n        tag_67:\n            /* \"#utility.yul\":6104:6113   */\n          0x00\n            /* \"#utility.yul\":6137:6190   */\n          tag_149\n            /* \"#utility.yul\":6155:6189   */\n          tag_150\n            /* \"#utility.yul\":6164:6188   */\n          tag_151\n            /* \"#utility.yul\":6182:6187   */\n          dup5\n            /* \"#utility.yul\":6164:6188   */\n          tag_52\n          jump\t// in\n        tag_151:\n            /* \"#utility.yul\":6155:6189   */\n          tag_66\n          jump\t// in\n        tag_150:\n            /* \"#utility.yul\":6137:6190   */\n          tag_52\n          jump\t// in\n        tag_149:\n            /* \"#utility.yul\":6124:6190   */\n          swap1\n          pop\n            /* \"#utility.yul\":6054:6196   */\n          swap2\n          swap1\n          pop\n          jump\t// out\n            /* \"#utility.yul\":6202:6277   */\n        tag_68:\n            /* \"#utility.yul\":6245:6248   */\n          0x00\n            /* \"#utility.yul\":6266:6271   */\n          dup2\n            /* \"#utility.yul\":6259:6271   */\n          swap1\n          pop\n            /* \"#utility.yul\":6202:6277   */\n          swap2\n          swap1\n          pop\n          jump\t// out\n            /* \"#utility.yul\":6283:6552   */\n        tag_69:\n            /* \"#utility.yul\":6393:6432   */\n          tag_154\n            /* \"#utility.yul\":6424:6431   */\n          dup4\n            /* \"#utility.yul\":6393:6432   */\n          tag_67\n          jump\t// in\n        tag_154:\n            /* \"#utility.yul\":6454:6545   */\n          tag_155\n            /* \"#utility.yul\":6503:6544   */\n          tag_156\n            /* \"#utility.yul\":6527:6543   */\n          dup3\n            /* \"#utility.yul\":6503:6544   */\n          tag_68\n          jump\t// in\n        tag_156:\n            /* \"#utility.yul\":6495:6501   */\n          dup5\n            /* \"#utility.yul\":6488:6492   */\n          dup5\n            /* \"#utility.yul\":6482:6493   */\n          sload\n            /* \"#utility.yul\":6454:6545   */\n          tag_65\n          jump\t// in\n        tag_155:\n            /* \"#utility.yul\":6448:6452   */\n          dup3\n            /* \"#utility.yul\":6441:6546   */\n          sstore\n            /* \"#utility.yul\":6359:6552   */\n          pop\n            /* \"#utility.yul\":6283:6552   */\n          pop\n          pop\n          pop\n          jump\t// out\n            /* \"#utility.yul\":6558:6631   */\n        tag_70:\n            /* \"#utility.yul\":6603:6606   */\n          0x00\n            /* \"#utility.yul\":6558:6631   */\n          swap1\n          jump\t// out\n            /* \"#utility.yul\":6637:6826   */\n        tag_71:\n            /* \"#utility.yul\":6714:6746   */\n          tag_159\n          tag_70\n          jump\t// in\n        tag_159:\n            /* \"#utility.yul\":6755:6820   */\n          tag_160\n            /* \"#utility.yul\":6813:6819   */\n          dup2\n            /* \"#utility.yul\":6805:6811   */\n          dup5\n            /* \"#utility.yul\":6799:6803   */\n          dup5\n            /* \"#utility.yul\":6755:6820   */\n          tag_69\n          jump\t// in\n        tag_160:\n            /* \"#utility.yul\":6690:6826   */\n          pop\n            /* \"#utility.yul\":6637:6826   */\n          pop\n          pop\n          jump\t// out\n            /* \"#utility.yul\":6832:7018   */\n        tag_72:\n            /* \"#utility.yul\":6892:7012   */\n        tag_162:\n            /* \"#utility.yul\":6909:6912   */\n          dup2\n            /* \"#utility.yul\":6902:6907   */\n          dup2\n            /* \"#utility.yul\":6899:6913   */\n          lt\n            /* \"#utility.yul\":6892:7012   */\n          iszero\n          tag_164\n          jumpi\n            /* \"#utility.yul\":6963:7002   */\n          tag_165\n            /* \"#utility.yul\":7000:7001   */\n          0x00\n            /* \"#utility.yul\":6993:6998   */\n          dup3\n            /* \"#utility.yul\":6963:7002   */\n          tag_71\n          jump\t// in\n        tag_165:\n            /* \"#utility.yul\":6936:6937   */\n          0x01\n            /* \"#utility.yul\":6929:6934   */\n          dup2\n            /* \"#utility.yul\":6925:6938   */\n          add\n            /* \"#utility.yul\":6916:6938   */\n          swap1\n          pop\n            /* \"#utility.yul\":6892:7012   */\n          jump(tag_162)\n        tag_164:\n            /* \"#utility.yul\":6832:7018   */\n          pop\n          pop\n          jump\t// out\n            /* \"#utility.yul\":7024:7567   */\n        tag_73:\n            /* \"#utility.yul\":7125:7127   */\n          0x1f\n            /* \"#utility.yul\":7120:7123   */\n          dup3\n            /* \"#utility.yul\":7117:7128   */\n          gt\n            /* \"#utility.yul\":7114:7560   */\n          iszero\n          tag_167\n          jumpi\n            /* \"#utility.yul\":7159:7197   */\n          tag_168\n            /* \"#utility.yul\":7191:7196   */\n          dup2\n            /* \"#utility.yul\":7159:7197   */\n          tag_62\n          jump\t// in\n        tag_168:\n            /* \"#utility.yul\":7243:7272   */\n          tag_169\n            /* \"#utility.yul\":7261:7271   */\n          dup5\n            /* \"#utility.yul\":7243:7272   */\n          tag_63\n          jump\t// in\n        tag_169:\n            /* \"#utility.yul\":7233:7241   */\n          dup2\n            /* \"#utility.yul\":7229:7273   */\n          add\n            /* \"#utility.yul\":7426:7428   */\n          0x20\n            /* \"#utility.yul\":7414:7424   */\n          dup6\n            /* \"#utility.yul\":7411:7429   */\n          lt\n            /* \"#utility.yul\":7408:7457   */\n          iszero\n          tag_170\n          jumpi\n            /* \"#utility.yul\":7447:7455   */\n          dup2\n            /* \"#utility.yul\":7432:7455   */\n          swap1\n          pop\n            /* \"#utility.yul\":7408:7457   */\n        tag_170:\n            /* \"#utility.yul\":7470:7550   */\n          tag_171\n            /* \"#utility.yul\":7526:7548   */\n          tag_172\n            /* \"#utility.yul\":7544:7547   */\n          dup6\n            /* \"#utility.yul\":7526:7548   */\n          tag_63\n          jump\t// in\n        tag_172:\n            /* \"#utility.yul\":7516:7524   */\n          dup4\n            /* \"#utility.yul\":7512:7549   */\n          add\n            /* \"#utility.yul\":7499:7510   */\n          dup3\n            /* \"#utility.yul\":7470:7550   */\n          tag_72\n          jump\t// in\n        tag_171:\n            /* \"#utility.yul\":7129:7560   */\n          pop\n          pop\n            /* \"#utility.yul\":7114:7560   */\n        tag_167:\n            /* \"#utility.yul\":7024:7567   */\n          pop\n          pop\n          pop\n          jump\t// out\n            /* \"#utility.yul\":7573:7690   */\n        tag_74:\n            /* \"#utility.yul\":7627:7635   */\n          0x00\n            /* \"#utility.yul\":7677:7682   */\n          dup3\n            /* \"#utility.yul\":7671:7675   */\n          dup3\n            /* \"#utility.yul\":7667:7683   */\n          shr\n            /* \"#utility.yul\":7646:7683   */\n          swap1\n          pop\n            /* \"#utility.yul\":7573:7690   */\n          swap3\n          swap2\n          pop\n          pop\n          jump\t// out\n            /* \"#utility.yul\":7696:7865   */\n        tag_75:\n            /* \"#utility.yul\":7740:7746   */\n          0x00\n            /* \"#utility.yul\":7773:7824   */\n          tag_175\n            /* \"#utility.yul\":7821:7822   */\n          0x00\n            /* \"#utility.yul\":7817:7823   */\n          not\n            /* \"#utility.yul\":7809:7814   */\n          dup5\n            /* \"#utility.yul\":7806:7807   */\n          0x08\n            /* \"#utility.yul\":7802:7815   */\n          mul\n            /* \"#utility.yul\":7773:7824   */\n          tag_74\n          jump\t// in\n        tag_175:\n            /* \"#utility.yul\":7769:7825   */\n          not\n            /* \"#utility.yul\":7854:7858   */\n          dup1\n            /* \"#utility.yul\":7848:7852   */\n          dup4\n            /* \"#utility.yul\":7844:7859   */\n          and\n            /* \"#utility.yul\":7834:7859   */\n          swap2\n          pop\n            /* \"#utility.yul\":7747:7865   */\n          pop\n            /* \"#utility.yul\":7696:7865   */\n          swap3\n          swap2\n          pop\n          pop\n          jump\t// out\n            /* \"#utility.yul\":7870:8165   */\n        tag_76:\n            /* \"#utility.yul\":7946:7950   */\n          0x00\n            /* \"#utility.yul\":8092:8121   */\n          tag_177\n            /* \"#utility.yul\":8117:8120   */\n          dup4\n            /* \"#utility.yul\":8111:8115   */\n          dup4\n            /* \"#utility.yul\":8092:8121   */\n          tag_75\n          jump\t// in\n        tag_177:\n            /* \"#utility.yul\":8084:8121   */\n          swap2\n          pop\n            /* \"#utility.yul\":8154:8157   */\n          dup3\n            /* \"#utility.yul\":8151:8152   */\n          0x02\n            /* \"#utility.yul\":8147:8158   */\n          mul\n            /* \"#utility.yul\":8141:8145   */\n          dup3\n            /* \"#utility.yul\":8138:8159   */\n          or\n            /* \"#utility.yul\":8130:8159   */\n          swap1\n          pop\n            /* \"#utility.yul\":7870:8165   */\n          swap3\n          swap2\n          pop\n          pop\n          jump\t// out\n            /* \"#utility.yul\":8170:9565   */\n        tag_9:\n            /* \"#utility.yul\":8287:8324   */\n          tag_179\n            /* \"#utility.yul\":8320:8323   */\n          dup3\n            /* \"#utility.yul\":8287:8324   */\n          tag_59\n          jump\t// in\n        tag_179:\n            /* \"#utility.yul\":8389:8407   */\n          0xffffffffffffffff\n            /* \"#utility.yul\":8381:8387   */\n          dup2\n            /* \"#utility.yul\":8378:8408   */\n          gt\n            /* \"#utility.yul\":8375:8431   */\n          iszero\n          tag_180\n          jumpi\n            /* \"#utility.yul\":8411:8429   */\n          tag_181\n          tag_45\n          jump\t// in\n        tag_181:\n            /* \"#utility.yul\":8375:8431   */\n        tag_180:\n            /* \"#utility.yul\":8455:8493   */\n          tag_182\n            /* \"#utility.yul\":8487:8491   */\n          dup3\n            /* \"#utility.yul\":8481:8492   */\n          sload\n            /* \"#utility.yul\":8455:8493   */\n          tag_61\n          jump\t// in\n        tag_182:\n            /* \"#utility.yul\":8540:8607   */\n          tag_183\n            /* \"#utility.yul\":8600:8606   */\n          dup3\n            /* \"#utility.yul\":8592:8598   */\n          dup3\n            /* \"#utility.yul\":8586:8590   */\n          dup6\n            /* \"#utility.yul\":8540:8607   */\n          tag_73\n          jump\t// in\n        tag_183:\n            /* \"#utility.yul\":8634:8635   */\n          0x00\n            /* \"#utility.yul\":8658:8662   */\n          0x20\n            /* \"#utility.yul\":8645:8662   */\n          swap1\n          pop\n            /* \"#utility.yul\":8690:8692   */\n          0x1f\n            /* \"#utility.yul\":8682:8688   */\n          dup4\n            /* \"#utility.yul\":8679:8693   */\n          gt\n            /* \"#utility.yul\":8707:8708   */\n          0x01\n            /* \"#utility.yul\":8702:9320   */\n          dup2\n          eq\n          tag_185\n          jumpi\n            /* \"#utility.yul\":9364:9365   */\n          0x00\n            /* \"#utility.yul\":9381:9387   */\n          dup5\n            /* \"#utility.yul\":9378:9455   */\n          iszero\n          tag_186\n          jumpi\n            /* \"#utility.yul\":9430:9439   */\n          dup3\n            /* \"#utility.yul\":9425:9428   */\n          dup8\n            /* \"#utility.yul\":9421:9440   */\n          add\n            /* \"#utility.yul\":9415:9441   */\n          mload\n            /* \"#utility.yul\":9406:9441   */\n          swap1\n          pop\n            /* \"#utility.yul\":9378:9455   */\n        tag_186:\n            /* \"#utility.yul\":9481:9548   */\n          tag_187\n            /* \"#utility.yul\":9541:9547   */\n          dup6\n            /* \"#utility.yul\":9534:9539   */\n          dup3\n            /* \"#utility.yul\":9481:9548   */\n          tag_76\n          jump\t// in\n        tag_187:\n            /* \"#utility.yul\":9475:9479   */\n          dup7\n            /* \"#utility.yul\":9468:9549   */\n          sstore\n            /* \"#utility.yul\":9337:9559   */\n          pop\n            /* \"#utility.yul\":8672:9559   */\n          jump(tag_184)\n            /* \"#utility.yul\":8702:9320   */\n        tag_185:\n            /* \"#utility.yul\":8754:8758   */\n          0x1f\n            /* \"#utility.yul\":8750:8759   */\n          not\n            /* \"#utility.yul\":8742:8748   */\n          dup5\n            /* \"#utility.yul\":8738:8760   */\n          and\n            /* \"#utility.yul\":8788:8825   */\n          tag_188\n            /* \"#utility.yul\":8820:8824   */\n          dup7\n            /* \"#utility.yul\":8788:8825   */\n          tag_62\n          jump\t// in\n        tag_188:\n            /* \"#utility.yul\":8847:8848   */\n          0x00\n            /* \"#utility.yul\":8861:9069   */\n        tag_189:\n            /* \"#utility.yul\":8875:8882   */\n          dup3\n            /* \"#utility.yul\":8872:8873   */\n          dup2\n            /* \"#utility.yul\":8869:8883   */\n          lt\n            /* \"#utility.yul\":8861:9069   */\n          iszero\n          tag_191\n          jumpi\n            /* \"#utility.yul\":8954:8963   */\n          dup5\n            /* \"#utility.yul\":8949:8952   */\n          dup10\n            /* \"#utility.yul\":8945:8964   */\n          add\n            /* \"#utility.yul\":8939:8965   */\n          mload\n            /* \"#utility.yul\":8931:8937   */\n          dup3\n            /* \"#utility.yul\":8924:8966   */\n          sstore\n            /* \"#utility.yul\":9005:9006   */\n          0x01\n            /* \"#utility.yul\":8997:9003   */\n          dup3\n            /* \"#utility.yul\":8993:9007   */\n          add\n            /* \"#utility.yul\":8983:9007   */\n          swap2\n          pop\n            /* \"#utility.yul\":9052:9054   */\n          0x20\n            /* \"#utility.yul\":9041:9050   */\n          dup6\n            /* \"#utility.yul\":9037:9055   */\n          add\n            /* \"#utility.yul\":9024:9055   */\n          swap5\n          pop\n            /* \"#utility.yul\":8898:8902   */\n          0x20\n            /* \"#utility.yul\":8895:8896   */\n          dup2\n            /* \"#utility.yul\":8891:8903   */\n          add\n            /* \"#utility.yul\":8886:8903   */\n          swap1\n          pop\n            /* \"#utility.yul\":8861:9069   */\n          jump(tag_189)\n        tag_191:\n            /* \"#utility.yul\":9097:9103   */\n          dup7\n            /* \"#utility.yul\":9088:9095   */\n          dup4\n            /* \"#utility.yul\":9085:9104   */\n          lt\n            /* \"#utility.yul\":9082:9261   */\n          iszero\n          tag_192\n          jumpi\n            /* \"#utility.yul\":9155:9164   */\n          dup5\n            /* \"#utility.yul\":9150:9153   */\n          dup10\n            /* \"#utility.yul\":9146:9165   */\n          add\n            /* \"#utility.yul\":9140:9166   */\n          mload\n            /* \"#utility.yul\":9198:9246   */\n          tag_193\n            /* \"#utility.yul\":9240:9244   */\n          0x1f\n            /* \"#utility.yul\":9232:9238   */\n          dup10\n            /* \"#utility.yul\":9228:9245   */\n          and\n            /* \"#utility.yul\":9217:9226   */\n          dup3\n            /* \"#utility.yul\":9198:9246   */\n          tag_75\n          jump\t// in\n        tag_193:\n            /* \"#utility.yul\":9190:9196   */\n          dup4\n            /* \"#utility.yul\":9183:9247   */\n          sstore\n            /* \"#utility.yul\":9105:9261   */\n          pop\n            /* \"#utility.yul\":9082:9261   */\n        tag_192:\n            /* \"#utility.yul\":9307:9308   */\n          0x01\n            /* \"#utility.yul\":9303:9304   */\n          0x02\n            /* \"#utility.yul\":9295:9301   */\n          dup9\n            /* \"#utility.yul\":9291:9305   */\n          mul\n            /* \"#utility.yul\":9287:9309   */\n          add\n            /* \"#utility.yul\":9281:9285   */\n          dup9\n            /* \"#utility.yul\":9274:9310   */\n          sstore\n            /* \"#utility.yul\":8709:9320   */\n          pop\n          pop\n          pop\n            /* \"#utility.yul\":8672:9559   */\n        tag_184:\n          pop\n            /* \"#utility.yul\":8262:9565   */\n          pop\n          pop\n          pop\n            /* \"#utility.yul\":8170:9565   */\n          pop\n          pop\n          jump\t// out\n            /* \"#utility.yul\":9571:9689   */\n        tag_77:\n            /* \"#utility.yul\":9658:9682   */\n          tag_195\n            /* \"#utility.yul\":9676:9681   */\n          dup2\n            /* \"#utility.yul\":9658:9682   */\n          tag_56\n          jump\t// in\n        tag_195:\n            /* \"#utility.yul\":9653:9656   */\n          dup3\n            /* \"#utility.yul\":9646:9683   */\n          mstore\n            /* \"#utility.yul\":9571:9689   */\n          pop\n          pop\n          jump\t// out\n            /* \"#utility.yul\":9695:9917   */\n        tag_14:\n            /* \"#utility.yul\":9788:9792   */\n          0x00\n            /* \"#utility.yul\":9826:9828   */\n          0x20\n            /* \"#utility.yul\":9815:9824   */\n          dup3\n            /* \"#utility.yul\":9811:9829   */\n          add\n            /* \"#utility.yul\":9803:9829   */\n          swap1\n          pop\n            /* \"#utility.yul\":9839:9910   */\n          tag_197\n            /* \"#utility.yul\":9907:9908   */\n          0x00\n            /* \"#utility.yul\":9896:9905   */\n          dup4\n            /* \"#utility.yul\":9892:9909   */\n          add\n            /* \"#utility.yul\":9883:9889   */\n          dup5\n            /* \"#utility.yul\":9839:9910   */\n          tag_77\n          jump\t// in\n        tag_197:\n            /* \"#utility.yul\":9695:9917   */\n          swap3\n          swap2\n          pop\n          pop\n          jump\t// out\n            /* \"#utility.yul\":9923:10103   */\n        tag_78:\n            /* \"#utility.yul\":9971:10048   */\n          0x4e487b7100000000000000000000000000000000000000000000000000000000\n            /* \"#utility.yul\":9968:9969   */\n          0x00\n            /* \"#utility.yul\":9961:10049   */\n          mstore\n            /* \"#utility.yul\":10068:10072   */\n          0x11\n            /* \"#utility.yul\":10065:10066   */\n          0x04\n            /* \"#utility.yul\":10058:10073   */\n          mstore\n            /* \"#utility.yul\":10092:10096   */\n          0x24\n            /* \"#utility.yul\":10089:10090   */\n          0x00\n            /* \"#utility.yul\":10082:10097   */\n          revert\n            /* \"#utility.yul\":10109:10300   */\n        tag_30:\n            /* \"#utility.yul\":10149:10152   */\n          0x00\n            /* \"#utility.yul\":10168:10188   */\n          tag_200\n            /* \"#utility.yul\":10186:10187   */\n          dup3\n            /* \"#utility.yul\":10168:10188   */\n          tag_52\n          jump\t// in\n        tag_200:\n            /* \"#utility.yul\":10163:10188   */\n          swap2\n          pop\n            /* \"#utility.yul\":10202:10222   */\n          tag_201\n            /* \"#utility.yul\":10220:10221   */\n          dup4\n            /* \"#utility.yul\":10202:10222   */\n          tag_52\n          jump\t// in\n        tag_201:\n            /* \"#utility.yul\":10197:10222   */\n          swap3\n          pop\n            /* \"#utility.yul\":10245:10246   */\n          dup3\n            /* \"#utility.yul\":10242:10243   */\n          dup3\n            /* \"#utility.yul\":10238:10247   */\n          add\n            /* \"#utility.yul\":10231:10247   */\n          swap1\n          pop\n            /* \"#utility.yul\":10266:10269   */\n          dup1\n            /* \"#utility.yul\":10263:10264   */\n          dup3\n            /* \"#utility.yul\":10260:10270   */\n          gt\n            /* \"#utility.yul\":10257:10293   */\n          iszero\n          tag_202\n          jumpi\n            /* \"#utility.yul\":10273:10291   */\n          tag_203\n          tag_78\n          jump\t// in\n        tag_203:\n            /* \"#utility.yul\":10257:10293   */\n        tag_202:\n            /* \"#utility.yul\":10109:10300   */\n          swap3\n          swap2\n          pop\n          pop\n          jump\t// out\n            /* \"#utility.yul\":10306:10424   */\n        tag_79:\n            /* \"#utility.yul\":10393:10417   */\n          tag_205\n            /* \"#utility.yul\":10411:10416   */\n          dup2\n            /* \"#utility.yul\":10393:10417   */\n          tag_52\n          jump\t// in\n        tag_205:\n            /* \"#utility.yul\":10388:10391   */\n          dup3\n            /* \"#utility.yul\":10381:10418   */\n          mstore\n            /* \"#utility.yul\":10306:10424   */\n          pop\n          pop\n          jump\t// out\n            /* \"#utility.yul\":10430:10872   */\n        tag_34:\n            /* \"#utility.yul\":10579:10583   */\n          0x00\n            /* \"#utility.yul\":10617:10619   */\n          0x60\n            /* \"#utility.yul\":10606:10615   */\n          dup3\n            /* \"#utility.yul\":10602:10620   */\n          add\n            /* \"#utility.yul\":10594:10620   */\n          swap1\n          pop\n            /* \"#utility.yul\":10630:10701   */\n          tag_207\n            /* \"#utility.yul\":10698:10699   */\n          0x00\n            /* \"#utility.yul\":10687:10696   */\n          dup4\n            /* \"#utility.yul\":10683:10700   */\n          add\n            /* \"#utility.yul\":10674:10680   */\n          dup7\n            /* \"#utility.yul\":10630:10701   */\n          tag_77\n          jump\t// in\n        tag_207:\n            /* \"#utility.yul\":10711:10783   */\n          tag_208\n            /* \"#utility.yul\":10779:10781   */\n          0x20\n            /* \"#utility.yul\":10768:10777   */\n          dup4\n            /* \"#utility.yul\":10764:10782   */\n          add\n            /* \"#utility.yul\":10755:10761   */\n          dup6\n            /* \"#utility.yul\":10711:10783   */\n          tag_79\n          jump\t// in\n        tag_208:\n            /* \"#utility.yul\":10793:10865   */\n          tag_209\n            /* \"#utility.yul\":10861:10863   */\n          0x40\n            /* \"#utility.yul\":10850:10859   */\n          dup4\n            /* \"#utility.yul\":10846:10864   */\n          add\n            /* \"#utility.yul\":10837:10843   */\n          dup5\n            /* \"#utility.yul\":10793:10865   */\n          tag_79\n          jump\t// in\n        tag_209:\n            /* \"#utility.yul\":10430:10872   */\n          swap5\n          swap4\n          pop\n          pop\n          pop\n          pop\n          jump\t// out\n            /* \"#utility.yul\":10878:11100   */\n        tag_38:\n            /* \"#utility.yul\":10971:10975   */\n          0x00\n            /* \"#utility.yul\":11009:11011   */\n          0x20\n            /* \"#utility.yul\":10998:11007   */\n          dup3\n            /* \"#utility.yul\":10994:11012   */\n          add\n            /* \"#utility.yul\":10986:11012   */\n          swap1\n          pop\n            /* \"#utility.yul\":11022:11093   */\n          tag_211\n            /* \"#utility.yul\":11090:11091   */\n          0x00\n            /* \"#utility.yul\":11079:11088   */\n          dup4\n            /* \"#utility.yul\":11075:11092   */\n          add\n            /* \"#utility.yul\":11066:11072   */\n          dup5\n            /* \"#utility.yul\":11022:11093   */\n          tag_79\n          jump\t// in\n        tag_211:\n            /* \"#utility.yul\":10878:11100   */\n          swap3\n          swap2\n          pop\n          pop\n          jump\t// out\n            /* \"contracts/TokenFactory.sol\":168:446  contract CustomToken is ERC20, Ownable {... */\n        tag_20:\n          dataSize(sub_0)\n          dup1\n          dataOffset(sub_0)\n          0x00\n          codecopy\n          0x00\n          return\n        stop\n\n        sub_0: assembly {\n                /* \"contracts/TokenFactory.sol\":168:446  contract CustomToken is ERC20, Ownable {... */\n              mstore(0x40, 0x80)\n              callvalue\n              dup1\n              iszero\n              tag_1\n              jumpi\n              0x00\n              dup1\n              revert\n            tag_1:\n              pop\n              jumpi(tag_2, lt(calldatasize, 0x04))\n              shr(0xe0, calldataload(0x00))\n              dup1\n              0x715018a6\n              gt\n              tag_15\n              jumpi\n              dup1\n              0x715018a6\n              eq\n              tag_9\n              jumpi\n              dup1\n              0x8da5cb5b\n              eq\n              tag_10\n              jumpi\n              dup1\n              0x95d89b41\n              eq\n              tag_11\n              jumpi\n              dup1\n              0xa9059cbb\n              eq\n              tag_12\n              jumpi\n              dup1\n              0xdd62ed3e\n              eq\n              tag_13\n              jumpi\n              dup1\n              0xf2fde38b\n              eq\n              tag_14\n              jumpi\n              jump(tag_2)\n            tag_15:\n              dup1\n              0x06fdde03\n              eq\n              tag_3\n              jumpi\n              dup1\n              0x095ea7b3\n              eq\n              tag_4\n              jumpi\n              dup1\n              0x18160ddd\n              eq\n              tag_5\n              jumpi\n              dup1\n              0x23b872dd\n              eq\n              tag_6\n              jumpi\n              dup1\n              0x313ce567\n              eq\n              tag_7\n              jumpi\n              dup1\n              0x70a08231\n              eq\n              tag_8\n              jumpi\n            tag_2:\n              0x00\n              dup1\n              revert\n                /* \"@openzeppelin/contracts/token/ERC20/ERC20.sol\":1779:1868  function name() public view virtual returns (string memory) {... */\n            tag_3:\n              tag_16\n              tag_17\n              jump\t// in\n            tag_16:\n              mload(0x40)\n              tag_18\n              swap2\n              swap1\n              tag_19\n              jump\t// in\n            tag_18:\n              mload(0x40)\n              dup1\n              swap2\n              sub\n              swap1\n              return\n                /* \"@openzeppelin/contracts/token/ERC20/ERC20.sol\":3998:4184  function approve(address spender, uint256 value) public virtual returns (bool) {... */\n            tag_4:\n              tag_20\n              0x04\n              dup1\n              calldatasize\n              sub\n              dup2\n              add\n              swap1\n              tag_21\n              swap2\n              swap1\n              tag_22\n              jump\t// in\n            tag_21:\n              tag_23\n              jump\t// in\n            tag_20:\n              mload(0x40)\n              tag_24\n              swap2\n              swap1\n              tag_25\n              jump\t// in\n            tag_24:\n              mload(0x40)\n              dup1\n              swap2\n              sub\n              swap1\n              return\n                /* \"@openzeppelin/contracts/token/ERC20/ERC20.sol\":2849:2946  function totalSupply() public view virtual returns (uint256) {... */\n            tag_5:\n              tag_26\n              tag_27\n              jump\t// in\n            tag_26:\n              mload(0x40)\n              tag_28\n              swap2\n              swap1\n              tag_29\n              jump\t// in\n            tag_28:\n              mload(0x40)\n              dup1\n              swap2\n              sub\n              swap1\n              return\n                /* \"@openzeppelin/contracts/token/ERC20/ERC20.sol\":4776:5020  function transferFrom(address from, address to, uint256 value) public virtual returns (bool) {... */\n            tag_6:\n              tag_30\n              0x04\n              dup1\n              calldatasize\n              sub\n              dup2\n              add\n              swap1\n              tag_31\n              swap2\n              swap1\n              tag_32\n              jump\t// in\n            tag_31:\n              tag_33\n              jump\t// in\n            tag_30:\n              mload(0x40)\n              tag_34\n              swap2\n              swap1\n              tag_25\n              jump\t// in\n            tag_34:\n              mload(0x40)\n              dup1\n              swap2\n              sub\n              swap1\n              return\n                /* \"@openzeppelin/contracts/token/ERC20/ERC20.sol\":2707:2789  function decimals() public view virtual returns (uint8) {... */\n            tag_7:\n              tag_35\n              tag_36\n              jump\t// in\n            tag_35:\n              mload(0x40)\n              tag_37\n              swap2\n              swap1\n              tag_38\n              jump\t// in\n            tag_37:\n              mload(0x40)\n              dup1\n              swap2\n              sub\n              swap1\n              return\n                /* \"@openzeppelin/contracts/token/ERC20/ERC20.sol\":3004:3120  function balanceOf(address account) public view virtual returns (uint256) {... */\n            tag_8:\n              tag_39\n              0x04\n              dup1\n              calldatasize\n              sub\n              dup2\n              add\n              swap1\n              tag_40\n              swap2\n              swap1\n              tag_41\n              jump\t// in\n            tag_40:\n              tag_42\n              jump\t// in\n            tag_39:\n              mload(0x40)\n              tag_43\n              swap2\n              swap1\n              tag_29\n              jump\t// in\n            tag_43:\n              mload(0x40)\n              dup1\n              swap2\n              sub\n              swap1\n              return\n                /* \"@openzeppelin/contracts/access/Ownable.sol\":2293:2394  function renounceOwnership() public virtual onlyOwner {... */\n            tag_9:\n              tag_44\n              tag_45\n              jump\t// in\n            tag_44:\n              stop\n                /* \"@openzeppelin/contracts/access/Ownable.sol\":1638:1723  function owner() public view virtual returns (address) {... */\n            tag_10:\n              tag_46\n              tag_47\n              jump\t// in\n            tag_46:\n              mload(0x40)\n              tag_48\n              swap2\n              swap1\n              tag_49\n              jump\t// in\n            tag_48:\n              mload(0x40)\n              dup1\n              swap2\n              sub\n              swap1\n              return\n                /* \"@openzeppelin/contracts/token/ERC20/ERC20.sol\":1981:2074  function symbol() public view virtual returns (string memory) {... */\n            tag_11:\n              tag_50\n              tag_51\n              jump\t// in\n            tag_50:\n              mload(0x40)\n              tag_52\n              swap2\n              swap1\n              tag_19\n              jump\t// in\n            tag_52:\n              mload(0x40)\n              dup1\n              swap2\n              sub\n              swap1\n              return\n                /* \"@openzeppelin/contracts/token/ERC20/ERC20.sol\":3315:3493  function transfer(address to, uint256 value) public virtual returns (bool) {... */\n            tag_12:\n              tag_53\n              0x04\n              dup1\n              calldatasize\n              sub\n              dup2\n              add\n              swap1\n              tag_54\n              swap2\n              swap1\n              tag_22\n              jump\t// in\n            tag_54:\n              tag_55\n              jump\t// in\n            tag_53:\n              mload(0x40)\n              tag_56\n              swap2\n              swap1\n              tag_25\n              jump\t// in\n            tag_56:\n              mload(0x40)\n              dup1\n              swap2\n              sub\n              swap1\n              return\n                /* \"@openzeppelin/contracts/token/ERC20/ERC20.sol\":3551:3691  function allowance(address owner, address spender) public view virtual returns (uint256) {... */\n            tag_13:\n              tag_57\n              0x04\n              dup1\n              calldatasize\n              sub\n              dup2\n              add\n              swap1\n              tag_58\n              swap2\n              swap1\n              tag_59\n              jump\t// in\n            tag_58:\n              tag_60\n              jump\t// in\n            tag_57:\n              mload(0x40)\n              tag_61\n              swap2\n              swap1\n              tag_29\n              jump\t// in\n            tag_61:\n              mload(0x40)\n              dup1\n              swap2\n              sub\n              swap1\n              return\n                /* \"@openzeppelin/contracts/access/Ownable.sol\":2543:2758  function transferOwnership(address newOwner) public virtual onlyOwner {... */\n            tag_14:\n              tag_62\n              0x04\n              dup1\n              calldatasize\n              sub\n              dup2\n              add\n              swap1\n              tag_63\n              swap2\n              swap1\n              tag_41\n              jump\t// in\n            tag_63:\n              tag_64\n              jump\t// in\n            tag_62:\n              stop\n                /* \"@openzeppelin/contracts/token/ERC20/ERC20.sol\":1779:1868  function name() public view virtual returns (string memory) {... */\n            tag_17:\n                /* \"@openzeppelin/contracts/token/ERC20/ERC20.sol\":1824:1837  string memory */\n              0x60\n                /* \"@openzeppelin/contracts/token/ERC20/ERC20.sol\":1856:1861  _name */\n              0x03\n                /* \"@openzeppelin/contracts/token/ERC20/ERC20.sol\":1849:1861  return _name */\n              dup1\n              sload\n              tag_66\n              swap1\n              tag_67\n              jump\t// in\n            tag_66:\n              dup1\n              0x1f\n              add\n              0x20\n              dup1\n              swap2\n              div\n              mul\n              0x20\n              add\n              mload(0x40)\n              swap1\n              dup2\n              add\n              0x40\n              mstore\n              dup1\n              swap3\n              swap2\n              swap1\n              dup2\n              dup2\n              mstore\n              0x20\n              add\n              dup3\n              dup1\n              sload\n              tag_68\n              swap1\n              tag_67\n              jump\t// in\n            tag_68:\n              dup1\n              iszero\n              tag_69\n              jumpi\n              dup1\n              0x1f\n              lt\n              tag_70\n              jumpi\n              0x0100\n              dup1\n              dup4\n              sload\n              div\n              mul\n              dup4\n              mstore\n              swap2\n              0x20\n              add\n              swap2\n              jump(tag_69)\n            tag_70:\n              dup3\n              add\n              swap2\n              swap1\n              0x00\n              mstore\n              keccak256(0x00, 0x20)\n              swap1\n            tag_71:\n              dup2\n              sload\n              dup2\n              mstore\n              swap1\n              0x01\n              add\n              swap1\n              0x20\n              add\n              dup1\n              dup4\n              gt\n              tag_71\n              jumpi\n              dup3\n              swap1\n              sub\n              0x1f\n              and\n              dup3\n              add\n              swap2\n            tag_69:\n              pop\n              pop\n              pop\n              pop\n              pop\n              swap1\n              pop\n                /* \"@openzeppelin/contracts/token/ERC20/ERC20.sol\":1779:1868  function name() public view virtual returns (string memory) {... */\n              swap1\n              jump\t// out\n                /* \"@openzeppelin/contracts/token/ERC20/ERC20.sol\":3998:4184  function approve(address spender, uint256 value) public virtual returns (bool) {... */\n            tag_23:\n                /* \"@openzeppelin/contracts/token/ERC20/ERC20.sol\":4071:4075  bool */\n              0x00\n                /* \"@openzeppelin/contracts/token/ERC20/ERC20.sol\":4087:4100  address owner */\n              dup1\n                /* \"@openzeppelin/contracts/token/ERC20/ERC20.sol\":4103:4115  _msgSender() */\n              tag_73\n                /* \"@openzeppelin/contracts/token/ERC20/ERC20.sol\":4103:4113  _msgSender */\n              tag_74\n                /* \"@openzeppelin/contracts/token/ERC20/ERC20.sol\":4103:4115  _msgSender() */\n              jump\t// in\n            tag_73:\n                /* \"@openzeppelin/contracts/token/ERC20/ERC20.sol\":4087:4115  address owner = _msgSender() */\n              swap1\n              pop\n                /* \"@openzeppelin/contracts/token/ERC20/ERC20.sol\":4125:4156  _approve(owner, spender, value) */\n              tag_75\n                /* \"@openzeppelin/contracts/token/ERC20/ERC20.sol\":4134:4139  owner */\n              dup2\n                /* \"@openzeppelin/contracts/token/ERC20/ERC20.sol\":4141:4148  spender */\n              dup6\n                /* \"@openzeppelin/contracts/token/ERC20/ERC20.sol\":4150:4155  value */\n              dup6\n                /* \"@openzeppelin/contracts/token/ERC20/ERC20.sol\":4125:4133  _approve */\n              tag_76\n                /* \"@openzeppelin/contracts/token/ERC20/ERC20.sol\":4125:4156  _approve(owner, spender, value) */\n              jump\t// in\n            tag_75:\n                /* \"@openzeppelin/contracts/token/ERC20/ERC20.sol\":4173:4177  true */\n              0x01\n                /* \"@openzeppelin/contracts/token/ERC20/ERC20.sol\":4166:4177  return true */\n              swap2\n              pop\n              pop\n                /* \"@openzeppelin/contracts/token/ERC20/ERC20.sol\":3998:4184  function approve(address spender, uint256 value) public virtual returns (bool) {... */\n              swap3\n              swap2\n              pop\n              pop\n              jump\t// out\n                /* \"@openzeppelin/contracts/token/ERC20/ERC20.sol\":2849:2946  function totalSupply() public view virtual returns (uint256) {... */\n            tag_27:\n                /* \"@openzeppelin/contracts/token/ERC20/ERC20.sol\":2901:2908  uint256 */\n              0x00\n                /* \"@openzeppelin/contracts/token/ERC20/ERC20.sol\":2927:2939  _totalSupply */\n              sload(0x02)\n                /* \"@openzeppelin/contracts/token/ERC20/ERC20.sol\":2920:2939  return _totalSupply */\n              swap1\n              pop\n                /* \"@openzeppelin/contracts/token/ERC20/ERC20.sol\":2849:2946  function totalSupply() public view virtual returns (uint256) {... */\n              swap1\n              jump\t// out\n                /* \"@openzeppelin/contracts/token/ERC20/ERC20.sol\":4776:5020  function transferFrom(address from, address to, uint256 value) public virtual returns (bool) {... */\n            tag_33:\n                /* \"@openzeppelin/contracts/token/ERC20/ERC20.sol\":4863:4867  bool */\n              0x00\n                /* \"@openzeppelin/contracts/token/ERC20/ERC20.sol\":4879:4894  address spender */\n              dup1\n                /* \"@openzeppelin/contracts/token/ERC20/ERC20.sol\":4897:4909  _msgSender() */\n              tag_79\n                /* \"@openzeppelin/contracts/token/ERC20/ERC20.sol\":4897:4907  _msgSender */\n              tag_74\n                /* \"@openzeppelin/contracts/token/ERC20/ERC20.sol\":4897:4909  _msgSender() */\n              jump\t// in\n            tag_79:\n                /* \"@openzeppelin/contracts/token/ERC20/ERC20.sol\":4879:4909  address spender = _msgSender() */\n              swap1\n              pop\n                /* \"@openzeppelin/contracts/token/ERC20/ERC20.sol\":4919:4956  _spendAllowance(from, spender, value) */\n              tag_80\n                /* \"@openzeppelin/contracts/token/ERC20/ERC20.sol\":4935:4939  from */\n              dup6\n                /* \"@openzeppelin/contracts/token/ERC20/ERC20.sol\":4941:4948  spender */\n              dup3\n                /* \"@openzeppelin/contracts/token/ERC20/ERC20.sol\":4950:4955  value */\n              dup6\n                /* \"@openzeppelin/contracts/token/ERC20/ERC20.sol\":4919:4934  _spendAllowance */\n              tag_81\n                /* \"@openzeppelin/contracts/token/ERC20/ERC20.sol\":4919:4956  _spendAllowance(from, spender, value) */\n              jump\t// in\n            tag_80:\n                /* \"@openzeppelin/contracts/token/ERC20/ERC20.sol\":4966:4992  _transfer(from, to, value) */\n              tag_82\n                /* \"@openzeppelin/contracts/token/ERC20/ERC20.sol\":4976:4980  from */\n              dup6\n                /* \"@openzeppelin/contracts/token/ERC20/ERC20.sol\":4982:4984  to */\n              dup6\n                /* \"@openzeppelin/contracts/token/ERC20/ERC20.sol\":4986:4991  value */\n              dup6\n                /* \"@openzeppelin/contracts/token/ERC20/ERC20.sol\":4966:4975  _transfer */\n              tag_83\n                /* \"@openzeppelin/contracts/token/ERC20/ERC20.sol\":4966:4992  _transfer(from, to, value) */\n              jump\t// in\n            tag_82:\n                /* \"@openzeppelin/contracts/token/ERC20/ERC20.sol\":5009:5013  true */\n              0x01\n                /* \"@openzeppelin/contracts/token/ERC20/ERC20.sol\":5002:5013  return true */\n              swap2\n              pop\n              pop\n                /* \"@openzeppelin/contracts/token/ERC20/ERC20.sol\":4776:5020  function transferFrom(address from, address to, uint256 value) public virtual returns (bool) {... */\n              swap4\n              swap3\n              pop\n              pop\n              pop\n              jump\t// out\n                /* \"@openzeppelin/contracts/token/ERC20/ERC20.sol\":2707:2789  function decimals() public view virtual returns (uint8) {... */\n            tag_36:\n                /* \"@openzeppelin/contracts/token/ERC20/ERC20.sol\":2756:2761  uint8 */\n              0x00\n                /* \"@openzeppelin/contracts/token/ERC20/ERC20.sol\":2780:2782  18 */\n              0x12\n                /* \"@openzeppelin/contracts/token/ERC20/ERC20.sol\":2773:2782  return 18 */\n              swap1\n              pop\n                /* \"@openzeppelin/contracts/token/ERC20/ERC20.sol\":2707:2789  function decimals() public view virtual returns (uint8) {... */\n              swap1\n              jump\t// out\n                /* \"@openzeppelin/contracts/token/ERC20/ERC20.sol\":3004:3120  function balanceOf(address account) public view virtual returns (uint256) {... */\n            tag_42:\n                /* \"@openzeppelin/contracts/token/ERC20/ERC20.sol\":3069:3076  uint256 */\n              0x00\n                /* \"@openzeppelin/contracts/token/ERC20/ERC20.sol\":3095:3104  _balances */\n              dup1\n                /* \"@openzeppelin/contracts/token/ERC20/ERC20.sol\":3095:3113  _balances[account] */\n              0x00\n                /* \"@openzeppelin/contracts/token/ERC20/ERC20.sol\":3105:3112  account */\n              dup4\n                /* \"@openzeppelin/contracts/token/ERC20/ERC20.sol\":3095:3113  _balances[account] */\n              0xffffffffffffffffffffffffffffffffffffffff\n              and\n              0xffffffffffffffffffffffffffffffffffffffff\n              and\n              dup2\n              mstore\n              0x20\n              add\n              swap1\n              dup2\n              mstore\n              0x20\n              add\n              0x00\n              keccak256\n              sload\n                /* \"@openzeppelin/contracts/token/ERC20/ERC20.sol\":3088:3113  return _balances[account] */\n              swap1\n              pop\n                /* \"@openzeppelin/contracts/token/ERC20/ERC20.sol\":3004:3120  function balanceOf(address account) public view virtual returns (uint256) {... */\n              swap2\n              swap1\n              pop\n              jump\t// out\n                /* \"@openzeppelin/contracts/access/Ownable.sol\":2293:2394  function renounceOwnership() public virtual onlyOwner {... */\n            tag_45:\n                /* \"@openzeppelin/contracts/access/Ownable.sol\":1531:1544  _checkOwner() */\n              tag_87\n                /* \"@openzeppelin/contracts/access/Ownable.sol\":1531:1542  _checkOwner */\n              tag_88\n                /* \"@openzeppelin/contracts/access/Ownable.sol\":1531:1544  _checkOwner() */\n              jump\t// in\n            tag_87:\n                /* \"@openzeppelin/contracts/access/Ownable.sol\":2357:2387  _transferOwnership(address(0)) */\n              tag_90\n                /* \"@openzeppelin/contracts/access/Ownable.sol\":2384:2385  0 */\n              0x00\n                /* \"@openzeppelin/contracts/access/Ownable.sol\":2357:2375  _transferOwnership */\n              tag_91\n                /* \"@openzeppelin/contracts/access/Ownable.sol\":2357:2387  _transferOwnership(address(0)) */\n              jump\t// in\n            tag_90:\n                /* \"@openzeppelin/contracts/access/Ownable.sol\":2293:2394  function renounceOwnership() public virtual onlyOwner {... */\n              jump\t// out\n                /* \"@openzeppelin/contracts/access/Ownable.sol\":1638:1723  function owner() public view virtual returns (address) {... */\n            tag_47:\n                /* \"@openzeppelin/contracts/access/Ownable.sol\":1684:1691  address */\n              0x00\n                /* \"@openzeppelin/contracts/access/Ownable.sol\":1710:1716  _owner */\n              0x05\n              0x00\n              swap1\n              sload\n              swap1\n              0x0100\n              exp\n              swap1\n              div\n              0xffffffffffffffffffffffffffffffffffffffff\n              and\n                /* \"@openzeppelin/contracts/access/Ownable.sol\":1703:1716  return _owner */\n              swap1\n              pop\n                /* \"@openzeppelin/contracts/access/Ownable.sol\":1638:1723  function owner() public view virtual returns (address) {... */\n              swap1\n              jump\t// out\n                /* \"@openzeppelin/contracts/token/ERC20/ERC20.sol\":1981:2074  function symbol() public view virtual returns (string memory) {... */\n            tag_51:\n                /* \"@openzeppelin/contracts/token/ERC20/ERC20.sol\":2028:2041  string memory */\n              0x60\n                /* \"@openzeppelin/contracts/token/ERC20/ERC20.sol\":2060:2067  _symbol */\n              0x04\n                /* \"@openzeppelin/contracts/token/ERC20/ERC20.sol\":2053:2067  return _symbol */\n              dup1\n              sload\n              tag_94\n              swap1\n              tag_67\n              jump\t// in\n            tag_94:\n              dup1\n              0x1f\n              add\n              0x20\n              dup1\n              swap2\n              div\n              mul\n              0x20\n              add\n              mload(0x40)\n              swap1\n              dup2\n              add\n              0x40\n              mstore\n              dup1\n              swap3\n              swap2\n              swap1\n              dup2\n              dup2\n              mstore\n              0x20\n              add\n              dup3\n              dup1\n              sload\n              tag_95\n              swap1\n              tag_67\n              jump\t// in\n            tag_95:\n              dup1\n              iszero\n              tag_96\n              jumpi\n              dup1\n              0x1f\n              lt\n              tag_97\n              jumpi\n              0x0100\n              dup1\n              dup4\n              sload\n              div\n              mul\n              dup4\n              mstore\n              swap2\n              0x20\n              add\n              swap2\n              jump(tag_96)\n            tag_97:\n              dup3\n              add\n              swap2\n              swap1\n              0x00\n              mstore\n              keccak256(0x00, 0x20)\n              swap1\n            tag_98:\n              dup2\n              sload\n              dup2\n              mstore\n              swap1\n              0x01\n              add\n              swap1\n              0x20\n              add\n              dup1\n              dup4\n              gt\n              tag_98\n              jumpi\n              dup3\n              swap1\n              sub\n              0x1f\n              and\n              dup3\n              add\n              swap2\n            tag_96:\n              pop\n              pop\n              pop\n              pop\n              pop\n              swap1\n              pop\n                /* \"@openzeppelin/contracts/token/ERC20/ERC20.sol\":1981:2074  function symbol() public view virtual returns (string memory) {... */\n              swap1\n              jump\t// out\n                /* \"@openzeppelin/contracts/token/ERC20/ERC20.sol\":3315:3493  function transfer(address to, uint256 value) public virtual returns (bool) {... */\n            tag_55:\n                /* \"@openzeppelin/contracts/token/ERC20/ERC20.sol\":3384:3388  bool */\n              0x00\n                /* \"@openzeppelin/contracts/token/ERC20/ERC20.sol\":3400:3413  address owner */\n              dup1\n                /* \"@openzeppelin/contracts/token/ERC20/ERC20.sol\":3416:3428  _msgSender() */\n              tag_100\n                /* \"@openzeppelin/contracts/token/ERC20/ERC20.sol\":3416:3426  _msgSender */\n              tag_74\n                /* \"@openzeppelin/contracts/token/ERC20/ERC20.sol\":3416:3428  _msgSender() */\n              jump\t// in\n            tag_100:\n                /* \"@openzeppelin/contracts/token/ERC20/ERC20.sol\":3400:3428  address owner = _msgSender() */\n              swap1\n              pop\n                /* \"@openzeppelin/contracts/token/ERC20/ERC20.sol\":3438:3465  _transfer(owner, to, value) */\n              tag_101\n                /* \"@openzeppelin/contracts/token/ERC20/ERC20.sol\":3448:3453  owner */\n              dup2\n                /* \"@openzeppelin/contracts/token/ERC20/ERC20.sol\":3455:3457  to */\n              dup6\n                /* \"@openzeppelin/contracts/token/ERC20/ERC20.sol\":3459:3464  value */\n              dup6\n                /* \"@openzeppelin/contracts/token/ERC20/ERC20.sol\":3438:3447  _transfer */\n              tag_83\n                /* \"@openzeppelin/contracts/token/ERC20/ERC20.sol\":3438:3465  _transfer(owner, to, value) */\n              jump\t// in\n            tag_101:\n                /* \"@openzeppelin/contracts/token/ERC20/ERC20.sol\":3482:3486  true */\n              0x01\n                /* \"@openzeppelin/contracts/token/ERC20/ERC20.sol\":3475:3486  return true */\n              swap2\n              pop\n              pop\n                /* \"@openzeppelin/contracts/token/ERC20/ERC20.sol\":3315:3493  function transfer(address to, uint256 value) public virtual returns (bool) {... */\n              swap3\n              swap2\n              pop\n              pop\n              jump\t// out\n                /* \"@openzeppelin/contracts/token/ERC20/ERC20.sol\":3551:3691  function allowance(address owner, address spender) public view virtual returns (uint256) {... */\n            tag_60:\n                /* \"@openzeppelin/contracts/token/ERC20/ERC20.sol\":3631:3638  uint256 */\n              0x00\n                /* \"@openzeppelin/contracts/token/ERC20/ERC20.sol\":3657:3668  _allowances */\n              0x01\n                /* \"@openzeppelin/contracts/token/ERC20/ERC20.sol\":3657:3675  _allowances[owner] */\n              0x00\n                /* \"@openzeppelin/contracts/token/ERC20/ERC20.sol\":3669:3674  owner */\n              dup5\n                /* \"@openzeppelin/contracts/token/ERC20/ERC20.sol\":3657:3675  _allowances[owner] */\n              0xffffffffffffffffffffffffffffffffffffffff\n              and\n              0xffffffffffffffffffffffffffffffffffffffff\n              and\n              dup2\n              mstore\n              0x20\n              add\n              swap1\n              dup2\n              mstore\n              0x20\n              add\n              0x00\n              keccak256\n                /* \"@openzeppelin/contracts/token/ERC20/ERC20.sol\":3657:3684  _allowances[owner][spender] */\n              0x00\n                /* \"@openzeppelin/contracts/token/ERC20/ERC20.sol\":3676:3683  spender */\n              dup4\n                /* \"@openzeppelin/contracts/token/ERC20/ERC20.sol\":3657:3684  _allowances[owner][spender] */\n              0xffffffffffffffffffffffffffffffffffffffff\n              and\n              0xffffffffffffffffffffffffffffffffffffffff\n              and\n              dup2\n              mstore\n              0x20\n              add\n              swap1\n              dup2\n              mstore\n              0x20\n              add\n              0x00\n              keccak256\n              sload\n                /* \"@openzeppelin/contracts/token/ERC20/ERC20.sol\":3650:3684  return _allowances[owner][spender] */\n              swap1\n              pop\n                /* \"@openzeppelin/contracts/token/ERC20/ERC20.sol\":3551:3691  function allowance(address owner, address spender) public view virtual returns (uint256) {... */\n              swap3\n              swap2\n              pop\n              pop\n              jump\t// out\n                /* \"@openzeppelin/contracts/access/Ownable.sol\":2543:2758  function transferOwnership(address newOwner) public virtual onlyOwner {... */\n            tag_64:\n                /* \"@openzeppelin/contracts/access/Ownable.sol\":1531:1544  _checkOwner() */\n              tag_104\n                /* \"@openzeppelin/contracts/access/Ownable.sol\":1531:1542  _checkOwner */\n              tag_88\n                /* \"@openzeppelin/contracts/access/Ownable.sol\":1531:1544  _checkOwner() */\n              jump\t// in\n            tag_104:\n                /* \"@openzeppelin/contracts/access/Ownable.sol\":2647:2648  0 */\n              0x00\n                /* \"@openzeppelin/contracts/access/Ownable.sol\":2627:2649  newOwner == address(0) */\n              0xffffffffffffffffffffffffffffffffffffffff\n              and\n                /* \"@openzeppelin/contracts/access/Ownable.sol\":2627:2635  newOwner */\n              dup2\n                /* \"@openzeppelin/contracts/access/Ownable.sol\":2627:2649  newOwner == address(0) */\n              0xffffffffffffffffffffffffffffffffffffffff\n              and\n              sub\n                /* \"@openzeppelin/contracts/access/Ownable.sol\":2623:2714  if (newOwner == address(0)) {... */\n              tag_106\n              jumpi\n                /* \"@openzeppelin/contracts/access/Ownable.sol\":2700:2701  0 */\n              0x00\n                /* \"@openzeppelin/contracts/access/Ownable.sol\":2672:2703  OwnableInvalidOwner(address(0)) */\n              mload(0x40)\n              0x1e4fbdf700000000000000000000000000000000000000000000000000000000\n              dup2\n              mstore\n              0x04\n              add\n              tag_107\n              swap2\n              swap1\n              tag_49\n              jump\t// in\n            tag_107:\n              mload(0x40)\n              dup1\n              swap2\n              sub\n              swap1\n              revert\n                /* \"@openzeppelin/contracts/access/Ownable.sol\":2623:2714  if (newOwner == address(0)) {... */\n            tag_106:\n                /* \"@openzeppelin/contracts/access/Ownable.sol\":2723:2751  _transferOwnership(newOwner) */\n              tag_108\n                /* \"@openzeppelin/contracts/access/Ownable.sol\":2742:2750  newOwner */\n              dup2\n                /* \"@openzeppelin/contracts/access/Ownable.sol\":2723:2741  _transferOwnership */\n              tag_91\n                /* \"@openzeppelin/contracts/access/Ownable.sol\":2723:2751  _transferOwnership(newOwner) */\n              jump\t// in\n            tag_108:\n                /* \"@openzeppelin/contracts/access/Ownable.sol\":2543:2758  function transferOwnership(address newOwner) public virtual onlyOwner {... */\n              pop\n              jump\t// out\n                /* \"@openzeppelin/contracts/utils/Context.sol\":656:752  function _msgSender() internal view virtual returns (address) {... */\n            tag_74:\n                /* \"@openzeppelin/contracts/utils/Context.sol\":709:716  address */\n              0x00\n                /* \"@openzeppelin/contracts/utils/Context.sol\":735:745  msg.sender */\n              caller\n                /* \"@openzeppelin/contracts/utils/Context.sol\":728:745  return msg.sender */\n              swap1\n              pop\n                /* \"@openzeppelin/contracts/utils/Context.sol\":656:752  function _msgSender() internal view virtual returns (address) {... */\n              swap1\n              jump\t// out\n                /* \"@openzeppelin/contracts/token/ERC20/ERC20.sol\":8726:8854  function _approve(address owner, address spender, uint256 value) internal {... */\n            tag_76:\n                /* \"@openzeppelin/contracts/token/ERC20/ERC20.sol\":8810:8847  _approve(owner, spender, value, true) */\n              tag_111\n                /* \"@openzeppelin/contracts/token/ERC20/ERC20.sol\":8819:8824  owner */\n              dup4\n                /* \"@openzeppelin/contracts/token/ERC20/ERC20.sol\":8826:8833  spender */\n              dup4\n                /* \"@openzeppelin/contracts/token/ERC20/ERC20.sol\":8835:8840  value */\n              dup4\n                /* \"@openzeppelin/contracts/token/ERC20/ERC20.sol\":8842:8846  true */\n              0x01\n                /* \"@openzeppelin/contracts/token/ERC20/ERC20.sol\":8810:8818  _approve */\n              tag_112\n                /* \"@openzeppelin/contracts/token/ERC20/ERC20.sol\":8810:8847  _approve(owner, spender, value, true) */\n              jump\t// in\n            tag_111:\n                /* \"@openzeppelin/contracts/token/ERC20/ERC20.sol\":8726:8854  function _approve(address owner, address spender, uint256 value) internal {... */\n              pop\n              pop\n              pop\n              jump\t// out\n                /* \"@openzeppelin/contracts/token/ERC20/ERC20.sol\":10415:10892  function _spendAllowance(address owner, address spender, uint256 value) internal virtual {... */\n            tag_81:\n                /* \"@openzeppelin/contracts/token/ERC20/ERC20.sol\":10514:10538  uint256 currentAllowance */\n              0x00\n                /* \"@openzeppelin/contracts/token/ERC20/ERC20.sol\":10541:10566  allowance(owner, spender) */\n              tag_114\n                /* \"@openzeppelin/contracts/token/ERC20/ERC20.sol\":10551:10556  owner */\n              dup5\n                /* \"@openzeppelin/contracts/token/ERC20/ERC20.sol\":10558:10565  spender */\n              dup5\n                /* \"@openzeppelin/contracts/token/ERC20/ERC20.sol\":10541:10550  allowance */\n              tag_60\n                /* \"@openzeppelin/contracts/token/ERC20/ERC20.sol\":10541:10566  allowance(owner, spender) */\n              jump\t// in\n            tag_114:\n                /* \"@openzeppelin/contracts/token/ERC20/ERC20.sol\":10514:10566  uint256 currentAllowance = allowance(owner, spender) */\n              swap1\n              pop\n                /* \"@openzeppelin/contracts/token/ERC20/ERC20.sol\":10600:10617  type(uint256).max */\n              0xffffffffffffffffffffffffffffffffffffffffffffffffffffffffffffffff\n                /* \"@openzeppelin/contracts/token/ERC20/ERC20.sol\":10580:10596  currentAllowance */\n              dup2\n                /* \"@openzeppelin/contracts/token/ERC20/ERC20.sol\":10580:10617  currentAllowance != type(uint256).max */\n              eq\n                /* \"@openzeppelin/contracts/token/ERC20/ERC20.sol\":10576:10886  if (currentAllowance != type(uint256).max) {... */\n              tag_115\n              jumpi\n                /* \"@openzeppelin/contracts/token/ERC20/ERC20.sol\":10656:10661  value */\n              dup2\n                /* \"@openzeppelin/contracts/token/ERC20/ERC20.sol\":10637:10653  currentAllowance */\n              dup2\n                /* \"@openzeppelin/contracts/token/ERC20/ERC20.sol\":10637:10661  currentAllowance < value */\n              lt\n                /* \"@openzeppelin/contracts/token/ERC20/ERC20.sol\":10633:10763  if (currentAllowance < value) {... */\n              iszero\n              tag_116\n              jumpi\n                /* \"@openzeppelin/contracts/token/ERC20/ERC20.sol\":10715:10722  spender */\n              dup3\n                /* \"@openzeppelin/contracts/token/ERC20/ERC20.sol\":10724:10740  currentAllowance */\n              dup2\n                /* \"@openzeppelin/contracts/token/ERC20/ERC20.sol\":10742:10747  value */\n              dup4\n                /* \"@openzeppelin/contracts/token/ERC20/ERC20.sol\":10688:10748  ERC20InsufficientAllowance(spender, currentAllowance, value) */\n              mload(0x40)\n              0xfb8f41b200000000000000000000000000000000000000000000000000000000\n              dup2\n              mstore\n              0x04\n              add\n              tag_117\n              swap4\n              swap3\n              swap2\n              swap1\n              tag_118\n              jump\t// in\n            tag_117:\n              mload(0x40)\n              dup1\n              swap2\n              sub\n              swap1\n              revert\n                /* \"@openzeppelin/contracts/token/ERC20/ERC20.sol\":10633:10763  if (currentAllowance < value) {... */\n            tag_116:\n                /* \"@openzeppelin/contracts/token/ERC20/ERC20.sol\":10804:10861  _approve(owner, spender, currentAllowance - value, false) */\n              tag_119\n                /* \"@openzeppelin/contracts/token/ERC20/ERC20.sol\":10813:10818  owner */\n              dup5\n                /* \"@openzeppelin/contracts/token/ERC20/ERC20.sol\":10820:10827  spender */\n              dup5\n                /* \"@openzeppelin/contracts/token/ERC20/ERC20.sol\":10848:10853  value */\n              dup5\n                /* \"@openzeppelin/contracts/token/ERC20/ERC20.sol\":10829:10845  currentAllowance */\n              dup5\n                /* \"@openzeppelin/contracts/token/ERC20/ERC20.sol\":10829:10853  currentAllowance - value */\n              sub\n                /* \"@openzeppelin/contracts/token/ERC20/ERC20.sol\":10855:10860  false */\n              0x00\n                /* \"@openzeppelin/contracts/token/ERC20/ERC20.sol\":10804:10812  _approve */\n              tag_112\n                /* \"@openzeppelin/contracts/token/ERC20/ERC20.sol\":10804:10861  _approve(owner, spender, currentAllowance - value, false) */\n              jump\t// in\n            tag_119:\n                /* \"@openzeppelin/contracts/token/ERC20/ERC20.sol\":10576:10886  if (currentAllowance != type(uint256).max) {... */\n            tag_115:\n                /* \"@openzeppelin/contracts/token/ERC20/ERC20.sol\":10504:10892  {... */\n              pop\n                /* \"@openzeppelin/contracts/token/ERC20/ERC20.sol\":10415:10892  function _spendAllowance(address owner, address spender, uint256 value) internal virtual {... */\n              pop\n              pop\n              pop\n              jump\t// out\n                /* \"@openzeppelin/contracts/token/ERC20/ERC20.sol\":5393:5693  function _transfer(address from, address to, uint256 value) internal {... */\n            tag_83:\n                /* \"@openzeppelin/contracts/token/ERC20/ERC20.sol\":5492:5493  0 */\n              0x00\n                /* \"@openzeppelin/contracts/token/ERC20/ERC20.sol\":5476:5494  from == address(0) */\n              0xffffffffffffffffffffffffffffffffffffffff\n              and\n                /* \"@openzeppelin/contracts/token/ERC20/ERC20.sol\":5476:5480  from */\n              dup4\n                /* \"@openzeppelin/contracts/token/ERC20/ERC20.sol\":5476:5494  from == address(0) */\n              0xffffffffffffffffffffffffffffffffffffffff\n              and\n              sub\n                /* \"@openzeppelin/contracts/token/ERC20/ERC20.sol\":5472:5558  if (from == address(0)) {... */\n              tag_121\n              jumpi\n                /* \"@openzeppelin/contracts/token/ERC20/ERC20.sol\":5544:5545  0 */\n              0x00\n                /* \"@openzeppelin/contracts/token/ERC20/ERC20.sol\":5517:5547  ERC20InvalidSender(address(0)) */\n              mload(0x40)\n              0x96c6fd1e00000000000000000000000000000000000000000000000000000000\n              dup2\n              mstore\n              0x04\n              add\n              tag_122\n              swap2\n              swap1\n              tag_49\n              jump\t// in\n            tag_122:\n              mload(0x40)\n              dup1\n              swap2\n              sub\n              swap1\n              revert\n                /* \"@openzeppelin/contracts/token/ERC20/ERC20.sol\":5472:5558  if (from == address(0)) {... */\n            tag_121:\n                /* \"@openzeppelin/contracts/token/ERC20/ERC20.sol\":5585:5586  0 */\n              0x00\n                /* \"@openzeppelin/contracts/token/ERC20/ERC20.sol\":5571:5587  to == address(0) */\n              0xffffffffffffffffffffffffffffffffffffffff\n              and\n                /* \"@openzeppelin/contracts/token/ERC20/ERC20.sol\":5571:5573  to */\n              dup3\n                /* \"@openzeppelin/contracts/token/ERC20/ERC20.sol\":5571:5587  to == address(0) */\n              0xffffffffffffffffffffffffffffffffffffffff\n              and\n              sub\n                /* \"@openzeppelin/contracts/token/ERC20/ERC20.sol\":5567:5653  if (to == address(0)) {... */\n              tag_123\n              jumpi\n                /* \"@openzeppelin/contracts/token/ERC20/ERC20.sol\":5639:5640  0 */\n              0x00\n                /* \"@openzeppelin/contracts/token/ERC20/ERC20.sol\":5610:5642  ERC20InvalidReceiver(address(0)) */\n              mload(0x40)\n              0xec442f0500000000000000000000000000000000000000000000000000000000\n              dup2\n              mstore\n              0x04\n              add\n              tag_124\n              swap2\n              swap1\n              tag_49\n              jump\t// in\n            tag_124:\n              mload(0x40)\n              dup1\n              swap2\n              sub\n              swap1\n              revert\n                /* \"@openzeppelin/contracts/token/ERC20/ERC20.sol\":5567:5653  if (to == address(0)) {... */\n            tag_123:\n                /* \"@openzeppelin/contracts/token/ERC20/ERC20.sol\":5662:5686  _update(from, to, value) */\n              tag_125\n                /* \"@openzeppelin/contracts/token/ERC20/ERC20.sol\":5670:5674  from */\n              dup4\n                /* \"@openzeppelin/contracts/token/ERC20/ERC20.sol\":5676:5678  to */\n              dup4\n                /* \"@openzeppelin/contracts/token/ERC20/ERC20.sol\":5680:5685  value */\n              dup4\n                /* \"@openzeppelin/contracts/token/ERC20/ERC20.sol\":5662:5669  _update */\n              tag_126\n                /* \"@openzeppelin/contracts/token/ERC20/ERC20.sol\":5662:5686  _update(from, to, value) */\n              jump\t// in\n            tag_125:\n                /* \"@openzeppelin/contracts/token/ERC20/ERC20.sol\":5393:5693  function _transfer(address from, address to, uint256 value) internal {... */\n              pop\n              pop\n              pop\n              jump\t// out\n                /* \"@openzeppelin/contracts/access/Ownable.sol\":1796:1958  function _checkOwner() internal view virtual {... */\n            tag_88:\n                /* \"@openzeppelin/contracts/access/Ownable.sol\":1866:1878  _msgSender() */\n              tag_128\n                /* \"@openzeppelin/contracts/access/Ownable.sol\":1866:1876  _msgSender */\n              tag_74\n                /* \"@openzeppelin/contracts/access/Ownable.sol\":1866:1878  _msgSender() */\n              jump\t// in\n            tag_128:\n                /* \"@openzeppelin/contracts/access/Ownable.sol\":1855:1878  owner() != _msgSender() */\n              0xffffffffffffffffffffffffffffffffffffffff\n              and\n                /* \"@openzeppelin/contracts/access/Ownable.sol\":1855:1862  owner() */\n              tag_129\n                /* \"@openzeppelin/contracts/access/Ownable.sol\":1855:1860  owner */\n              tag_47\n                /* \"@openzeppelin/contracts/access/Ownable.sol\":1855:1862  owner() */\n              jump\t// in\n            tag_129:\n                /* \"@openzeppelin/contracts/access/Ownable.sol\":1855:1878  owner() != _msgSender() */\n              0xffffffffffffffffffffffffffffffffffffffff\n              and\n              eq\n                /* \"@openzeppelin/contracts/access/Ownable.sol\":1851:1952  if (owner() != _msgSender()) {... */\n              tag_130\n              jumpi\n                /* \"@openzeppelin/contracts/access/Ownable.sol\":1928:1940  _msgSender() */\n              tag_131\n                /* \"@openzeppelin/contracts/access/Ownable.sol\":1928:1938  _msgSender */\n              tag_74\n                /* \"@openzeppelin/contracts/access/Ownable.sol\":1928:1940  _msgSender() */\n              jump\t// in\n            tag_131:\n                /* \"@openzeppelin/contracts/access/Ownable.sol\":1901:1941  OwnableUnauthorizedAccount(_msgSender()) */\n              mload(0x40)\n              0x118cdaa700000000000000000000000000000000000000000000000000000000\n              dup2\n              mstore\n              0x04\n              add\n              tag_132\n              swap2\n              swap1\n              tag_49\n              jump\t// in\n            tag_132:\n              mload(0x40)\n              dup1\n              swap2\n              sub\n              swap1\n              revert\n                /* \"@openzeppelin/contracts/access/Ownable.sol\":1851:1952  if (owner() != _msgSender()) {... */\n            tag_130:\n                /* \"@openzeppelin/contracts/access/Ownable.sol\":1796:1958  function _checkOwner() internal view virtual {... */\n              jump\t// out\n                /* \"@openzeppelin/contracts/access/Ownable.sol\":2912:3099  function _transferOwnership(address newOwner) internal virtual {... */\n            tag_91:\n                /* \"@openzeppelin/contracts/access/Ownable.sol\":2985:3001  address oldOwner */\n              0x00\n                /* \"@openzeppelin/contracts/access/Ownable.sol\":3004:3010  _owner */\n              0x05\n              0x00\n              swap1\n              sload\n              swap1\n              0x0100\n              exp\n              swap1\n              div\n              0xffffffffffffffffffffffffffffffffffffffff\n              and\n                /* \"@openzeppelin/contracts/access/Ownable.sol\":2985:3010  address oldOwner = _owner */\n              swap1\n              pop\n                /* \"@openzeppelin/contracts/access/Ownable.sol\":3029:3037  newOwner */\n              dup2\n                /* \"@openzeppelin/contracts/access/Ownable.sol\":3020:3026  _owner */\n              0x05\n              0x00\n                /* \"@openzeppelin/contracts/access/Ownable.sol\":3020:3037  _owner = newOwner */\n              0x0100\n              exp\n              dup2\n              sload\n              dup2\n              0xffffffffffffffffffffffffffffffffffffffff\n              mul\n              not\n              and\n              swap1\n              dup4\n              0xffffffffffffffffffffffffffffffffffffffff\n              and\n              mul\n              or\n              swap1\n              sstore\n              pop\n                /* \"@openzeppelin/contracts/access/Ownable.sol\":3083:3091  newOwner */\n              dup2\n                /* \"@openzeppelin/contracts/access/Ownable.sol\":3052:3092  OwnershipTransferred(oldOwner, newOwner) */\n              0xffffffffffffffffffffffffffffffffffffffff\n              and\n                /* \"@openzeppelin/contracts/access/Ownable.sol\":3073:3081  oldOwner */\n              dup2\n                /* \"@openzeppelin/contracts/access/Ownable.sol\":3052:3092  OwnershipTransferred(oldOwner, newOwner) */\n              0xffffffffffffffffffffffffffffffffffffffff\n              and\n              0x8be0079c531659141344cd1fd0a4f28419497f9722a3daafe3b4186f6b6457e0\n              mload(0x40)\n              mload(0x40)\n              dup1\n              swap2\n              sub\n              swap1\n              log3\n                /* \"@openzeppelin/contracts/access/Ownable.sol\":2975:3099  {... */\n              pop\n                /* \"@openzeppelin/contracts/access/Ownable.sol\":2912:3099  function _transferOwnership(address newOwner) internal virtual {... */\n              pop\n              jump\t// out\n                /* \"@openzeppelin/contracts/token/ERC20/ERC20.sol\":9701:10133  function _approve(address owner, address spender, uint256 value, bool emitEvent) internal virtual {... */\n            tag_112:\n                /* \"@openzeppelin/contracts/token/ERC20/ERC20.sol\":9830:9831  0 */\n              0x00\n                /* \"@openzeppelin/contracts/token/ERC20/ERC20.sol\":9813:9832  owner == address(0) */\n              0xffffffffffffffffffffffffffffffffffffffff\n              and\n                /* \"@openzeppelin/contracts/token/ERC20/ERC20.sol\":9813:9818  owner */\n              dup5\n                /* \"@openzeppelin/contracts/token/ERC20/ERC20.sol\":9813:9832  owner == address(0) */\n              0xffffffffffffffffffffffffffffffffffffffff\n              and\n              sub\n                /* \"@openzeppelin/contracts/token/ERC20/ERC20.sol\":9809:9898  if (owner == address(0)) {... */\n              tag_135\n              jumpi\n                /* \"@openzeppelin/contracts/token/ERC20/ERC20.sol\":9884:9885  0 */\n              0x00\n                /* \"@openzeppelin/contracts/token/ERC20/ERC20.sol\":9855:9887  ERC20InvalidApprover(address(0)) */\n              mload(0x40)\n              0xe602df0500000000000000000000000000000000000000000000000000000000\n              dup2\n              mstore\n              0x04\n              add\n              tag_136\n              swap2\n              swap1\n              tag_49\n              jump\t// in\n            tag_136:\n              mload(0x40)\n              dup1\n              swap2\n              sub\n              swap1\n              revert\n                /* \"@openzeppelin/contracts/token/ERC20/ERC20.sol\":9809:9898  if (owner == address(0)) {... */\n            tag_135:\n                /* \"@openzeppelin/contracts/token/ERC20/ERC20.sol\":9930:9931  0 */\n              0x00\n                /* \"@openzeppelin/contracts/token/ERC20/ERC20.sol\":9911:9932  spender == address(0) */\n              0xffffffffffffffffffffffffffffffffffffffff\n              and\n                /* \"@openzeppelin/contracts/token/ERC20/ERC20.sol\":9911:9918  spender */\n              dup4\n                /* \"@openzeppelin/contracts/token/ERC20/ERC20.sol\":9911:9932  spender == address(0) */\n              0xffffffffffffffffffffffffffffffffffffffff\n              and\n              sub\n                /* \"@openzeppelin/contracts/token/ERC20/ERC20.sol\":9907:9997  if (spender == address(0)) {... */\n              tag_137\n              jumpi\n                /* \"@openzeppelin/contracts/token/ERC20/ERC20.sol\":9983:9984  0 */\n              0x00\n                /* \"@openzeppelin/contracts/token/ERC20/ERC20.sol\":9955:9986  ERC20InvalidSpender(address(0)) */\n              mload(0x40)\n              0x94280d6200000000000000000000000000000000000000000000000000000000\n              dup2\n              mstore\n              0x04\n              add\n              tag_138\n              swap2\n              swap1\n              tag_49\n              jump\t// in\n            tag_138:\n              mload(0x40)\n              dup1\n              swap2\n              sub\n              swap1\n              revert\n                /* \"@openzeppelin/contracts/token/ERC20/ERC20.sol\":9907:9997  if (spender == address(0)) {... */\n            tag_137:\n                /* \"@openzeppelin/contracts/token/ERC20/ERC20.sol\":10036:10041  value */\n              dup2\n                /* \"@openzeppelin/contracts/token/ERC20/ERC20.sol\":10006:10017  _allowances */\n              0x01\n                /* \"@openzeppelin/contracts/token/ERC20/ERC20.sol\":10006:10024  _allowances[owner] */\n              0x00\n                /* \"@openzeppelin/contracts/token/ERC20/ERC20.sol\":10018:10023  owner */\n              dup7\n                /* \"@openzeppelin/contracts/token/ERC20/ERC20.sol\":10006:10024  _allowances[owner] */\n              0xffffffffffffffffffffffffffffffffffffffff\n              and\n              0xffffffffffffffffffffffffffffffffffffffff\n              and\n              dup2\n              mstore\n              0x20\n              add\n              swap1\n              dup2\n              mstore\n              0x20\n              add\n              0x00\n              keccak256\n                /* \"@openzeppelin/contracts/token/ERC20/ERC20.sol\":10006:10033  _allowances[owner][spender] */\n              0x00\n                /* \"@openzeppelin/contracts/token/ERC20/ERC20.sol\":10025:10032  spender */\n              dup6\n                /* \"@openzeppelin/contracts/token/ERC20/ERC20.sol\":10006:10033  _allowances[owner][spender] */\n              0xffffffffffffffffffffffffffffffffffffffff\n              and\n              0xffffffffffffffffffffffffffffffffffffffff\n              and\n              dup2\n              mstore\n              0x20\n              add\n              swap1\n              dup2\n              mstore\n              0x20\n              add\n              0x00\n              keccak256\n                /* \"@openzeppelin/contracts/token/ERC20/ERC20.sol\":10006:10041  _allowances[owner][spender] = value */\n              dup2\n              swap1\n              sstore\n              pop\n                /* \"@openzeppelin/contracts/token/ERC20/ERC20.sol\":10055:10064  emitEvent */\n              dup1\n                /* \"@openzeppelin/contracts/token/ERC20/ERC20.sol\":10051:10127  if (emitEvent) {... */\n              iszero\n              tag_139\n              jumpi\n                /* \"@openzeppelin/contracts/token/ERC20/ERC20.sol\":10101:10108  spender */\n              dup3\n                /* \"@openzeppelin/contracts/token/ERC20/ERC20.sol\":10085:10116  Approval(owner, spender, value) */\n              0xffffffffffffffffffffffffffffffffffffffff\n              and\n                /* \"@openzeppelin/contracts/token/ERC20/ERC20.sol\":10094:10099  owner */\n              dup5\n                /* \"@openzeppelin/contracts/token/ERC20/ERC20.sol\":10085:10116  Approval(owner, spender, value) */\n              0xffffffffffffffffffffffffffffffffffffffff\n              and\n              0x8c5be1e5ebec7d5bd14f71427d1e84f3dd0314c0f7b2291e5b200ac8c7c3b925\n                /* \"@openzeppelin/contracts/token/ERC20/ERC20.sol\":10110:10115  value */\n              dup5\n                /* \"@openzeppelin/contracts/token/ERC20/ERC20.sol\":10085:10116  Approval(owner, spender, value) */\n              mload(0x40)\n              tag_140\n              swap2\n              swap1\n              tag_29\n              jump\t// in\n            tag_140:\n              mload(0x40)\n              dup1\n              swap2\n              sub\n              swap1\n              log3\n                /* \"@openzeppelin/contracts/token/ERC20/ERC20.sol\":10051:10127  if (emitEvent) {... */\n            tag_139:\n                /* \"@openzeppelin/contracts/token/ERC20/ERC20.sol\":9701:10133  function _approve(address owner, address spender, uint256 value, bool emitEvent) internal virtual {... */\n              pop\n              pop\n              pop\n              pop\n              jump\t// out\n                /* \"@openzeppelin/contracts/token/ERC20/ERC20.sol\":6008:7115  function _update(address from, address to, uint256 value) internal virtual {... */\n            tag_126:\n                /* \"@openzeppelin/contracts/token/ERC20/ERC20.sol\":6113:6114  0 */\n              0x00\n                /* \"@openzeppelin/contracts/token/ERC20/ERC20.sol\":6097:6115  from == address(0) */\n              0xffffffffffffffffffffffffffffffffffffffff\n              and\n                /* \"@openzeppelin/contracts/token/ERC20/ERC20.sol\":6097:6101  from */\n              dup4\n                /* \"@openzeppelin/contracts/token/ERC20/ERC20.sol\":6097:6115  from == address(0) */\n              0xffffffffffffffffffffffffffffffffffffffff\n              and\n              sub\n                /* \"@openzeppelin/contracts/token/ERC20/ERC20.sol\":6093:6633  if (from == address(0)) {... */\n              tag_142\n              jumpi\n                /* \"@openzeppelin/contracts/token/ERC20/ERC20.sol\":6249:6254  value */\n              dup1\n                /* \"@openzeppelin/contracts/token/ERC20/ERC20.sol\":6233:6245  _totalSupply */\n              0x02\n              0x00\n                /* \"@openzeppelin/contracts/token/ERC20/ERC20.sol\":6233:6254  _totalSupply += value */\n              dup3\n              dup3\n              sload\n              tag_143\n              swap2\n              swap1\n              tag_144\n              jump\t// in\n            tag_143:\n              swap3\n              pop\n              pop\n              dup2\n              swap1\n              sstore\n              pop\n                /* \"@openzeppelin/contracts/token/ERC20/ERC20.sol\":6093:6633  if (from == address(0)) {... */\n              jump(tag_145)\n            tag_142:\n                /* \"@openzeppelin/contracts/token/ERC20/ERC20.sol\":6285:6304  uint256 fromBalance */\n              0x00\n                /* \"@openzeppelin/contracts/token/ERC20/ERC20.sol\":6307:6316  _balances */\n              dup1\n                /* \"@openzeppelin/contracts/token/ERC20/ERC20.sol\":6307:6322  _balances[from] */\n              0x00\n                /* \"@openzeppelin/contracts/token/ERC20/ERC20.sol\":6317:6321  from */\n              dup6\n                /* \"@openzeppelin/contracts/token/ERC20/ERC20.sol\":6307:6322  _balances[from] */\n              0xffffffffffffffffffffffffffffffffffffffff\n              and\n              0xffffffffffffffffffffffffffffffffffffffff\n              and\n              dup2\n              mstore\n              0x20\n              add\n              swap1\n              dup2\n              mstore\n              0x20\n              add\n              0x00\n              keccak256\n              sload\n                /* \"@openzeppelin/contracts/token/ERC20/ERC20.sol\":6285:6322  uint256 fromBalance = _balances[from] */\n              swap1\n              pop\n                /* \"@openzeppelin/contracts/token/ERC20/ERC20.sol\":6354:6359  value */\n              dup2\n                /* \"@openzeppelin/contracts/token/ERC20/ERC20.sol\":6340:6351  fromBalance */\n              dup2\n                /* \"@openzeppelin/contracts/token/ERC20/ERC20.sol\":6340:6359  fromBalance < value */\n              lt\n                /* \"@openzeppelin/contracts/token/ERC20/ERC20.sol\":6336:6451  if (fromBalance < value) {... */\n              iszero\n              tag_146\n              jumpi\n                /* \"@openzeppelin/contracts/token/ERC20/ERC20.sol\":6411:6415  from */\n              dup4\n                /* \"@openzeppelin/contracts/token/ERC20/ERC20.sol\":6417:6428  fromBalance */\n              dup2\n                /* \"@openzeppelin/contracts/token/ERC20/ERC20.sol\":6430:6435  value */\n              dup4\n                /* \"@openzeppelin/contracts/token/ERC20/ERC20.sol\":6386:6436  ERC20InsufficientBalance(from, fromBalance, value) */\n              mload(0x40)\n              0xe450d38c00000000000000000000000000000000000000000000000000000000\n              dup2\n              mstore\n              0x04\n              add\n              tag_147\n              swap4\n              swap3\n              swap2\n              swap1\n              tag_118\n              jump\t// in\n            tag_147:\n              mload(0x40)\n              dup1\n              swap2\n              sub\n              swap1\n              revert\n                /* \"@openzeppelin/contracts/token/ERC20/ERC20.sol\":6336:6451  if (fromBalance < value) {... */\n            tag_146:\n                /* \"@openzeppelin/contracts/token/ERC20/ERC20.sol\":6603:6608  value */\n              dup2\n                /* \"@openzeppelin/contracts/token/ERC20/ERC20.sol\":6589:6600  fromBalance */\n              dup2\n                /* \"@openzeppelin/contracts/token/ERC20/ERC20.sol\":6589:6608  fromBalance - value */\n              sub\n                /* \"@openzeppelin/contracts/token/ERC20/ERC20.sol\":6571:6580  _balances */\n              0x00\n                /* \"@openzeppelin/contracts/token/ERC20/ERC20.sol\":6571:6586  _balances[from] */\n              dup1\n                /* \"@openzeppelin/contracts/token/ERC20/ERC20.sol\":6581:6585  from */\n              dup7\n                /* \"@openzeppelin/contracts/token/ERC20/ERC20.sol\":6571:6586  _balances[from] */\n              0xffffffffffffffffffffffffffffffffffffffff\n              and\n              0xffffffffffffffffffffffffffffffffffffffff\n              and\n              dup2\n              mstore\n              0x20\n              add\n              swap1\n              dup2\n              mstore\n              0x20\n              add\n              0x00\n              keccak256\n                /* \"@openzeppelin/contracts/token/ERC20/ERC20.sol\":6571:6608  _balances[from] = fromBalance - value */\n              dup2\n              swap1\n              sstore\n              pop\n                /* \"@openzeppelin/contracts/token/ERC20/ERC20.sol\":6271:6633  {... */\n              pop\n                /* \"@openzeppelin/contracts/token/ERC20/ERC20.sol\":6093:6633  if (from == address(0)) {... */\n            tag_145:\n                /* \"@openzeppelin/contracts/token/ERC20/ERC20.sol\":6661:6662  0 */\n              0x00\n                /* \"@openzeppelin/contracts/token/ERC20/ERC20.sol\":6647:6663  to == address(0) */\n              0xffffffffffffffffffffffffffffffffffffffff\n              and\n                /* \"@openzeppelin/contracts/token/ERC20/ERC20.sol\":6647:6649  to */\n              dup3\n                /* \"@openzeppelin/contracts/token/ERC20/ERC20.sol\":6647:6663  to == address(0) */\n              0xffffffffffffffffffffffffffffffffffffffff\n              and\n              sub\n                /* \"@openzeppelin/contracts/token/ERC20/ERC20.sol\":6643:7068  if (to == address(0)) {... */\n              tag_148\n              jumpi\n                /* \"@openzeppelin/contracts/token/ERC20/ERC20.sol\":6826:6831  value */\n              dup1\n                /* \"@openzeppelin/contracts/token/ERC20/ERC20.sol\":6810:6822  _totalSupply */\n              0x02\n              0x00\n                /* \"@openzeppelin/contracts/token/ERC20/ERC20.sol\":6810:6831  _totalSupply -= value */\n              dup3\n              dup3\n              sload\n              sub\n              swap3\n              pop\n              pop\n              dup2\n              swap1\n              sstore\n              pop\n                /* \"@openzeppelin/contracts/token/ERC20/ERC20.sol\":6643:7068  if (to == address(0)) {... */\n              jump(tag_149)\n            tag_148:\n                /* \"@openzeppelin/contracts/token/ERC20/ERC20.sol\":7038:7043  value */\n              dup1\n                /* \"@openzeppelin/contracts/token/ERC20/ERC20.sol\":7021:7030  _balances */\n              0x00\n                /* \"@openzeppelin/contracts/token/ERC20/ERC20.sol\":7021:7034  _balances[to] */\n              dup1\n                /* \"@openzeppelin/contracts/token/ERC20/ERC20.sol\":7031:7033  to */\n              dup5\n                /* \"@openzeppelin/contracts/token/ERC20/ERC20.sol\":7021:7034  _balances[to] */\n              0xffffffffffffffffffffffffffffffffffffffff\n              and\n              0xffffffffffffffffffffffffffffffffffffffff\n              and\n              dup2\n              mstore\n              0x20\n              add\n              swap1\n              dup2\n              mstore\n              0x20\n              add\n              0x00\n              keccak256\n              0x00\n                /* \"@openzeppelin/contracts/token/ERC20/ERC20.sol\":7021:7043  _balances[to] += value */\n              dup3\n              dup3\n              sload\n              add\n              swap3\n              pop\n              pop\n              dup2\n              swap1\n              sstore\n              pop\n                /* \"@openzeppelin/contracts/token/ERC20/ERC20.sol\":6643:7068  if (to == address(0)) {... */\n            tag_149:\n                /* \"@openzeppelin/contracts/token/ERC20/ERC20.sol\":7098:7100  to */\n              dup2\n                /* \"@openzeppelin/contracts/token/ERC20/ERC20.sol\":7083:7108  Transfer(from, to, value) */\n              0xffffffffffffffffffffffffffffffffffffffff\n              and\n                /* \"@openzeppelin/contracts/token/ERC20/ERC20.sol\":7092:7096  from */\n              dup4\n                /* \"@openzeppelin/contracts/token/ERC20/ERC20.sol\":7083:7108  Transfer(from, to, value) */\n              0xffffffffffffffffffffffffffffffffffffffff\n              and\n              0xddf252ad1be2c89b69c2b068fc378daa952ba7f163c4a11628f55a4df523b3ef\n                /* \"@openzeppelin/contracts/token/ERC20/ERC20.sol\":7102:7107  value */\n              dup4\n                /* \"@openzeppelin/contracts/token/ERC20/ERC20.sol\":7083:7108  Transfer(from, to, value) */\n              mload(0x40)\n              tag_150\n              swap2\n              swap1\n              tag_29\n              jump\t// in\n            tag_150:\n              mload(0x40)\n              dup1\n              swap2\n              sub\n              swap1\n              log3\n                /* \"@openzeppelin/contracts/token/ERC20/ERC20.sol\":6008:7115  function _update(address from, address to, uint256 value) internal virtual {... */\n              pop\n              pop\n              pop\n              jump\t// out\n                /* \"#utility.yul\":7:106   */\n            tag_151:\n                /* \"#utility.yul\":59:65   */\n              0x00\n                /* \"#utility.yul\":93:98   */\n              dup2\n                /* \"#utility.yul\":87:99   */\n              mload\n                /* \"#utility.yul\":77:99   */\n              swap1\n              pop\n                /* \"#utility.yul\":7:106   */\n              swap2\n              swap1\n              pop\n              jump\t// out\n                /* \"#utility.yul\":112:281   */\n            tag_152:\n                /* \"#utility.yul\":196:207   */\n              0x00\n                /* \"#utility.yul\":230:236   */\n              dup3\n                /* \"#utility.yul\":225:228   */\n              dup3\n                /* \"#utility.yul\":218:237   */\n              mstore\n                /* \"#utility.yul\":270:274   */\n              0x20\n                /* \"#utility.yul\":265:268   */\n              dup3\n                /* \"#utility.yul\":261:275   */\n              add\n                /* \"#utility.yul\":246:275   */\n              swap1\n              pop\n                /* \"#utility.yul\":112:281   */\n              swap3\n              swap2\n              pop\n              pop\n              jump\t// out\n                /* \"#utility.yul\":287:426   */\n            tag_153:\n                /* \"#utility.yul\":376:382   */\n              dup3\n                /* \"#utility.yul\":371:374   */\n              dup2\n                /* \"#utility.yul\":366:369   */\n              dup4\n                /* \"#utility.yul\":360:383   */\n              mcopy\n                /* \"#utility.yul\":417:418   */\n              0x00\n                /* \"#utility.yul\":408:414   */\n              dup4\n                /* \"#utility.yul\":403:406   */\n              dup4\n                /* \"#utility.yul\":399:415   */\n              add\n                /* \"#utility.yul\":392:419   */\n              mstore\n                /* \"#utility.yul\":287:426   */\n              pop\n              pop\n              pop\n              jump\t// out\n                /* \"#utility.yul\":432:534   */\n            tag_154:\n                /* \"#utility.yul\":473:479   */\n              0x00\n                /* \"#utility.yul\":524:526   */\n              0x1f\n                /* \"#utility.yul\":520:527   */\n              not\n                /* \"#utility.yul\":515:517   */\n              0x1f\n                /* \"#utility.yul\":508:513   */\n              dup4\n                /* \"#utility.yul\":504:518   */\n              add\n                /* \"#utility.yul\":500:528   */\n              and\n                /* \"#utility.yul\":490:528   */\n              swap1\n              pop\n                /* \"#utility.yul\":432:534   */\n              swap2\n              swap1\n              pop\n              jump\t// out\n                /* \"#utility.yul\":540:917   */\n            tag_155:\n                /* \"#utility.yul\":628:631   */\n              0x00\n                /* \"#utility.yul\":656:695   */\n              tag_180\n                /* \"#utility.yul\":689:694   */\n              dup3\n                /* \"#utility.yul\":656:695   */\n              tag_151\n              jump\t// in\n            tag_180:\n                /* \"#utility.yul\":711:782   */\n              tag_181\n                /* \"#utility.yul\":775:781   */\n              dup2\n                /* \"#utility.yul\":770:773   */\n              dup6\n                /* \"#utility.yul\":711:782   */\n              tag_152\n              jump\t// in\n            tag_181:\n                /* \"#utility.yul\":704:782   */\n              swap4\n              pop\n                /* \"#utility.yul\":791:856   */\n              tag_182\n                /* \"#utility.yul\":849:855   */\n              dup2\n                /* \"#utility.yul\":844:847   */\n              dup6\n                /* \"#utility.yul\":837:841   */\n              0x20\n                /* \"#utility.yul\":830:835   */\n              dup7\n                /* \"#utility.yul\":826:842   */\n              add\n                /* \"#utility.yul\":791:856   */\n              tag_153\n              jump\t// in\n            tag_182:\n                /* \"#utility.yul\":881:910   */\n              tag_183\n                /* \"#utility.yul\":903:909   */\n              dup2\n                /* \"#utility.yul\":881:910   */\n              tag_154\n              jump\t// in\n            tag_183:\n                /* \"#utility.yul\":876:879   */\n              dup5\n                /* \"#utility.yul\":872:911   */\n              add\n                /* \"#utility.yul\":865:911   */\n              swap2\n              pop\n                /* \"#utility.yul\":632:917   */\n              pop\n                /* \"#utility.yul\":540:917   */\n              swap3\n              swap2\n              pop\n              pop\n              jump\t// out\n                /* \"#utility.yul\":923:1236   */\n            tag_19:\n                /* \"#utility.yul\":1036:1040   */\n              0x00\n                /* \"#utility.yul\":1074:1076   */\n              0x20\n                /* \"#utility.yul\":1063:1072   */\n              dup3\n                /* \"#utility.yul\":1059:1077   */\n              add\n                /* \"#utility.yul\":1051:1077   */\n              swap1\n              pop\n                /* \"#utility.yul\":1123:1132   */\n              dup2\n                /* \"#utility.yul\":1117:1121   */\n              dup2\n                /* \"#utility.yul\":1113:1133   */\n              sub\n                /* \"#utility.yul\":1109:1110   */\n              0x00\n                /* \"#utility.yul\":1098:1107   */\n              dup4\n                /* \"#utility.yul\":1094:1111   */\n              add\n                /* \"#utility.yul\":1087:1134   */\n              mstore\n                /* \"#utility.yul\":1151:1229   */\n              tag_185\n                /* \"#utility.yul\":1224:1228   */\n              dup2\n                /* \"#utility.yul\":1215:1221   */\n              dup5\n                /* \"#utility.yul\":1151:1229   */\n              tag_155\n              jump\t// in\n            tag_185:\n                /* \"#utility.yul\":1143:1229   */\n              swap1\n              pop\n                /* \"#utility.yul\":923:1236   */\n              swap3\n              swap2\n              pop\n              pop\n              jump\t// out\n                /* \"#utility.yul\":1323:1440   */\n            tag_157:\n                /* \"#utility.yul\":1432:1433   */\n              0x00\n                /* \"#utility.yul\":1429:1430   */\n              dup1\n                /* \"#utility.yul\":1422:1434   */\n              revert\n                /* \"#utility.yul\":1569:1695   */\n            tag_159:\n                /* \"#utility.yul\":1606:1613   */\n              0x00\n                /* \"#utility.yul\":1646:1688   */\n              0xffffffffffffffffffffffffffffffffffffffff\n                /* \"#utility.yul\":1639:1644   */\n              dup3\n                /* \"#utility.yul\":1635:1689   */\n              and\n                /* \"#utility.yul\":1624:1689   */\n              swap1\n              pop\n                /* \"#utility.yul\":1569:1695   */\n              swap2\n              swap1\n              pop\n              jump\t// out\n                /* \"#utility.yul\":1701:1797   */\n            tag_160:\n                /* \"#utility.yul\":1738:1745   */\n              0x00\n                /* \"#utility.yul\":1767:1791   */\n              tag_191\n                /* \"#utility.yul\":1785:1790   */\n              dup3\n                /* \"#utility.yul\":1767:1791   */\n              tag_159\n              jump\t// in\n            tag_191:\n                /* \"#utility.yul\":1756:1791   */\n              swap1\n              pop\n                /* \"#utility.yul\":1701:1797   */\n              swap2\n              swap1\n              pop\n              jump\t// out\n                /* \"#utility.yul\":1803:1925   */\n            tag_161:\n                /* \"#utility.yul\":1876:1900   */\n              tag_193\n                /* \"#utility.yul\":1894:1899   */\n              dup2\n                /* \"#utility.yul\":1876:1900   */\n              tag_160\n              jump\t// in\n            tag_193:\n                /* \"#utility.yul\":1869:1874   */\n              dup2\n                /* \"#utility.yul\":1866:1901   */\n              eq\n                /* \"#utility.yul\":1856:1919   */\n              tag_194\n              jumpi\n                /* \"#utility.yul\":1915:1916   */\n              0x00\n                /* \"#utility.yul\":1912:1913   */\n              dup1\n                /* \"#utility.yul\":1905:1917   */\n              revert\n                /* \"#utility.yul\":1856:1919   */\n            tag_194:\n                /* \"#utility.yul\":1803:1925   */\n              pop\n              jump\t// out\n                /* \"#utility.yul\":1931:2070   */\n            tag_162:\n                /* \"#utility.yul\":1977:1982   */\n              0x00\n                /* \"#utility.yul\":2015:2021   */\n              dup2\n                /* \"#utility.yul\":2002:2022   */\n              calldataload\n                /* \"#utility.yul\":1993:2022   */\n              swap1\n              pop\n                /* \"#utility.yul\":2031:2064   */\n              tag_196\n                /* \"#utility.yul\":2058:2063   */\n              dup2\n                /* \"#utility.yul\":2031:2064   */\n              tag_161\n              jump\t// in\n            tag_196:\n                /* \"#utility.yul\":1931:2070   */\n              swap3\n              swap2\n              pop\n              pop\n              jump\t// out\n                /* \"#utility.yul\":2076:2153   */\n            tag_163:\n                /* \"#utility.yul\":2113:2120   */\n              0x00\n                /* \"#utility.yul\":2142:2147   */\n              dup2\n                /* \"#utility.yul\":2131:2147   */\n              swap1\n              pop\n                /* \"#utility.yul\":2076:2153   */\n              swap2\n              swap1\n              pop\n              jump\t// out\n                /* \"#utility.yul\":2159:2281   */\n            tag_164:\n                /* \"#utility.yul\":2232:2256   */\n              tag_199\n                /* \"#utility.yul\":2250:2255   */\n              dup2\n                /* \"#utility.yul\":2232:2256   */\n              tag_163\n              jump\t// in\n            tag_199:\n                /* \"#utility.yul\":2225:2230   */\n              dup2\n                /* \"#utility.yul\":2222:2257   */\n              eq\n                /* \"#utility.yul\":2212:2275   */\n              tag_200\n              jumpi\n                /* \"#utility.yul\":2271:2272   */\n              0x00\n                /* \"#utility.yul\":2268:2269   */\n              dup1\n                /* \"#utility.yul\":2261:2273   */\n              revert\n                /* \"#utility.yul\":2212:2275   */\n            tag_200:\n                /* \"#utility.yul\":2159:2281   */\n              pop\n              jump\t// out\n                /* \"#utility.yul\":2287:2426   */\n            tag_165:\n                /* \"#utility.yul\":2333:2338   */\n              0x00\n                /* \"#utility.yul\":2371:2377   */\n              dup2\n                /* \"#utility.yul\":2358:2378   */\n              calldataload\n                /* \"#utility.yul\":2349:2378   */\n              swap1\n              pop\n                /* \"#utility.yul\":2387:2420   */\n              tag_202\n                /* \"#utility.yul\":2414:2419   */\n              dup2\n                /* \"#utility.yul\":2387:2420   */\n              tag_164\n              jump\t// in\n            tag_202:\n                /* \"#utility.yul\":2287:2426   */\n              swap3\n              swap2\n              pop\n              pop\n              jump\t// out\n                /* \"#utility.yul\":2432:2906   */\n            tag_22:\n                /* \"#utility.yul\":2500:2506   */\n              0x00\n                /* \"#utility.yul\":2508:2514   */\n              dup1\n                /* \"#utility.yul\":2557:2559   */\n              0x40\n                /* \"#utility.yul\":2545:2554   */\n              dup4\n                /* \"#utility.yul\":2536:2543   */\n              dup6\n                /* \"#utility.yul\":2532:2555   */\n              sub\n                /* \"#utility.yul\":2528:2560   */\n              slt\n                /* \"#utility.yul\":2525:2644   */\n              iszero\n              tag_204\n              jumpi\n                /* \"#utility.yul\":2563:2642   */\n              tag_205\n              tag_157\n              jump\t// in\n            tag_205:\n                /* \"#utility.yul\":2525:2644   */\n            tag_204:\n                /* \"#utility.yul\":2683:2684   */\n              0x00\n                /* \"#utility.yul\":2708:2761   */\n              tag_206\n                /* \"#utility.yul\":2753:2760   */\n              dup6\n                /* \"#utility.yul\":2744:2750   */\n              dup3\n                /* \"#utility.yul\":2733:2742   */\n              dup7\n                /* \"#utility.yul\":2729:2751   */\n              add\n                /* \"#utility.yul\":2708:2761   */\n              tag_162\n              jump\t// in\n            tag_206:\n                /* \"#utility.yul\":2698:2761   */\n              swap3\n              pop\n                /* \"#utility.yul\":2654:2771   */\n              pop\n                /* \"#utility.yul\":2810:2812   */\n              0x20\n                /* \"#utility.yul\":2836:2889   */\n              tag_207\n                /* \"#utility.yul\":2881:2888   */\n              dup6\n                /* \"#utility.yul\":2872:2878   */\n              dup3\n                /* \"#utility.yul\":2861:2870   */\n              dup7\n                /* \"#utility.yul\":2857:2879   */\n              add\n                /* \"#utility.yul\":2836:2889   */\n              tag_165\n              jump\t// in\n            tag_207:\n                /* \"#utility.yul\":2826:2889   */\n              swap2\n              pop\n                /* \"#utility.yul\":2781:2899   */\n              pop\n                /* \"#utility.yul\":2432:2906   */\n              swap3\n              pop\n              swap3\n              swap1\n              pop\n              jump\t// out\n                /* \"#utility.yul\":2912:3002   */\n            tag_166:\n                /* \"#utility.yul\":2946:2953   */\n              0x00\n                /* \"#utility.yul\":2989:2994   */\n              dup2\n                /* \"#utility.yul\":2982:2995   */\n              iszero\n                /* \"#utility.yul\":2975:2996   */\n              iszero\n                /* \"#utility.yul\":2964:2996   */\n              swap1\n              pop\n                /* \"#utility.yul\":2912:3002   */\n              swap2\n              swap1\n              pop\n              jump\t// out\n                /* \"#utility.yul\":3008:3117   */\n            tag_167:\n                /* \"#utility.yul\":3089:3110   */\n              tag_210\n                /* \"#utility.yul\":3104:3109   */\n              dup2\n                /* \"#utility.yul\":3089:3110   */\n              tag_166\n              jump\t// in\n            tag_210:\n                /* \"#utility.yul\":3084:3087   */\n              dup3\n                /* \"#utility.yul\":3077:3111   */\n              mstore\n                /* \"#utility.yul\":3008:3117   */\n              pop\n              pop\n              jump\t// out\n                /* \"#utility.yul\":3123:3333   */\n            tag_25:\n                /* \"#utility.yul\":3210:3214   */\n              0x00\n                /* \"#utility.yul\":3248:3250   */\n              0x20\n                /* \"#utility.yul\":3237:3246   */\n              dup3\n                /* \"#utility.yul\":3233:3251   */\n              add\n                /* \"#utility.yul\":3225:3251   */\n              swap1\n              pop\n                /* \"#utility.yul\":3261:3326   */\n              tag_212\n                /* \"#utility.yul\":3323:3324   */\n              0x00\n                /* \"#utility.yul\":3312:3321   */\n              dup4\n                /* \"#utility.yul\":3308:3325   */\n              add\n                /* \"#utility.yul\":3299:3305   */\n              dup5\n                /* \"#utility.yul\":3261:3326   */\n              tag_167\n              jump\t// in\n            tag_212:\n                /* \"#utility.yul\":3123:3333   */\n              swap3\n              swap2\n              pop\n              pop\n              jump\t// out\n                /* \"#utility.yul\":3339:3457   */\n            tag_168:\n                /* \"#utility.yul\":3426:3450   */\n              tag_214\n                /* \"#utility.yul\":3444:3449   */\n              dup2\n                /* \"#utility.yul\":3426:3450   */\n              tag_163\n              jump\t// in\n            tag_214:\n                /* \"#utility.yul\":3421:3424   */\n              dup3\n                /* \"#utility.yul\":3414:3451   */\n              mstore\n                /* \"#utility.yul\":3339:3457   */\n              pop\n              pop\n              jump\t// out\n                /* \"#utility.yul\":3463:3685   */\n            tag_29:\n                /* \"#utility.yul\":3556:3560   */\n              0x00\n                /* \"#utility.yul\":3594:3596   */\n              0x20\n                /* \"#utility.yul\":3583:3592   */\n              dup3\n                /* \"#utility.yul\":3579:3597   */\n              add\n                /* \"#utility.yul\":3571:3597   */\n              swap1\n              pop\n                /* \"#utility.yul\":3607:3678   */\n              tag_216\n                /* \"#utility.yul\":3675:3676   */\n              0x00\n                /* \"#utility.yul\":3664:3673   */\n              dup4\n                /* \"#utility.yul\":3660:3677   */\n              add\n                /* \"#utility.yul\":3651:3657   */\n              dup5\n                /* \"#utility.yul\":3607:3678   */\n              tag_168\n              jump\t// in\n            tag_216:\n                /* \"#utility.yul\":3463:3685   */\n              swap3\n              swap2\n              pop\n              pop\n              jump\t// out\n                /* \"#utility.yul\":3691:4310   */\n            tag_32:\n                /* \"#utility.yul\":3768:3774   */\n              0x00\n                /* \"#utility.yul\":3776:3782   */\n              dup1\n                /* \"#utility.yul\":3784:3790   */\n              0x00\n                /* \"#utility.yul\":3833:3835   */\n              0x60\n                /* \"#utility.yul\":3821:3830   */\n              dup5\n                /* \"#utility.yul\":3812:3819   */\n              dup7\n                /* \"#utility.yul\":3808:3831   */\n              sub\n                /* \"#utility.yul\":3804:3836   */\n              slt\n                /* \"#utility.yul\":3801:3920   */\n              iszero\n              tag_218\n              jumpi\n                /* \"#utility.yul\":3839:3918   */\n              tag_219\n              tag_157\n              jump\t// in\n            tag_219:\n                /* \"#utility.yul\":3801:3920   */\n            tag_218:\n                /* \"#utility.yul\":3959:3960   */\n              0x00\n                /* \"#utility.yul\":3984:4037   */\n              tag_220\n                /* \"#utility.yul\":4029:4036   */\n              dup7\n                /* \"#utility.yul\":4020:4026   */\n              dup3\n                /* \"#utility.yul\":4009:4018   */\n              dup8\n                /* \"#utility.yul\":4005:4027   */\n              add\n                /* \"#utility.yul\":3984:4037   */\n              tag_162\n              jump\t// in\n            tag_220:\n                /* \"#utility.yul\":3974:4037   */\n              swap4\n              pop\n                /* \"#utility.yul\":3930:4047   */\n              pop\n                /* \"#utility.yul\":4086:4088   */\n              0x20\n                /* \"#utility.yul\":4112:4165   */\n              tag_221\n                /* \"#utility.yul\":4157:4164   */\n              dup7\n                /* \"#utility.yul\":4148:4154   */\n              dup3\n                /* \"#utility.yul\":4137:4146   */\n              dup8\n                /* \"#utility.yul\":4133:4155   */\n              add\n                /* \"#utility.yul\":4112:4165   */\n              tag_162\n              jump\t// in\n            tag_221:\n                /* \"#utility.yul\":4102:4165   */\n              swap3\n              pop\n                /* \"#utility.yul\":4057:4175   */\n              pop\n                /* \"#utility.yul\":4214:4216   */\n              0x40\n                /* \"#utility.yul\":4240:4293   */\n              tag_222\n                /* \"#utility.yul\":4285:4292   */\n              dup7\n                /* \"#utility.yul\":4276:4282   */\n              dup3\n                /* \"#utility.yul\":4265:4274   */\n              dup8\n                /* \"#utility.yul\":4261:4283   */\n              add\n                /* \"#utility.yul\":4240:4293   */\n              tag_165\n              jump\t// in\n            tag_222:\n                /* \"#utility.yul\":4230:4293   */\n              swap2\n              pop\n                /* \"#utility.yul\":4185:4303   */\n              pop\n                /* \"#utility.yul\":3691:4310   */\n              swap3\n              pop\n              swap3\n              pop\n              swap3\n              jump\t// out\n                /* \"#utility.yul\":4316:4402   */\n            tag_169:\n                /* \"#utility.yul\":4351:4358   */\n              0x00\n                /* \"#utility.yul\":4391:4395   */\n              0xff\n                /* \"#utility.yul\":4384:4389   */\n              dup3\n                /* \"#utility.yul\":4380:4396   */\n              and\n                /* \"#utility.yul\":4369:4396   */\n              swap1\n              pop\n                /* \"#utility.yul\":4316:4402   */\n              swap2\n              swap1\n              pop\n              jump\t// out\n                /* \"#utility.yul\":4408:4520   */\n            tag_170:\n                /* \"#utility.yul\":4491:4513   */\n              tag_225\n                /* \"#utility.yul\":4507:4512   */\n              dup2\n                /* \"#utility.yul\":4491:4513   */\n              tag_169\n              jump\t// in\n            tag_225:\n                /* \"#utility.yul\":4486:4489   */\n              dup3\n                /* \"#utility.yul\":4479:4514   */\n              mstore\n                /* \"#utility.yul\":4408:4520   */\n              pop\n              pop\n              jump\t// out\n                /* \"#utility.yul\":4526:4740   */\n            tag_38:\n                /* \"#utility.yul\":4615:4619   */\n              0x00\n                /* \"#utility.yul\":4653:4655   */\n              0x20\n                /* \"#utility.yul\":4642:4651   */\n              dup3\n                /* \"#utility.yul\":4638:4656   */\n              add\n                /* \"#utility.yul\":4630:4656   */\n              swap1\n              pop\n                /* \"#utility.yul\":4666:4733   */\n              tag_227\n                /* \"#utility.yul\":4730:4731   */\n              0x00\n                /* \"#utility.yul\":4719:4728   */\n              dup4\n                /* \"#utility.yul\":4715:4732   */\n              add\n                /* \"#utility.yul\":4706:4712   */\n              dup5\n                /* \"#utility.yul\":4666:4733   */\n              tag_170\n              jump\t// in\n            tag_227:\n                /* \"#utility.yul\":4526:4740   */\n              swap3\n              swap2\n              pop\n              pop\n              jump\t// out\n                /* \"#utility.yul\":4746:5075   */\n            tag_41:\n                /* \"#utility.yul\":4805:4811   */\n              0x00\n                /* \"#utility.yul\":4854:4856   */\n              0x20\n                /* \"#utility.yul\":4842:4851   */\n              dup3\n                /* \"#utility.yul\":4833:4840   */\n              dup5\n                /* \"#utility.yul\":4829:4852   */\n              sub\n                /* \"#utility.yul\":4825:4857   */\n              slt\n                /* \"#utility.yul\":4822:4941   */\n              iszero\n              tag_229\n              jumpi\n                /* \"#utility.yul\":4860:4939   */\n              tag_230\n              tag_157\n              jump\t// in\n            tag_230:\n                /* \"#utility.yul\":4822:4941   */\n            tag_229:\n                /* \"#utility.yul\":4980:4981   */\n              0x00\n                /* \"#utility.yul\":5005:5058   */\n              tag_231\n                /* \"#utility.yul\":5050:5057   */\n              dup5\n                /* \"#utility.yul\":5041:5047   */\n              dup3\n                /* \"#utility.yul\":5030:5039   */\n              dup6\n                /* \"#utility.yul\":5026:5048   */\n              add\n                /* \"#utility.yul\":5005:5058   */\n              tag_162\n              jump\t// in\n            tag_231:\n                /* \"#utility.yul\":4995:5058   */\n              swap2\n              pop\n                /* \"#utility.yul\":4951:5068   */\n              pop\n                /* \"#utility.yul\":4746:5075   */\n              swap3\n              swap2\n              pop\n              pop\n              jump\t// out\n                /* \"#utility.yul\":5081:5199   */\n            tag_171:\n                /* \"#utility.yul\":5168:5192   */\n              tag_233\n                /* \"#utility.yul\":5186:5191   */\n              dup2\n                /* \"#utility.yul\":5168:5192   */\n              tag_160\n              jump\t// in\n            tag_233:\n                /* \"#utility.yul\":5163:5166   */\n              dup3\n                /* \"#utility.yul\":5156:5193   */\n              mstore\n                /* \"#utility.yul\":5081:5199   */\n              pop\n              pop\n              jump\t// out\n                /* \"#utility.yul\":5205:5427   */\n            tag_49:\n                /* \"#utility.yul\":5298:5302   */\n              0x00\n                /* \"#utility.yul\":5336:5338   */\n              0x20\n                /* \"#utility.yul\":5325:5334   */\n              dup3\n                /* \"#utility.yul\":5321:5339   */\n              add\n                /* \"#utility.yul\":5313:5339   */\n              swap1\n              pop\n                /* \"#utility.yul\":5349:5420   */\n              tag_235\n                /* \"#utility.yul\":5417:5418   */\n              0x00\n                /* \"#utility.yul\":5406:5415   */\n              dup4\n                /* \"#utility.yul\":5402:5419   */\n              add\n                /* \"#utility.yul\":5393:5399   */\n              dup5\n                /* \"#utility.yul\":5349:5420   */\n              tag_171\n              jump\t// in\n            tag_235:\n                /* \"#utility.yul\":5205:5427   */\n              swap3\n              swap2\n              pop\n              pop\n              jump\t// out\n                /* \"#utility.yul\":5433:5907   */\n            tag_59:\n                /* \"#utility.yul\":5501:5507   */\n              0x00\n                /* \"#utility.yul\":5509:5515   */\n              dup1\n                /* \"#utility.yul\":5558:5560   */\n              0x40\n                /* \"#utility.yul\":5546:5555   */\n              dup4\n                /* \"#utility.yul\":5537:5544   */\n              dup6\n                /* \"#utility.yul\":5533:5556   */\n              sub\n                /* \"#utility.yul\":5529:5561   */\n              slt\n                /* \"#utility.yul\":5526:5645   */\n              iszero\n              tag_237\n              jumpi\n                /* \"#utility.yul\":5564:5643   */\n              tag_238\n              tag_157\n              jump\t// in\n            tag_238:\n                /* \"#utility.yul\":5526:5645   */\n            tag_237:\n                /* \"#utility.yul\":5684:5685   */\n              0x00\n                /* \"#utility.yul\":5709:5762   */\n              tag_239\n                /* \"#utility.yul\":5754:5761   */\n              dup6\n                /* \"#utility.yul\":5745:5751   */\n              dup3\n                /* \"#utility.yul\":5734:5743   */\n              dup7\n                /* \"#utility.yul\":5730:5752   */\n              add\n                /* \"#utility.yul\":5709:5762   */\n              tag_162\n              jump\t// in\n            tag_239:\n                /* \"#utility.yul\":5699:5762   */\n              swap3\n              pop\n                /* \"#utility.yul\":5655:5772   */\n              pop\n                /* \"#utility.yul\":5811:5813   */\n              0x20\n                /* \"#utility.yul\":5837:5890   */\n              tag_240\n                /* \"#utility.yul\":5882:5889   */\n              dup6\n                /* \"#utility.yul\":5873:5879   */\n              dup3\n                /* \"#utility.yul\":5862:5871   */\n              dup7\n                /* \"#utility.yul\":5858:5880   */\n              add\n                /* \"#utility.yul\":5837:5890   */\n              tag_162\n              jump\t// in\n            tag_240:\n                /* \"#utility.yul\":5827:5890   */\n              swap2\n              pop\n                /* \"#utility.yul\":5782:5900   */\n              pop\n                /* \"#utility.yul\":5433:5907   */\n              swap3\n              pop\n              swap3\n              swap1\n              pop\n              jump\t// out\n                /* \"#utility.yul\":5913:6093   */\n            tag_172:\n                /* \"#utility.yul\":5961:6038   */\n              0x4e487b7100000000000000000000000000000000000000000000000000000000\n                /* \"#utility.yul\":5958:5959   */\n              0x00\n                /* \"#utility.yul\":5951:6039   */\n              mstore\n                /* \"#utility.yul\":6058:6062   */\n              0x22\n                /* \"#utility.yul\":6055:6056   */\n              0x04\n                /* \"#utility.yul\":6048:6063   */\n              mstore\n                /* \"#utility.yul\":6082:6086   */\n              0x24\n                /* \"#utility.yul\":6079:6080   */\n              0x00\n                /* \"#utility.yul\":6072:6087   */\n              revert\n                /* \"#utility.yul\":6099:6419   */\n            tag_67:\n                /* \"#utility.yul\":6143:6149   */\n              0x00\n                /* \"#utility.yul\":6180:6181   */\n              0x02\n                /* \"#utility.yul\":6174:6178   */\n              dup3\n                /* \"#utility.yul\":6170:6182   */\n              div\n                /* \"#utility.yul\":6160:6182   */\n              swap1\n              pop\n                /* \"#utility.yul\":6227:6228   */\n              0x01\n                /* \"#utility.yul\":6221:6225   */\n              dup3\n                /* \"#utility.yul\":6217:6229   */\n              and\n                /* \"#utility.yul\":6248:6266   */\n              dup1\n                /* \"#utility.yul\":6238:6319   */\n              tag_243\n              jumpi\n                /* \"#utility.yul\":6304:6308   */\n              0x7f\n                /* \"#utility.yul\":6296:6302   */\n              dup3\n                /* \"#utility.yul\":6292:6309   */\n              and\n                /* \"#utility.yul\":6282:6309   */\n              swap2\n              pop\n                /* \"#utility.yul\":6238:6319   */\n            tag_243:\n                /* \"#utility.yul\":6366:6368   */\n              0x20\n                /* \"#utility.yul\":6358:6364   */\n              dup3\n                /* \"#utility.yul\":6355:6369   */\n              lt\n                /* \"#utility.yul\":6335:6353   */\n              dup2\n                /* \"#utility.yul\":6332:6370   */\n              sub\n                /* \"#utility.yul\":6329:6413   */\n              tag_244\n              jumpi\n                /* \"#utility.yul\":6385:6403   */\n              tag_245\n              tag_172\n              jump\t// in\n            tag_245:\n                /* \"#utility.yul\":6329:6413   */\n            tag_244:\n                /* \"#utility.yul\":6150:6419   */\n              pop\n                /* \"#utility.yul\":6099:6419   */\n              swap2\n              swap1\n              pop\n              jump\t// out\n                /* \"#utility.yul\":6425:6867   */\n            tag_118:\n                /* \"#utility.yul\":6574:6578   */\n              0x00\n                /* \"#utility.yul\":6612:6614   */\n              0x60\n                /* \"#utility.yul\":6601:6610   */\n              dup3\n                /* \"#utility.yul\":6597:6615   */\n              add\n                /* \"#utility.yul\":6589:6615   */\n              swap1\n              pop\n                /* \"#utility.yul\":6625:6696   */\n              tag_247\n                /* \"#utility.yul\":6693:6694   */\n              0x00\n                /* \"#utility.yul\":6682:6691   */\n              dup4\n                /* \"#utility.yul\":6678:6695   */\n              add\n                /* \"#utility.yul\":6669:6675   */\n              dup7\n                /* \"#utility.yul\":6625:6696   */\n              tag_171\n              jump\t// in\n            tag_247:\n                /* \"#utility.yul\":6706:6778   */\n              tag_248\n                /* \"#utility.yul\":6774:6776   */\n              0x20\n                /* \"#utility.yul\":6763:6772   */\n              dup4\n                /* \"#utility.yul\":6759:6777   */\n              add\n                /* \"#utility.yul\":6750:6756   */\n              dup6\n                /* \"#utility.yul\":6706:6778   */\n              tag_168\n              jump\t// in\n            tag_248:\n                /* \"#utility.yul\":6788:6860   */\n              tag_249\n                /* \"#utility.yul\":6856:6858   */\n              0x40\n                /* \"#utility.yul\":6845:6854   */\n              dup4\n                /* \"#utility.yul\":6841:6859   */\n              add\n                /* \"#utility.yul\":6832:6838   */\n              dup5\n                /* \"#utility.yul\":6788:6860   */\n              tag_168\n              jump\t// in\n            tag_249:\n                /* \"#utility.yul\":6425:6867   */\n              swap5\n              swap4\n              pop\n              pop\n              pop\n              pop\n              jump\t// out\n                /* \"#utility.yul\":6873:7053   */\n            tag_173:\n                /* \"#utility.yul\":6921:6998   */\n              0x4e487b7100000000000000000000000000000000000000000000000000000000\n                /* \"#utility.yul\":6918:6919   */\n              0x00\n                /* \"#utility.yul\":6911:6999   */\n              mstore\n                /* \"#utility.yul\":7018:7022   */\n              0x11\n                /* \"#utility.yul\":7015:7016   */\n              0x04\n                /* \"#utility.yul\":7008:7023   */\n              mstore\n                /* \"#utility.yul\":7042:7046   */\n              0x24\n                /* \"#utility.yul\":7039:7040   */\n              0x00\n                /* \"#utility.yul\":7032:7047   */\n              revert\n                /* \"#utility.yul\":7059:7250   */\n            tag_144:\n                /* \"#utility.yul\":7099:7102   */\n              0x00\n                /* \"#utility.yul\":7118:7138   */\n              tag_252\n                /* \"#utility.yul\":7136:7137   */\n              dup3\n                /* \"#utility.yul\":7118:7138   */\n              tag_163\n              jump\t// in\n            tag_252:\n                /* \"#utility.yul\":7113:7138   */\n              swap2\n              pop\n                /* \"#utility.yul\":7152:7172   */\n              tag_253\n                /* \"#utility.yul\":7170:7171   */\n              dup4\n                /* \"#utility.yul\":7152:7172   */\n              tag_163\n              jump\t// in\n            tag_253:\n                /* \"#utility.yul\":7147:7172   */\n              swap3\n              pop\n                /* \"#utility.yul\":7195:7196   */\n              dup3\n                /* \"#utility.yul\":7192:7193   */\n              dup3\n                /* \"#utility.yul\":7188:7197   */\n              add\n                /* \"#utility.yul\":7181:7197   */\n              swap1\n              pop\n                /* \"#utility.yul\":7216:7219   */\n              dup1\n                /* \"#utility.yul\":7213:7214   */\n              dup3\n                /* \"#utility.yul\":7210:7220   */\n              gt\n                /* \"#utility.yul\":7207:7243   */\n              iszero\n              tag_254\n              jumpi\n                /* \"#utility.yul\":7223:7241   */\n              tag_255\n              tag_173\n              jump\t// in\n            tag_255:\n                /* \"#utility.yul\":7207:7243   */\n            tag_254:\n                /* \"#utility.yul\":7059:7250   */\n              swap3\n              swap2\n              pop\n              pop\n              jump\t// out\n\n            auxdata: 0xa2646970667358221220c869219a1d1ab23215d4fc7554551833d20b43e0a03606694b409b5cac313a8864736f6c634300081a0033\n        }\n    }\n\n    auxdata: 0xa26469706673582212205ac6dafa43d2d25d00c477136f1d07fd3e0b0f02ed2c3f3740b3d78885b0d50864736f6c634300081a0033\n}\n",
				"bytecode": {
					"linkReferences": {},
					"object": "6080604052348015600e575f80fd5b506124b98061001c5f395ff3fe608060405234801561000f575f80fd5b5060043610610055575f3560e01c80632a5c792a146100595780635b06053014610077578063d5c71275146100a7578063db3fa4cc146100d7578063ec81aadb14610107575b5f80fd5b610061610137565b60405161006e91906105a6565b60405180910390f35b610091600480360381019061008c9190610746565b6101c1565b60405161009e91906107dd565b60405180910390f35b6100c160048036038101906100bc9190610820565b610368565b6040516100ce91906105a6565b60405180910390f35b6100f160048036038101906100ec919061084b565b610430565b6040516100fe91906107dd565b60405180910390f35b610121600480360381019061011c9190610889565b610478565b60405161012e91906107dd565b60405180910390f35b60605f8054806020026020016040519081016040528092919081815260200182805480156101b757602002820191905f5260205f20905b815f9054906101000a900473ffffffffffffffffffffffffffffffffffffffff1673ffffffffffffffffffffffffffffffffffffffff168152602001906001019080831161016e575b5050505050905090565b5f80848484336040516101d3906104b2565b6101e09493929190610923565b604051809103905ff0801580156101f9573d5f803e3d5ffd5b5090505f81908060018154018082558091505060019003905f5260205f20015f9091909190916101000a81548173ffffffffffffffffffffffffffffffffffffffff021916908373ffffffffffffffffffffffffffffffffffffffff16021790555060015f3373ffffffffffffffffffffffffffffffffffffffff1673ffffffffffffffffffffffffffffffffffffffff1681526020019081526020015f2081908060018154018082558091505060019003905f5260205f20015f9091909190916101000a81548173ffffffffffffffffffffffffffffffffffffffff021916908373ffffffffffffffffffffffffffffffffffffffff1602179055503373ffffffffffffffffffffffffffffffffffffffff168173ffffffffffffffffffffffffffffffffffffffff167f6596c1670eb3390048d23721809c3da5d3f531375ac0e2cab0f77a808ed643318787604051610355929190610974565b60405180910390a3809150509392505050565b606060015f8373ffffffffffffffffffffffffffffffffffffffff1673ffffffffffffffffffffffffffffffffffffffff1681526020019081526020015f2080548060200260200160405190810160405280929190818152602001828054801561042457602002820191905f5260205f20905b815f9054906101000a900473ffffffffffffffffffffffffffffffffffffffff1673ffffffffffffffffffffffffffffffffffffffff16815260200190600101908083116103db575b50505050509050919050565b6001602052815f5260405f208181548110610449575f80fd5b905f5260205f20015f915091509054906101000a900473ffffffffffffffffffffffffffffffffffffffff1681565b5f8181548110610486575f80fd5b905f5260205f20015f915054906101000a900473ffffffffffffffffffffffffffffffffffffffff1681565b611ada806109aa83390190565b5f81519050919050565b5f82825260208201905092915050565b5f819050602082019050919050565b5f73ffffffffffffffffffffffffffffffffffffffff82169050919050565b5f610511826104e8565b9050919050565b61052181610507565b82525050565b5f6105328383610518565b60208301905092915050565b5f602082019050919050565b5f610554826104bf565b61055e81856104c9565b9350610569836104d9565b805f5b838110156105995781516105808882610527565b975061058b8361053e565b92505060018101905061056c565b5085935050505092915050565b5f6020820190508181035f8301526105be818461054a565b905092915050565b5f604051905090565b5f80fd5b5f80fd5b5f80fd5b5f80fd5b5f601f19601f8301169050919050565b7f4e487b71000000000000000000000000000000000000000000000000000000005f52604160045260245ffd5b610625826105df565b810181811067ffffffffffffffff82111715610644576106436105ef565b5b80604052505050565b5f6106566105c6565b9050610662828261061c565b919050565b5f67ffffffffffffffff821115610681576106806105ef565b5b61068a826105df565b9050602081019050919050565b828183375f83830152505050565b5f6106b76106b284610667565b61064d565b9050828152602081018484840111156106d3576106d26105db565b5b6106de848285610697565b509392505050565b5f82601f8301126106fa576106f96105d7565b5b813561070a8482602086016106a5565b91505092915050565b5f819050919050565b61072581610713565b811461072f575f80fd5b50565b5f813590506107408161071c565b92915050565b5f805f6060848603121561075d5761075c6105cf565b5b5f84013567ffffffffffffffff81111561077a576107796105d3565b5b610786868287016106e6565b935050602084013567ffffffffffffffff8111156107a7576107a66105d3565b5b6107b3868287016106e6565b92505060406107c486828701610732565b9150509250925092565b6107d781610507565b82525050565b5f6020820190506107f05f8301846107ce565b92915050565b6107ff81610507565b8114610809575f80fd5b50565b5f8135905061081a816107f6565b92915050565b5f60208284031215610835576108346105cf565b5b5f6108428482850161080c565b91505092915050565b5f8060408385031215610861576108606105cf565b5b5f61086e8582860161080c565b925050602061087f85828601610732565b9150509250929050565b5f6020828403121561089e5761089d6105cf565b5b5f6108ab84828501610732565b91505092915050565b5f81519050919050565b5f82825260208201905092915050565b8281835e5f83830152505050565b5f6108e6826108b4565b6108f081856108be565b93506109008185602086016108ce565b610909816105df565b840191505092915050565b61091d81610713565b82525050565b5f6080820190508181035f83015261093b81876108dc565b9050818103602083015261094f81866108dc565b905061095e6040830185610914565b61096b60608301846107ce565b95945050505050565b5f6040820190508181035f83015261098c81856108dc565b905081810360208301526109a081846108dc565b9050939250505056fe608060405234801561000f575f80fd5b50604051611ada380380611ada8339818101604052810190610031919061062a565b808484816003908161004391906108ca565b50806004908161005391906108ca565b5050505f73ffffffffffffffffffffffffffffffffffffffff168173ffffffffffffffffffffffffffffffffffffffff16036100c6575f6040517f1e4fbdf70000000000000000000000000000000000000000000000000000000081526004016100bd91906109a8565b60405180910390fd5b6100d5816100ef60201b60201c565b506100e681836101b260201b60201c565b50505050610a7e565b5f60055f9054906101000a900473ffffffffffffffffffffffffffffffffffffffff1690508160055f6101000a81548173ffffffffffffffffffffffffffffffffffffffff021916908373ffffffffffffffffffffffffffffffffffffffff1602179055508173ffffffffffffffffffffffffffffffffffffffff168173ffffffffffffffffffffffffffffffffffffffff167f8be0079c531659141344cd1fd0a4f28419497f9722a3daafe3b4186f6b6457e060405160405180910390a35050565b5f73ffffffffffffffffffffffffffffffffffffffff168273ffffffffffffffffffffffffffffffffffffffff1603610222575f6040517fec442f0500000000000000000000000000000000000000000000000000000000815260040161021991906109a8565b60405180910390fd5b6102335f838361023760201b60201c565b5050565b5f73ffffffffffffffffffffffffffffffffffffffff168373ffffffffffffffffffffffffffffffffffffffff1603610287578060025f82825461027b91906109ee565b92505081905550610355565b5f805f8573ffffffffffffffffffffffffffffffffffffffff1673ffffffffffffffffffffffffffffffffffffffff1681526020019081526020015f2054905081811015610310578381836040517fe450d38c00000000000000000000000000000000000000000000000000000000815260040161030793929190610a30565b60405180910390fd5b8181035f808673ffffffffffffffffffffffffffffffffffffffff1673ffffffffffffffffffffffffffffffffffffffff1681526020019081526020015f2081905550505b5f73ffffffffffffffffffffffffffffffffffffffff168273ffffffffffffffffffffffffffffffffffffffff160361039c578060025f82825403925050819055506103e6565b805f808473ffffffffffffffffffffffffffffffffffffffff1673ffffffffffffffffffffffffffffffffffffffff1681526020019081526020015f205f82825401925050819055505b8173ffffffffffffffffffffffffffffffffffffffff168373ffffffffffffffffffffffffffffffffffffffff167fddf252ad1be2c89b69c2b068fc378daa952ba7f163c4a11628f55a4df523b3ef836040516104439190610a65565b60405180910390a3505050565b5f604051905090565b5f80fd5b5f80fd5b5f80fd5b5f80fd5b5f601f19601f8301169050919050565b7f4e487b71000000000000000000000000000000000000000000000000000000005f52604160045260245ffd5b6104af82610469565b810181811067ffffffffffffffff821117156104ce576104cd610479565b5b80604052505050565b5f6104e0610450565b90506104ec82826104a6565b919050565b5f67ffffffffffffffff82111561050b5761050a610479565b5b61051482610469565b9050602081019050919050565b8281835e5f83830152505050565b5f61054161053c846104f1565b6104d7565b90508281526020810184848401111561055d5761055c610465565b5b610568848285610521565b509392505050565b5f82601f83011261058457610583610461565b5b815161059484826020860161052f565b91505092915050565b5f819050919050565b6105af8161059d565b81146105b9575f80fd5b50565b5f815190506105ca816105a6565b92915050565b5f73ffffffffffffffffffffffffffffffffffffffff82169050919050565b5f6105f9826105d0565b9050919050565b610609816105ef565b8114610613575f80fd5b50565b5f8151905061062481610600565b92915050565b5f805f806080858703121561064257610641610459565b5b5f85015167ffffffffffffffff81111561065f5761065e61045d565b5b61066b87828801610570565b945050602085015167ffffffffffffffff81111561068c5761068b61045d565b5b61069887828801610570565b93505060406106a9878288016105bc565b92505060606106ba87828801610616565b91505092959194509250565b5f81519050919050565b7f4e487b71000000000000000000000000000000000000000000000000000000005f52602260045260245ffd5b5f600282049050600182168061071457607f821691505b602082108103610727576107266106d0565b5b50919050565b5f819050815f5260205f209050919050565b5f6020601f8301049050919050565b5f82821b905092915050565b5f600883026107897fffffffffffffffffffffffffffffffffffffffffffffffffffffffffffffffff8261074e565b610793868361074e565b95508019841693508086168417925050509392505050565b5f819050919050565b5f6107ce6107c96107c48461059d565b6107ab565b61059d565b9050919050565b5f819050919050565b6107e7836107b4565b6107fb6107f3826107d5565b84845461075a565b825550505050565b5f90565b61080f610803565b61081a8184846107de565b505050565b5b8181101561083d576108325f82610807565b600181019050610820565b5050565b601f821115610882576108538161072d565b61085c8461073f565b8101602085101561086b578190505b61087f6108778561073f565b83018261081f565b50505b505050565b5f82821c905092915050565b5f6108a25f1984600802610887565b1980831691505092915050565b5f6108ba8383610893565b9150826002028217905092915050565b6108d3826106c6565b67ffffffffffffffff8111156108ec576108eb610479565b5b6108f682546106fd565b610901828285610841565b5f60209050601f831160018114610932575f8415610920578287015190505b61092a85826108af565b865550610991565b601f1984166109408661072d565b5f5b8281101561096757848901518255600182019150602085019450602081019050610942565b868310156109845784890151610980601f891682610893565b8355505b6001600288020188555050505b505050505050565b6109a2816105ef565b82525050565b5f6020820190506109bb5f830184610999565b92915050565b7f4e487b71000000000000000000000000000000000000000000000000000000005f52601160045260245ffd5b5f6109f88261059d565b9150610a038361059d565b9250828201905080821115610a1b57610a1a6109c1565b5b92915050565b610a2a8161059d565b82525050565b5f606082019050610a435f830186610999565b610a506020830185610a21565b610a5d6040830184610a21565b949350505050565b5f602082019050610a785f830184610a21565b92915050565b61104f80610a8b5f395ff3fe608060405234801561000f575f80fd5b50600436106100b2575f3560e01c8063715018a61161006f578063715018a6146101a05780638da5cb5b146101aa57806395d89b41146101c8578063a9059cbb146101e6578063dd62ed3e14610216578063f2fde38b14610246576100b2565b806306fdde03146100b6578063095ea7b3146100d457806318160ddd1461010457806323b872dd14610122578063313ce5671461015257806370a0823114610170575b5f80fd5b6100be610262565b6040516100cb9190610cc8565b60405180910390f35b6100ee60048036038101906100e99190610d79565b6102f2565b6040516100fb9190610dd1565b60405180910390f35b61010c610314565b6040516101199190610df9565b60405180910390f35b61013c60048036038101906101379190610e12565b61031d565b6040516101499190610dd1565b60405180910390f35b61015a61034b565b6040516101679190610e7d565b60405180910390f35b61018a60048036038101906101859190610e96565b610353565b6040516101979190610df9565b60405180910390f35b6101a8610398565b005b6101b26103ab565b6040516101bf9190610ed0565b60405180910390f35b6101d06103d3565b6040516101dd9190610cc8565b60405180910390f35b61020060048036038101906101fb9190610d79565b610463565b60405161020d9190610dd1565b60405180910390f35b610230600480360381019061022b9190610ee9565b610485565b60405161023d9190610df9565b60405180910390f35b610260600480360381019061025b9190610e96565b610507565b005b60606003805461027190610f54565b80601f016020809104026020016040519081016040528092919081815260200182805461029d90610f54565b80156102e85780601f106102bf576101008083540402835291602001916102e8565b820191905f5260205f20905b8154815290600101906020018083116102cb57829003601f168201915b5050505050905090565b5f806102fc61058b565b9050610309818585610592565b600191505092915050565b5f600254905090565b5f8061032761058b565b90506103348582856105a4565b61033f858585610636565b60019150509392505050565b5f6012905090565b5f805f8373ffffffffffffffffffffffffffffffffffffffff1673ffffffffffffffffffffffffffffffffffffffff1681526020019081526020015f20549050919050565b6103a0610726565b6103a95f6107ad565b565b5f60055f9054906101000a900473ffffffffffffffffffffffffffffffffffffffff16905090565b6060600480546103e290610f54565b80601f016020809104026020016040519081016040528092919081815260200182805461040e90610f54565b80156104595780601f1061043057610100808354040283529160200191610459565b820191905f5260205f20905b81548152906001019060200180831161043c57829003601f168201915b5050505050905090565b5f8061046d61058b565b905061047a818585610636565b600191505092915050565b5f60015f8473ffffffffffffffffffffffffffffffffffffffff1673ffffffffffffffffffffffffffffffffffffffff1681526020019081526020015f205f8373ffffffffffffffffffffffffffffffffffffffff1673ffffffffffffffffffffffffffffffffffffffff1681526020019081526020015f2054905092915050565b61050f610726565b5f73ffffffffffffffffffffffffffffffffffffffff168173ffffffffffffffffffffffffffffffffffffffff160361057f575f6040517f1e4fbdf70000000000000000000000000000000000000000000000000000000081526004016105769190610ed0565b60405180910390fd5b610588816107ad565b50565b5f33905090565b61059f8383836001610870565b505050565b5f6105af8484610485565b90507fffffffffffffffffffffffffffffffffffffffffffffffffffffffffffffffff81146106305781811015610621578281836040517ffb8f41b200000000000000000000000000000000000000000000000000000000815260040161061893929190610f84565b60405180910390fd5b61062f84848484035f610870565b5b50505050565b5f73ffffffffffffffffffffffffffffffffffffffff168373ffffffffffffffffffffffffffffffffffffffff16036106a6575f6040517f96c6fd1e00000000000000000000000000000000000000000000000000000000815260040161069d9190610ed0565b60405180910390fd5b5f73ffffffffffffffffffffffffffffffffffffffff168273ffffffffffffffffffffffffffffffffffffffff1603610716575f6040517fec442f0500000000000000000000000000000000000000000000000000000000815260040161070d9190610ed0565b60405180910390fd5b610721838383610a3f565b505050565b61072e61058b565b73ffffffffffffffffffffffffffffffffffffffff1661074c6103ab565b73ffffffffffffffffffffffffffffffffffffffff16146107ab5761076f61058b565b6040517f118cdaa70000000000000000000000000000000000000000000000000000000081526004016107a29190610ed0565b60405180910390fd5b565b5f60055f9054906101000a900473ffffffffffffffffffffffffffffffffffffffff1690508160055f6101000a81548173ffffffffffffffffffffffffffffffffffffffff021916908373ffffffffffffffffffffffffffffffffffffffff1602179055508173ffffffffffffffffffffffffffffffffffffffff168173ffffffffffffffffffffffffffffffffffffffff167f8be0079c531659141344cd1fd0a4f28419497f9722a3daafe3b4186f6b6457e060405160405180910390a35050565b5f73ffffffffffffffffffffffffffffffffffffffff168473ffffffffffffffffffffffffffffffffffffffff16036108e0575f6040517fe602df050000000000000000000000000000000000000000000000000000000081526004016108d79190610ed0565b60405180910390fd5b5f73ffffffffffffffffffffffffffffffffffffffff168373ffffffffffffffffffffffffffffffffffffffff1603610950575f6040517f94280d620000000000000000000000000000000000000000000000000000000081526004016109479190610ed0565b60405180910390fd5b8160015f8673ffffffffffffffffffffffffffffffffffffffff1673ffffffffffffffffffffffffffffffffffffffff1681526020019081526020015f205f8573ffffffffffffffffffffffffffffffffffffffff1673ffffffffffffffffffffffffffffffffffffffff1681526020019081526020015f20819055508015610a39578273ffffffffffffffffffffffffffffffffffffffff168473ffffffffffffffffffffffffffffffffffffffff167f8c5be1e5ebec7d5bd14f71427d1e84f3dd0314c0f7b2291e5b200ac8c7c3b92584604051610a309190610df9565b60405180910390a35b50505050565b5f73ffffffffffffffffffffffffffffffffffffffff168373ffffffffffffffffffffffffffffffffffffffff1603610a8f578060025f828254610a839190610fe6565b92505081905550610b5d565b5f805f8573ffffffffffffffffffffffffffffffffffffffff1673ffffffffffffffffffffffffffffffffffffffff1681526020019081526020015f2054905081811015610b18578381836040517fe450d38c000000000000000000000000000000000000000000000000000000008152600401610b0f93929190610f84565b60405180910390fd5b8181035f808673ffffffffffffffffffffffffffffffffffffffff1673ffffffffffffffffffffffffffffffffffffffff1681526020019081526020015f2081905550505b5f73ffffffffffffffffffffffffffffffffffffffff168273ffffffffffffffffffffffffffffffffffffffff1603610ba4578060025f8282540392505081905550610bee565b805f808473ffffffffffffffffffffffffffffffffffffffff1673ffffffffffffffffffffffffffffffffffffffff1681526020019081526020015f205f82825401925050819055505b8173ffffffffffffffffffffffffffffffffffffffff168373ffffffffffffffffffffffffffffffffffffffff167fddf252ad1be2c89b69c2b068fc378daa952ba7f163c4a11628f55a4df523b3ef83604051610c4b9190610df9565b60405180910390a3505050565b5f81519050919050565b5f82825260208201905092915050565b8281835e5f83830152505050565b5f601f19601f8301169050919050565b5f610c9a82610c58565b610ca48185610c62565b9350610cb4818560208601610c72565b610cbd81610c80565b840191505092915050565b5f6020820190508181035f830152610ce08184610c90565b905092915050565b5f80fd5b5f73ffffffffffffffffffffffffffffffffffffffff82169050919050565b5f610d1582610cec565b9050919050565b610d2581610d0b565b8114610d2f575f80fd5b50565b5f81359050610d4081610d1c565b92915050565b5f819050919050565b610d5881610d46565b8114610d62575f80fd5b50565b5f81359050610d7381610d4f565b92915050565b5f8060408385031215610d8f57610d8e610ce8565b5b5f610d9c85828601610d32565b9250506020610dad85828601610d65565b9150509250929050565b5f8115159050919050565b610dcb81610db7565b82525050565b5f602082019050610de45f830184610dc2565b92915050565b610df381610d46565b82525050565b5f602082019050610e0c5f830184610dea565b92915050565b5f805f60608486031215610e2957610e28610ce8565b5b5f610e3686828701610d32565b9350506020610e4786828701610d32565b9250506040610e5886828701610d65565b9150509250925092565b5f60ff82169050919050565b610e7781610e62565b82525050565b5f602082019050610e905f830184610e6e565b92915050565b5f60208284031215610eab57610eaa610ce8565b5b5f610eb884828501610d32565b91505092915050565b610eca81610d0b565b82525050565b5f602082019050610ee35f830184610ec1565b92915050565b5f8060408385031215610eff57610efe610ce8565b5b5f610f0c85828601610d32565b9250506020610f1d85828601610d32565b9150509250929050565b7f4e487b71000000000000000000000000000000000000000000000000000000005f52602260045260245ffd5b5f6002820490506001821680610f6b57607f821691505b602082108103610f7e57610f7d610f27565b5b50919050565b5f606082019050610f975f830186610ec1565b610fa46020830185610dea565b610fb16040830184610dea565b949350505050565b7f4e487b71000000000000000000000000000000000000000000000000000000005f52601160045260245ffd5b5f610ff082610d46565b9150610ffb83610d46565b925082820190508082111561101357611012610fb9565b5b9291505056fea2646970667358221220c869219a1d1ab23215d4fc7554551833d20b43e0a03606694b409b5cac313a8864736f6c634300081a0033a26469706673582212205ac6dafa43d2d25d00c477136f1d07fd3e0b0f02ed2c3f3740b3d78885b0d50864736f6c634300081a0033",
					"opcodes": "PUSH1 0x80 PUSH1 0x40 MSTORE CALLVALUE DUP1 ISZERO PUSH1 0xE JUMPI PUSH0 DUP1 REVERT JUMPDEST POP PUSH2 0x24B9 DUP1 PUSH2 0x1C PUSH0 CODECOPY PUSH0 RETURN INVALID PUSH1 0x80 PUSH1 0x40 MSTORE CALLVALUE DUP1 ISZERO PUSH2 0xF JUMPI PUSH0 DUP1 REVERT JUMPDEST POP PUSH1 0x4 CALLDATASIZE LT PUSH2 0x55 JUMPI PUSH0 CALLDATALOAD PUSH1 0xE0 SHR DUP1 PUSH4 0x2A5C792A EQ PUSH2 0x59 JUMPI DUP1 PUSH4 0x5B060530 EQ PUSH2 0x77 JUMPI DUP1 PUSH4 0xD5C71275 EQ PUSH2 0xA7 JUMPI DUP1 PUSH4 0xDB3FA4CC EQ PUSH2 0xD7 JUMPI DUP1 PUSH4 0xEC81AADB EQ PUSH2 0x107 JUMPI JUMPDEST PUSH0 DUP1 REVERT JUMPDEST PUSH2 0x61 PUSH2 0x137 JUMP JUMPDEST PUSH1 0x40 MLOAD PUSH2 0x6E SWAP2 SWAP1 PUSH2 0x5A6 JUMP JUMPDEST PUSH1 0x40 MLOAD DUP1 SWAP2 SUB SWAP1 RETURN JUMPDEST PUSH2 0x91 PUSH1 0x4 DUP1 CALLDATASIZE SUB DUP2 ADD SWAP1 PUSH2 0x8C SWAP2 SWAP1 PUSH2 0x746 JUMP JUMPDEST PUSH2 0x1C1 JUMP JUMPDEST PUSH1 0x40 MLOAD PUSH2 0x9E SWAP2 SWAP1 PUSH2 0x7DD JUMP JUMPDEST PUSH1 0x40 MLOAD DUP1 SWAP2 SUB SWAP1 RETURN JUMPDEST PUSH2 0xC1 PUSH1 0x4 DUP1 CALLDATASIZE SUB DUP2 ADD SWAP1 PUSH2 0xBC SWAP2 SWAP1 PUSH2 0x820 JUMP JUMPDEST PUSH2 0x368 JUMP JUMPDEST PUSH1 0x40 MLOAD PUSH2 0xCE SWAP2 SWAP1 PUSH2 0x5A6 JUMP JUMPDEST PUSH1 0x40 MLOAD DUP1 SWAP2 SUB SWAP1 RETURN JUMPDEST PUSH2 0xF1 PUSH1 0x4 DUP1 CALLDATASIZE SUB DUP2 ADD SWAP1 PUSH2 0xEC SWAP2 SWAP1 PUSH2 0x84B JUMP JUMPDEST PUSH2 0x430 JUMP JUMPDEST PUSH1 0x40 MLOAD PUSH2 0xFE SWAP2 SWAP1 PUSH2 0x7DD JUMP JUMPDEST PUSH1 0x40 MLOAD DUP1 SWAP2 SUB SWAP1 RETURN JUMPDEST PUSH2 0x121 PUSH1 0x4 DUP1 CALLDATASIZE SUB DUP2 ADD SWAP1 PUSH2 0x11C SWAP2 SWAP1 PUSH2 0x889 JUMP JUMPDEST PUSH2 0x478 JUMP JUMPDEST PUSH1 0x40 MLOAD PUSH2 0x12E SWAP2 SWAP1 PUSH2 0x7DD JUMP JUMPDEST PUSH1 0x40 MLOAD DUP1 SWAP2 SUB SWAP1 RETURN JUMPDEST PUSH1 0x60 PUSH0 DUP1 SLOAD DUP1 PUSH1 0x20 MUL PUSH1 0x20 ADD PUSH1 0x40 MLOAD SWAP1 DUP2 ADD PUSH1 0x40 MSTORE DUP1 SWAP3 SWAP2 SWAP1 DUP2 DUP2 MSTORE PUSH1 0x20 ADD DUP3 DUP1 SLOAD DUP1 ISZERO PUSH2 0x1B7 JUMPI PUSH1 0x20 MUL DUP3 ADD SWAP2 SWAP1 PUSH0 MSTORE PUSH1 0x20 PUSH0 KECCAK256 SWAP1 JUMPDEST DUP2 PUSH0 SWAP1 SLOAD SWAP1 PUSH2 0x100 EXP SWAP1 DIV PUSH20 0xFFFFFFFFFFFFFFFFFFFFFFFFFFFFFFFFFFFFFFFF AND PUSH20 0xFFFFFFFFFFFFFFFFFFFFFFFFFFFFFFFFFFFFFFFF AND DUP2 MSTORE PUSH1 0x20 ADD SWAP1 PUSH1 0x1 ADD SWAP1 DUP1 DUP4 GT PUSH2 0x16E JUMPI JUMPDEST POP POP POP POP POP SWAP1 POP SWAP1 JUMP JUMPDEST PUSH0 DUP1 DUP5 DUP5 DUP5 CALLER PUSH1 0x40 MLOAD PUSH2 0x1D3 SWAP1 PUSH2 0x4B2 JUMP JUMPDEST PUSH2 0x1E0 SWAP5 SWAP4 SWAP3 SWAP2 SWAP1 PUSH2 0x923 JUMP JUMPDEST PUSH1 0x40 MLOAD DUP1 SWAP2 SUB SWAP1 PUSH0 CREATE DUP1 ISZERO DUP1 ISZERO PUSH2 0x1F9 JUMPI RETURNDATASIZE PUSH0 DUP1 RETURNDATACOPY RETURNDATASIZE PUSH0 REVERT JUMPDEST POP SWAP1 POP PUSH0 DUP2 SWAP1 DUP1 PUSH1 0x1 DUP2 SLOAD ADD DUP1 DUP3 SSTORE DUP1 SWAP2 POP POP PUSH1 0x1 SWAP1 SUB SWAP1 PUSH0 MSTORE PUSH1 0x20 PUSH0 KECCAK256 ADD PUSH0 SWAP1 SWAP2 SWAP1 SWAP2 SWAP1 SWAP2 PUSH2 0x100 EXP DUP2 SLOAD DUP2 PUSH20 0xFFFFFFFFFFFFFFFFFFFFFFFFFFFFFFFFFFFFFFFF MUL NOT AND SWAP1 DUP4 PUSH20 0xFFFFFFFFFFFFFFFFFFFFFFFFFFFFFFFFFFFFFFFF AND MUL OR SWAP1 SSTORE POP PUSH1 0x1 PUSH0 CALLER PUSH20 0xFFFFFFFFFFFFFFFFFFFFFFFFFFFFFFFFFFFFFFFF AND PUSH20 0xFFFFFFFFFFFFFFFFFFFFFFFFFFFFFFFFFFFFFFFF AND DUP2 MSTORE PUSH1 0x20 ADD SWAP1 DUP2 MSTORE PUSH1 0x20 ADD PUSH0 KECCAK256 DUP2 SWAP1 DUP1 PUSH1 0x1 DUP2 SLOAD ADD DUP1 DUP3 SSTORE DUP1 SWAP2 POP POP PUSH1 0x1 SWAP1 SUB SWAP1 PUSH0 MSTORE PUSH1 0x20 PUSH0 KECCAK256 ADD PUSH0 SWAP1 SWAP2 SWAP1 SWAP2 SWAP1 SWAP2 PUSH2 0x100 EXP DUP2 SLOAD DUP2 PUSH20 0xFFFFFFFFFFFFFFFFFFFFFFFFFFFFFFFFFFFFFFFF MUL NOT AND SWAP1 DUP4 PUSH20 0xFFFFFFFFFFFFFFFFFFFFFFFFFFFFFFFFFFFFFFFF AND MUL OR SWAP1 SSTORE POP CALLER PUSH20 0xFFFFFFFFFFFFFFFFFFFFFFFFFFFFFFFFFFFFFFFF AND DUP2 PUSH20 0xFFFFFFFFFFFFFFFFFFFFFFFFFFFFFFFFFFFFFFFF AND PUSH32 0x6596C1670EB3390048D23721809C3DA5D3F531375AC0E2CAB0F77A808ED64331 DUP8 DUP8 PUSH1 0x40 MLOAD PUSH2 0x355 SWAP3 SWAP2 SWAP1 PUSH2 0x974 JUMP JUMPDEST PUSH1 0x40 MLOAD DUP1 SWAP2 SUB SWAP1 LOG3 DUP1 SWAP2 POP POP SWAP4 SWAP3 POP POP POP JUMP JUMPDEST PUSH1 0x60 PUSH1 0x1 PUSH0 DUP4 PUSH20 0xFFFFFFFFFFFFFFFFFFFFFFFFFFFFFFFFFFFFFFFF AND PUSH20 0xFFFFFFFFFFFFFFFFFFFFFFFFFFFFFFFFFFFFFFFF AND DUP2 MSTORE PUSH1 0x20 ADD SWAP1 DUP2 MSTORE PUSH1 0x20 ADD PUSH0 KECCAK256 DUP1 SLOAD DUP1 PUSH1 0x20 MUL PUSH1 0x20 ADD PUSH1 0x40 MLOAD SWAP1 DUP2 ADD PUSH1 0x40 MSTORE DUP1 SWAP3 SWAP2 SWAP1 DUP2 DUP2 MSTORE PUSH1 0x20 ADD DUP3 DUP1 SLOAD DUP1 ISZERO PUSH2 0x424 JUMPI PUSH1 0x20 MUL DUP3 ADD SWAP2 SWAP1 PUSH0 MSTORE PUSH1 0x20 PUSH0 KECCAK256 SWAP1 JUMPDEST DUP2 PUSH0 SWAP1 SLOAD SWAP1 PUSH2 0x100 EXP SWAP1 DIV PUSH20 0xFFFFFFFFFFFFFFFFFFFFFFFFFFFFFFFFFFFFFFFF AND PUSH20 0xFFFFFFFFFFFFFFFFFFFFFFFFFFFFFFFFFFFFFFFF AND DUP2 MSTORE PUSH1 0x20 ADD SWAP1 PUSH1 0x1 ADD SWAP1 DUP1 DUP4 GT PUSH2 0x3DB JUMPI JUMPDEST POP POP POP POP POP SWAP1 POP SWAP2 SWAP1 POP JUMP JUMPDEST PUSH1 0x1 PUSH1 0x20 MSTORE DUP2 PUSH0 MSTORE PUSH1 0x40 PUSH0 KECCAK256 DUP2 DUP2 SLOAD DUP2 LT PUSH2 0x449 JUMPI PUSH0 DUP1 REVERT JUMPDEST SWAP1 PUSH0 MSTORE PUSH1 0x20 PUSH0 KECCAK256 ADD PUSH0 SWAP2 POP SWAP2 POP SWAP1 SLOAD SWAP1 PUSH2 0x100 EXP SWAP1 DIV PUSH20 0xFFFFFFFFFFFFFFFFFFFFFFFFFFFFFFFFFFFFFFFF AND DUP2 JUMP JUMPDEST PUSH0 DUP2 DUP2 SLOAD DUP2 LT PUSH2 0x486 JUMPI PUSH0 DUP1 REVERT JUMPDEST SWAP1 PUSH0 MSTORE PUSH1 0x20 PUSH0 KECCAK256 ADD PUSH0 SWAP2 POP SLOAD SWAP1 PUSH2 0x100 EXP SWAP1 DIV PUSH20 0xFFFFFFFFFFFFFFFFFFFFFFFFFFFFFFFFFFFFFFFF AND DUP2 JUMP JUMPDEST PUSH2 0x1ADA DUP1 PUSH2 0x9AA DUP4 CODECOPY ADD SWAP1 JUMP JUMPDEST PUSH0 DUP2 MLOAD SWAP1 POP SWAP2 SWAP1 POP JUMP JUMPDEST PUSH0 DUP3 DUP3 MSTORE PUSH1 0x20 DUP3 ADD SWAP1 POP SWAP3 SWAP2 POP POP JUMP JUMPDEST PUSH0 DUP2 SWAP1 POP PUSH1 0x20 DUP3 ADD SWAP1 POP SWAP2 SWAP1 POP JUMP JUMPDEST PUSH0 PUSH20 0xFFFFFFFFFFFFFFFFFFFFFFFFFFFFFFFFFFFFFFFF DUP3 AND SWAP1 POP SWAP2 SWAP1 POP JUMP JUMPDEST PUSH0 PUSH2 0x511 DUP3 PUSH2 0x4E8 JUMP JUMPDEST SWAP1 POP SWAP2 SWAP1 POP JUMP JUMPDEST PUSH2 0x521 DUP2 PUSH2 0x507 JUMP JUMPDEST DUP3 MSTORE POP POP JUMP JUMPDEST PUSH0 PUSH2 0x532 DUP4 DUP4 PUSH2 0x518 JUMP JUMPDEST PUSH1 0x20 DUP4 ADD SWAP1 POP SWAP3 SWAP2 POP POP JUMP JUMPDEST PUSH0 PUSH1 0x20 DUP3 ADD SWAP1 POP SWAP2 SWAP1 POP JUMP JUMPDEST PUSH0 PUSH2 0x554 DUP3 PUSH2 0x4BF JUMP JUMPDEST PUSH2 0x55E DUP2 DUP6 PUSH2 0x4C9 JUMP JUMPDEST SWAP4 POP PUSH2 0x569 DUP4 PUSH2 0x4D9 JUMP JUMPDEST DUP1 PUSH0 JUMPDEST DUP4 DUP2 LT ISZERO PUSH2 0x599 JUMPI DUP2 MLOAD PUSH2 0x580 DUP9 DUP3 PUSH2 0x527 JUMP JUMPDEST SWAP8 POP PUSH2 0x58B DUP4 PUSH2 0x53E JUMP JUMPDEST SWAP3 POP POP PUSH1 0x1 DUP2 ADD SWAP1 POP PUSH2 0x56C JUMP JUMPDEST POP DUP6 SWAP4 POP POP POP POP SWAP3 SWAP2 POP POP JUMP JUMPDEST PUSH0 PUSH1 0x20 DUP3 ADD SWAP1 POP DUP2 DUP2 SUB PUSH0 DUP4 ADD MSTORE PUSH2 0x5BE DUP2 DUP5 PUSH2 0x54A JUMP JUMPDEST SWAP1 POP SWAP3 SWAP2 POP POP JUMP JUMPDEST PUSH0 PUSH1 0x40 MLOAD SWAP1 POP SWAP1 JUMP JUMPDEST PUSH0 DUP1 REVERT JUMPDEST PUSH0 DUP1 REVERT JUMPDEST PUSH0 DUP1 REVERT JUMPDEST PUSH0 DUP1 REVERT JUMPDEST PUSH0 PUSH1 0x1F NOT PUSH1 0x1F DUP4 ADD AND SWAP1 POP SWAP2 SWAP1 POP JUMP JUMPDEST PUSH32 0x4E487B7100000000000000000000000000000000000000000000000000000000 PUSH0 MSTORE PUSH1 0x41 PUSH1 0x4 MSTORE PUSH1 0x24 PUSH0 REVERT JUMPDEST PUSH2 0x625 DUP3 PUSH2 0x5DF JUMP JUMPDEST DUP2 ADD DUP2 DUP2 LT PUSH8 0xFFFFFFFFFFFFFFFF DUP3 GT OR ISZERO PUSH2 0x644 JUMPI PUSH2 0x643 PUSH2 0x5EF JUMP JUMPDEST JUMPDEST DUP1 PUSH1 0x40 MSTORE POP POP POP JUMP JUMPDEST PUSH0 PUSH2 0x656 PUSH2 0x5C6 JUMP JUMPDEST SWAP1 POP PUSH2 0x662 DUP3 DUP3 PUSH2 0x61C JUMP JUMPDEST SWAP2 SWAP1 POP JUMP JUMPDEST PUSH0 PUSH8 0xFFFFFFFFFFFFFFFF DUP3 GT ISZERO PUSH2 0x681 JUMPI PUSH2 0x680 PUSH2 0x5EF JUMP JUMPDEST JUMPDEST PUSH2 0x68A DUP3 PUSH2 0x5DF JUMP JUMPDEST SWAP1 POP PUSH1 0x20 DUP2 ADD SWAP1 POP SWAP2 SWAP1 POP JUMP JUMPDEST DUP3 DUP2 DUP4 CALLDATACOPY PUSH0 DUP4 DUP4 ADD MSTORE POP POP POP JUMP JUMPDEST PUSH0 PUSH2 0x6B7 PUSH2 0x6B2 DUP5 PUSH2 0x667 JUMP JUMPDEST PUSH2 0x64D JUMP JUMPDEST SWAP1 POP DUP3 DUP2 MSTORE PUSH1 0x20 DUP2 ADD DUP5 DUP5 DUP5 ADD GT ISZERO PUSH2 0x6D3 JUMPI PUSH2 0x6D2 PUSH2 0x5DB JUMP JUMPDEST JUMPDEST PUSH2 0x6DE DUP5 DUP3 DUP6 PUSH2 0x697 JUMP JUMPDEST POP SWAP4 SWAP3 POP POP POP JUMP JUMPDEST PUSH0 DUP3 PUSH1 0x1F DUP4 ADD SLT PUSH2 0x6FA JUMPI PUSH2 0x6F9 PUSH2 0x5D7 JUMP JUMPDEST JUMPDEST DUP2 CALLDATALOAD PUSH2 0x70A DUP5 DUP3 PUSH1 0x20 DUP7 ADD PUSH2 0x6A5 JUMP JUMPDEST SWAP2 POP POP SWAP3 SWAP2 POP POP JUMP JUMPDEST PUSH0 DUP2 SWAP1 POP SWAP2 SWAP1 POP JUMP JUMPDEST PUSH2 0x725 DUP2 PUSH2 0x713 JUMP JUMPDEST DUP2 EQ PUSH2 0x72F JUMPI PUSH0 DUP1 REVERT JUMPDEST POP JUMP JUMPDEST PUSH0 DUP2 CALLDATALOAD SWAP1 POP PUSH2 0x740 DUP2 PUSH2 0x71C JUMP JUMPDEST SWAP3 SWAP2 POP POP JUMP JUMPDEST PUSH0 DUP1 PUSH0 PUSH1 0x60 DUP5 DUP7 SUB SLT ISZERO PUSH2 0x75D JUMPI PUSH2 0x75C PUSH2 0x5CF JUMP JUMPDEST JUMPDEST PUSH0 DUP5 ADD CALLDATALOAD PUSH8 0xFFFFFFFFFFFFFFFF DUP2 GT ISZERO PUSH2 0x77A JUMPI PUSH2 0x779 PUSH2 0x5D3 JUMP JUMPDEST JUMPDEST PUSH2 0x786 DUP7 DUP3 DUP8 ADD PUSH2 0x6E6 JUMP JUMPDEST SWAP4 POP POP PUSH1 0x20 DUP5 ADD CALLDATALOAD PUSH8 0xFFFFFFFFFFFFFFFF DUP2 GT ISZERO PUSH2 0x7A7 JUMPI PUSH2 0x7A6 PUSH2 0x5D3 JUMP JUMPDEST JUMPDEST PUSH2 0x7B3 DUP7 DUP3 DUP8 ADD PUSH2 0x6E6 JUMP JUMPDEST SWAP3 POP POP PUSH1 0x40 PUSH2 0x7C4 DUP7 DUP3 DUP8 ADD PUSH2 0x732 JUMP JUMPDEST SWAP2 POP POP SWAP3 POP SWAP3 POP SWAP3 JUMP JUMPDEST PUSH2 0x7D7 DUP2 PUSH2 0x507 JUMP JUMPDEST DUP3 MSTORE POP POP JUMP JUMPDEST PUSH0 PUSH1 0x20 DUP3 ADD SWAP1 POP PUSH2 0x7F0 PUSH0 DUP4 ADD DUP5 PUSH2 0x7CE JUMP JUMPDEST SWAP3 SWAP2 POP POP JUMP JUMPDEST PUSH2 0x7FF DUP2 PUSH2 0x507 JUMP JUMPDEST DUP2 EQ PUSH2 0x809 JUMPI PUSH0 DUP1 REVERT JUMPDEST POP JUMP JUMPDEST PUSH0 DUP2 CALLDATALOAD SWAP1 POP PUSH2 0x81A DUP2 PUSH2 0x7F6 JUMP JUMPDEST SWAP3 SWAP2 POP POP JUMP JUMPDEST PUSH0 PUSH1 0x20 DUP3 DUP5 SUB SLT ISZERO PUSH2 0x835 JUMPI PUSH2 0x834 PUSH2 0x5CF JUMP JUMPDEST JUMPDEST PUSH0 PUSH2 0x842 DUP5 DUP3 DUP6 ADD PUSH2 0x80C JUMP JUMPDEST SWAP2 POP POP SWAP3 SWAP2 POP POP JUMP JUMPDEST PUSH0 DUP1 PUSH1 0x40 DUP4 DUP6 SUB SLT ISZERO PUSH2 0x861 JUMPI PUSH2 0x860 PUSH2 0x5CF JUMP JUMPDEST JUMPDEST PUSH0 PUSH2 0x86E DUP6 DUP3 DUP7 ADD PUSH2 0x80C JUMP JUMPDEST SWAP3 POP POP PUSH1 0x20 PUSH2 0x87F DUP6 DUP3 DUP7 ADD PUSH2 0x732 JUMP JUMPDEST SWAP2 POP POP SWAP3 POP SWAP3 SWAP1 POP JUMP JUMPDEST PUSH0 PUSH1 0x20 DUP3 DUP5 SUB SLT ISZERO PUSH2 0x89E JUMPI PUSH2 0x89D PUSH2 0x5CF JUMP JUMPDEST JUMPDEST PUSH0 PUSH2 0x8AB DUP5 DUP3 DUP6 ADD PUSH2 0x732 JUMP JUMPDEST SWAP2 POP POP SWAP3 SWAP2 POP POP JUMP JUMPDEST PUSH0 DUP2 MLOAD SWAP1 POP SWAP2 SWAP1 POP JUMP JUMPDEST PUSH0 DUP3 DUP3 MSTORE PUSH1 0x20 DUP3 ADD SWAP1 POP SWAP3 SWAP2 POP POP JUMP JUMPDEST DUP3 DUP2 DUP4 MCOPY PUSH0 DUP4 DUP4 ADD MSTORE POP POP POP JUMP JUMPDEST PUSH0 PUSH2 0x8E6 DUP3 PUSH2 0x8B4 JUMP JUMPDEST PUSH2 0x8F0 DUP2 DUP6 PUSH2 0x8BE JUMP JUMPDEST SWAP4 POP PUSH2 0x900 DUP2 DUP6 PUSH1 0x20 DUP7 ADD PUSH2 0x8CE JUMP JUMPDEST PUSH2 0x909 DUP2 PUSH2 0x5DF JUMP JUMPDEST DUP5 ADD SWAP2 POP POP SWAP3 SWAP2 POP POP JUMP JUMPDEST PUSH2 0x91D DUP2 PUSH2 0x713 JUMP JUMPDEST DUP3 MSTORE POP POP JUMP JUMPDEST PUSH0 PUSH1 0x80 DUP3 ADD SWAP1 POP DUP2 DUP2 SUB PUSH0 DUP4 ADD MSTORE PUSH2 0x93B DUP2 DUP8 PUSH2 0x8DC JUMP JUMPDEST SWAP1 POP DUP2 DUP2 SUB PUSH1 0x20 DUP4 ADD MSTORE PUSH2 0x94F DUP2 DUP7 PUSH2 0x8DC JUMP JUMPDEST SWAP1 POP PUSH2 0x95E PUSH1 0x40 DUP4 ADD DUP6 PUSH2 0x914 JUMP JUMPDEST PUSH2 0x96B PUSH1 0x60 DUP4 ADD DUP5 PUSH2 0x7CE JUMP JUMPDEST SWAP6 SWAP5 POP POP POP POP POP JUMP JUMPDEST PUSH0 PUSH1 0x40 DUP3 ADD SWAP1 POP DUP2 DUP2 SUB PUSH0 DUP4 ADD MSTORE PUSH2 0x98C DUP2 DUP6 PUSH2 0x8DC JUMP JUMPDEST SWAP1 POP DUP2 DUP2 SUB PUSH1 0x20 DUP4 ADD MSTORE PUSH2 0x9A0 DUP2 DUP5 PUSH2 0x8DC JUMP JUMPDEST SWAP1 POP SWAP4 SWAP3 POP POP POP JUMP INVALID PUSH1 0x80 PUSH1 0x40 MSTORE CALLVALUE DUP1 ISZERO PUSH2 0xF JUMPI PUSH0 DUP1 REVERT JUMPDEST POP PUSH1 0x40 MLOAD PUSH2 0x1ADA CODESIZE SUB DUP1 PUSH2 0x1ADA DUP4 CODECOPY DUP2 DUP2 ADD PUSH1 0x40 MSTORE DUP2 ADD SWAP1 PUSH2 0x31 SWAP2 SWAP1 PUSH2 0x62A JUMP JUMPDEST DUP1 DUP5 DUP5 DUP2 PUSH1 0x3 SWAP1 DUP2 PUSH2 0x43 SWAP2 SWAP1 PUSH2 0x8CA JUMP JUMPDEST POP DUP1 PUSH1 0x4 SWAP1 DUP2 PUSH2 0x53 SWAP2 SWAP1 PUSH2 0x8CA JUMP JUMPDEST POP POP POP PUSH0 PUSH20 0xFFFFFFFFFFFFFFFFFFFFFFFFFFFFFFFFFFFFFFFF AND DUP2 PUSH20 0xFFFFFFFFFFFFFFFFFFFFFFFFFFFFFFFFFFFFFFFF AND SUB PUSH2 0xC6 JUMPI PUSH0 PUSH1 0x40 MLOAD PUSH32 0x1E4FBDF700000000000000000000000000000000000000000000000000000000 DUP2 MSTORE PUSH1 0x4 ADD PUSH2 0xBD SWAP2 SWAP1 PUSH2 0x9A8 JUMP JUMPDEST PUSH1 0x40 MLOAD DUP1 SWAP2 SUB SWAP1 REVERT JUMPDEST PUSH2 0xD5 DUP2 PUSH2 0xEF PUSH1 0x20 SHL PUSH1 0x20 SHR JUMP JUMPDEST POP PUSH2 0xE6 DUP2 DUP4 PUSH2 0x1B2 PUSH1 0x20 SHL PUSH1 0x20 SHR JUMP JUMPDEST POP POP POP POP PUSH2 0xA7E JUMP JUMPDEST PUSH0 PUSH1 0x5 PUSH0 SWAP1 SLOAD SWAP1 PUSH2 0x100 EXP SWAP1 DIV PUSH20 0xFFFFFFFFFFFFFFFFFFFFFFFFFFFFFFFFFFFFFFFF AND SWAP1 POP DUP2 PUSH1 0x5 PUSH0 PUSH2 0x100 EXP DUP2 SLOAD DUP2 PUSH20 0xFFFFFFFFFFFFFFFFFFFFFFFFFFFFFFFFFFFFFFFF MUL NOT AND SWAP1 DUP4 PUSH20 0xFFFFFFFFFFFFFFFFFFFFFFFFFFFFFFFFFFFFFFFF AND MUL OR SWAP1 SSTORE POP DUP2 PUSH20 0xFFFFFFFFFFFFFFFFFFFFFFFFFFFFFFFFFFFFFFFF AND DUP2 PUSH20 0xFFFFFFFFFFFFFFFFFFFFFFFFFFFFFFFFFFFFFFFF AND PUSH32 0x8BE0079C531659141344CD1FD0A4F28419497F9722A3DAAFE3B4186F6B6457E0 PUSH1 0x40 MLOAD PUSH1 0x40 MLOAD DUP1 SWAP2 SUB SWAP1 LOG3 POP POP JUMP JUMPDEST PUSH0 PUSH20 0xFFFFFFFFFFFFFFFFFFFFFFFFFFFFFFFFFFFFFFFF AND DUP3 PUSH20 0xFFFFFFFFFFFFFFFFFFFFFFFFFFFFFFFFFFFFFFFF AND SUB PUSH2 0x222 JUMPI PUSH0 PUSH1 0x40 MLOAD PUSH32 0xEC442F0500000000000000000000000000000000000000000000000000000000 DUP2 MSTORE PUSH1 0x4 ADD PUSH2 0x219 SWAP2 SWAP1 PUSH2 0x9A8 JUMP JUMPDEST PUSH1 0x40 MLOAD DUP1 SWAP2 SUB SWAP1 REVERT JUMPDEST PUSH2 0x233 PUSH0 DUP4 DUP4 PUSH2 0x237 PUSH1 0x20 SHL PUSH1 0x20 SHR JUMP JUMPDEST POP POP JUMP JUMPDEST PUSH0 PUSH20 0xFFFFFFFFFFFFFFFFFFFFFFFFFFFFFFFFFFFFFFFF AND DUP4 PUSH20 0xFFFFFFFFFFFFFFFFFFFFFFFFFFFFFFFFFFFFFFFF AND SUB PUSH2 0x287 JUMPI DUP1 PUSH1 0x2 PUSH0 DUP3 DUP3 SLOAD PUSH2 0x27B SWAP2 SWAP1 PUSH2 0x9EE JUMP JUMPDEST SWAP3 POP POP DUP2 SWAP1 SSTORE POP PUSH2 0x355 JUMP JUMPDEST PUSH0 DUP1 PUSH0 DUP6 PUSH20 0xFFFFFFFFFFFFFFFFFFFFFFFFFFFFFFFFFFFFFFFF AND PUSH20 0xFFFFFFFFFFFFFFFFFFFFFFFFFFFFFFFFFFFFFFFF AND DUP2 MSTORE PUSH1 0x20 ADD SWAP1 DUP2 MSTORE PUSH1 0x20 ADD PUSH0 KECCAK256 SLOAD SWAP1 POP DUP2 DUP2 LT ISZERO PUSH2 0x310 JUMPI DUP4 DUP2 DUP4 PUSH1 0x40 MLOAD PUSH32 0xE450D38C00000000000000000000000000000000000000000000000000000000 DUP2 MSTORE PUSH1 0x4 ADD PUSH2 0x307 SWAP4 SWAP3 SWAP2 SWAP1 PUSH2 0xA30 JUMP JUMPDEST PUSH1 0x40 MLOAD DUP1 SWAP2 SUB SWAP1 REVERT JUMPDEST DUP2 DUP2 SUB PUSH0 DUP1 DUP7 PUSH20 0xFFFFFFFFFFFFFFFFFFFFFFFFFFFFFFFFFFFFFFFF AND PUSH20 0xFFFFFFFFFFFFFFFFFFFFFFFFFFFFFFFFFFFFFFFF AND DUP2 MSTORE PUSH1 0x20 ADD SWAP1 DUP2 MSTORE PUSH1 0x20 ADD PUSH0 KECCAK256 DUP2 SWAP1 SSTORE POP POP JUMPDEST PUSH0 PUSH20 0xFFFFFFFFFFFFFFFFFFFFFFFFFFFFFFFFFFFFFFFF AND DUP3 PUSH20 0xFFFFFFFFFFFFFFFFFFFFFFFFFFFFFFFFFFFFFFFF AND SUB PUSH2 0x39C JUMPI DUP1 PUSH1 0x2 PUSH0 DUP3 DUP3 SLOAD SUB SWAP3 POP POP DUP2 SWAP1 SSTORE POP PUSH2 0x3E6 JUMP JUMPDEST DUP1 PUSH0 DUP1 DUP5 PUSH20 0xFFFFFFFFFFFFFFFFFFFFFFFFFFFFFFFFFFFFFFFF AND PUSH20 0xFFFFFFFFFFFFFFFFFFFFFFFFFFFFFFFFFFFFFFFF AND DUP2 MSTORE PUSH1 0x20 ADD SWAP1 DUP2 MSTORE PUSH1 0x20 ADD PUSH0 KECCAK256 PUSH0 DUP3 DUP3 SLOAD ADD SWAP3 POP POP DUP2 SWAP1 SSTORE POP JUMPDEST DUP2 PUSH20 0xFFFFFFFFFFFFFFFFFFFFFFFFFFFFFFFFFFFFFFFF AND DUP4 PUSH20 0xFFFFFFFFFFFFFFFFFFFFFFFFFFFFFFFFFFFFFFFF AND PUSH32 0xDDF252AD1BE2C89B69C2B068FC378DAA952BA7F163C4A11628F55A4DF523B3EF DUP4 PUSH1 0x40 MLOAD PUSH2 0x443 SWAP2 SWAP1 PUSH2 0xA65 JUMP JUMPDEST PUSH1 0x40 MLOAD DUP1 SWAP2 SUB SWAP1 LOG3 POP POP POP JUMP JUMPDEST PUSH0 PUSH1 0x40 MLOAD SWAP1 POP SWAP1 JUMP JUMPDEST PUSH0 DUP1 REVERT JUMPDEST PUSH0 DUP1 REVERT JUMPDEST PUSH0 DUP1 REVERT JUMPDEST PUSH0 DUP1 REVERT JUMPDEST PUSH0 PUSH1 0x1F NOT PUSH1 0x1F DUP4 ADD AND SWAP1 POP SWAP2 SWAP1 POP JUMP JUMPDEST PUSH32 0x4E487B7100000000000000000000000000000000000000000000000000000000 PUSH0 MSTORE PUSH1 0x41 PUSH1 0x4 MSTORE PUSH1 0x24 PUSH0 REVERT JUMPDEST PUSH2 0x4AF DUP3 PUSH2 0x469 JUMP JUMPDEST DUP2 ADD DUP2 DUP2 LT PUSH8 0xFFFFFFFFFFFFFFFF DUP3 GT OR ISZERO PUSH2 0x4CE JUMPI PUSH2 0x4CD PUSH2 0x479 JUMP JUMPDEST JUMPDEST DUP1 PUSH1 0x40 MSTORE POP POP POP JUMP JUMPDEST PUSH0 PUSH2 0x4E0 PUSH2 0x450 JUMP JUMPDEST SWAP1 POP PUSH2 0x4EC DUP3 DUP3 PUSH2 0x4A6 JUMP JUMPDEST SWAP2 SWAP1 POP JUMP JUMPDEST PUSH0 PUSH8 0xFFFFFFFFFFFFFFFF DUP3 GT ISZERO PUSH2 0x50B JUMPI PUSH2 0x50A PUSH2 0x479 JUMP JUMPDEST JUMPDEST PUSH2 0x514 DUP3 PUSH2 0x469 JUMP JUMPDEST SWAP1 POP PUSH1 0x20 DUP2 ADD SWAP1 POP SWAP2 SWAP1 POP JUMP JUMPDEST DUP3 DUP2 DUP4 MCOPY PUSH0 DUP4 DUP4 ADD MSTORE POP POP POP JUMP JUMPDEST PUSH0 PUSH2 0x541 PUSH2 0x53C DUP5 PUSH2 0x4F1 JUMP JUMPDEST PUSH2 0x4D7 JUMP JUMPDEST SWAP1 POP DUP3 DUP2 MSTORE PUSH1 0x20 DUP2 ADD DUP5 DUP5 DUP5 ADD GT ISZERO PUSH2 0x55D JUMPI PUSH2 0x55C PUSH2 0x465 JUMP JUMPDEST JUMPDEST PUSH2 0x568 DUP5 DUP3 DUP6 PUSH2 0x521 JUMP JUMPDEST POP SWAP4 SWAP3 POP POP POP JUMP JUMPDEST PUSH0 DUP3 PUSH1 0x1F DUP4 ADD SLT PUSH2 0x584 JUMPI PUSH2 0x583 PUSH2 0x461 JUMP JUMPDEST JUMPDEST DUP2 MLOAD PUSH2 0x594 DUP5 DUP3 PUSH1 0x20 DUP7 ADD PUSH2 0x52F JUMP JUMPDEST SWAP2 POP POP SWAP3 SWAP2 POP POP JUMP JUMPDEST PUSH0 DUP2 SWAP1 POP SWAP2 SWAP1 POP JUMP JUMPDEST PUSH2 0x5AF DUP2 PUSH2 0x59D JUMP JUMPDEST DUP2 EQ PUSH2 0x5B9 JUMPI PUSH0 DUP1 REVERT JUMPDEST POP JUMP JUMPDEST PUSH0 DUP2 MLOAD SWAP1 POP PUSH2 0x5CA DUP2 PUSH2 0x5A6 JUMP JUMPDEST SWAP3 SWAP2 POP POP JUMP JUMPDEST PUSH0 PUSH20 0xFFFFFFFFFFFFFFFFFFFFFFFFFFFFFFFFFFFFFFFF DUP3 AND SWAP1 POP SWAP2 SWAP1 POP JUMP JUMPDEST PUSH0 PUSH2 0x5F9 DUP3 PUSH2 0x5D0 JUMP JUMPDEST SWAP1 POP SWAP2 SWAP1 POP JUMP JUMPDEST PUSH2 0x609 DUP2 PUSH2 0x5EF JUMP JUMPDEST DUP2 EQ PUSH2 0x613 JUMPI PUSH0 DUP1 REVERT JUMPDEST POP JUMP JUMPDEST PUSH0 DUP2 MLOAD SWAP1 POP PUSH2 0x624 DUP2 PUSH2 0x600 JUMP JUMPDEST SWAP3 SWAP2 POP POP JUMP JUMPDEST PUSH0 DUP1 PUSH0 DUP1 PUSH1 0x80 DUP6 DUP8 SUB SLT ISZERO PUSH2 0x642 JUMPI PUSH2 0x641 PUSH2 0x459 JUMP JUMPDEST JUMPDEST PUSH0 DUP6 ADD MLOAD PUSH8 0xFFFFFFFFFFFFFFFF DUP2 GT ISZERO PUSH2 0x65F JUMPI PUSH2 0x65E PUSH2 0x45D JUMP JUMPDEST JUMPDEST PUSH2 0x66B DUP8 DUP3 DUP9 ADD PUSH2 0x570 JUMP JUMPDEST SWAP5 POP POP PUSH1 0x20 DUP6 ADD MLOAD PUSH8 0xFFFFFFFFFFFFFFFF DUP2 GT ISZERO PUSH2 0x68C JUMPI PUSH2 0x68B PUSH2 0x45D JUMP JUMPDEST JUMPDEST PUSH2 0x698 DUP8 DUP3 DUP9 ADD PUSH2 0x570 JUMP JUMPDEST SWAP4 POP POP PUSH1 0x40 PUSH2 0x6A9 DUP8 DUP3 DUP9 ADD PUSH2 0x5BC JUMP JUMPDEST SWAP3 POP POP PUSH1 0x60 PUSH2 0x6BA DUP8 DUP3 DUP9 ADD PUSH2 0x616 JUMP JUMPDEST SWAP2 POP POP SWAP3 SWAP6 SWAP2 SWAP5 POP SWAP3 POP JUMP JUMPDEST PUSH0 DUP2 MLOAD SWAP1 POP SWAP2 SWAP1 POP JUMP JUMPDEST PUSH32 0x4E487B7100000000000000000000000000000000000000000000000000000000 PUSH0 MSTORE PUSH1 0x22 PUSH1 0x4 MSTORE PUSH1 0x24 PUSH0 REVERT JUMPDEST PUSH0 PUSH1 0x2 DUP3 DIV SWAP1 POP PUSH1 0x1 DUP3 AND DUP1 PUSH2 0x714 JUMPI PUSH1 0x7F DUP3 AND SWAP2 POP JUMPDEST PUSH1 0x20 DUP3 LT DUP2 SUB PUSH2 0x727 JUMPI PUSH2 0x726 PUSH2 0x6D0 JUMP JUMPDEST JUMPDEST POP SWAP2 SWAP1 POP JUMP JUMPDEST PUSH0 DUP2 SWAP1 POP DUP2 PUSH0 MSTORE PUSH1 0x20 PUSH0 KECCAK256 SWAP1 POP SWAP2 SWAP1 POP JUMP JUMPDEST PUSH0 PUSH1 0x20 PUSH1 0x1F DUP4 ADD DIV SWAP1 POP SWAP2 SWAP1 POP JUMP JUMPDEST PUSH0 DUP3 DUP3 SHL SWAP1 POP SWAP3 SWAP2 POP POP JUMP JUMPDEST PUSH0 PUSH1 0x8 DUP4 MUL PUSH2 0x789 PUSH32 0xFFFFFFFFFFFFFFFFFFFFFFFFFFFFFFFFFFFFFFFFFFFFFFFFFFFFFFFFFFFFFFFF DUP3 PUSH2 0x74E JUMP JUMPDEST PUSH2 0x793 DUP7 DUP4 PUSH2 0x74E JUMP JUMPDEST SWAP6 POP DUP1 NOT DUP5 AND SWAP4 POP DUP1 DUP7 AND DUP5 OR SWAP3 POP POP POP SWAP4 SWAP3 POP POP POP JUMP JUMPDEST PUSH0 DUP2 SWAP1 POP SWAP2 SWAP1 POP JUMP JUMPDEST PUSH0 PUSH2 0x7CE PUSH2 0x7C9 PUSH2 0x7C4 DUP5 PUSH2 0x59D JUMP JUMPDEST PUSH2 0x7AB JUMP JUMPDEST PUSH2 0x59D JUMP JUMPDEST SWAP1 POP SWAP2 SWAP1 POP JUMP JUMPDEST PUSH0 DUP2 SWAP1 POP SWAP2 SWAP1 POP JUMP JUMPDEST PUSH2 0x7E7 DUP4 PUSH2 0x7B4 JUMP JUMPDEST PUSH2 0x7FB PUSH2 0x7F3 DUP3 PUSH2 0x7D5 JUMP JUMPDEST DUP5 DUP5 SLOAD PUSH2 0x75A JUMP JUMPDEST DUP3 SSTORE POP POP POP POP JUMP JUMPDEST PUSH0 SWAP1 JUMP JUMPDEST PUSH2 0x80F PUSH2 0x803 JUMP JUMPDEST PUSH2 0x81A DUP2 DUP5 DUP5 PUSH2 0x7DE JUMP JUMPDEST POP POP POP JUMP JUMPDEST JUMPDEST DUP2 DUP2 LT ISZERO PUSH2 0x83D JUMPI PUSH2 0x832 PUSH0 DUP3 PUSH2 0x807 JUMP JUMPDEST PUSH1 0x1 DUP2 ADD SWAP1 POP PUSH2 0x820 JUMP JUMPDEST POP POP JUMP JUMPDEST PUSH1 0x1F DUP3 GT ISZERO PUSH2 0x882 JUMPI PUSH2 0x853 DUP2 PUSH2 0x72D JUMP JUMPDEST PUSH2 0x85C DUP5 PUSH2 0x73F JUMP JUMPDEST DUP2 ADD PUSH1 0x20 DUP6 LT ISZERO PUSH2 0x86B JUMPI DUP2 SWAP1 POP JUMPDEST PUSH2 0x87F PUSH2 0x877 DUP6 PUSH2 0x73F JUMP JUMPDEST DUP4 ADD DUP3 PUSH2 0x81F JUMP JUMPDEST POP POP JUMPDEST POP POP POP JUMP JUMPDEST PUSH0 DUP3 DUP3 SHR SWAP1 POP SWAP3 SWAP2 POP POP JUMP JUMPDEST PUSH0 PUSH2 0x8A2 PUSH0 NOT DUP5 PUSH1 0x8 MUL PUSH2 0x887 JUMP JUMPDEST NOT DUP1 DUP4 AND SWAP2 POP POP SWAP3 SWAP2 POP POP JUMP JUMPDEST PUSH0 PUSH2 0x8BA DUP4 DUP4 PUSH2 0x893 JUMP JUMPDEST SWAP2 POP DUP3 PUSH1 0x2 MUL DUP3 OR SWAP1 POP SWAP3 SWAP2 POP POP JUMP JUMPDEST PUSH2 0x8D3 DUP3 PUSH2 0x6C6 JUMP JUMPDEST PUSH8 0xFFFFFFFFFFFFFFFF DUP2 GT ISZERO PUSH2 0x8EC JUMPI PUSH2 0x8EB PUSH2 0x479 JUMP JUMPDEST JUMPDEST PUSH2 0x8F6 DUP3 SLOAD PUSH2 0x6FD JUMP JUMPDEST PUSH2 0x901 DUP3 DUP3 DUP6 PUSH2 0x841 JUMP JUMPDEST PUSH0 PUSH1 0x20 SWAP1 POP PUSH1 0x1F DUP4 GT PUSH1 0x1 DUP2 EQ PUSH2 0x932 JUMPI PUSH0 DUP5 ISZERO PUSH2 0x920 JUMPI DUP3 DUP8 ADD MLOAD SWAP1 POP JUMPDEST PUSH2 0x92A DUP6 DUP3 PUSH2 0x8AF JUMP JUMPDEST DUP7 SSTORE POP PUSH2 0x991 JUMP JUMPDEST PUSH1 0x1F NOT DUP5 AND PUSH2 0x940 DUP7 PUSH2 0x72D JUMP JUMPDEST PUSH0 JUMPDEST DUP3 DUP2 LT ISZERO PUSH2 0x967 JUMPI DUP5 DUP10 ADD MLOAD DUP3 SSTORE PUSH1 0x1 DUP3 ADD SWAP2 POP PUSH1 0x20 DUP6 ADD SWAP5 POP PUSH1 0x20 DUP2 ADD SWAP1 POP PUSH2 0x942 JUMP JUMPDEST DUP7 DUP4 LT ISZERO PUSH2 0x984 JUMPI DUP5 DUP10 ADD MLOAD PUSH2 0x980 PUSH1 0x1F DUP10 AND DUP3 PUSH2 0x893 JUMP JUMPDEST DUP4 SSTORE POP JUMPDEST PUSH1 0x1 PUSH1 0x2 DUP9 MUL ADD DUP9 SSTORE POP POP POP JUMPDEST POP POP POP POP POP POP JUMP JUMPDEST PUSH2 0x9A2 DUP2 PUSH2 0x5EF JUMP JUMPDEST DUP3 MSTORE POP POP JUMP JUMPDEST PUSH0 PUSH1 0x20 DUP3 ADD SWAP1 POP PUSH2 0x9BB PUSH0 DUP4 ADD DUP5 PUSH2 0x999 JUMP JUMPDEST SWAP3 SWAP2 POP POP JUMP JUMPDEST PUSH32 0x4E487B7100000000000000000000000000000000000000000000000000000000 PUSH0 MSTORE PUSH1 0x11 PUSH1 0x4 MSTORE PUSH1 0x24 PUSH0 REVERT JUMPDEST PUSH0 PUSH2 0x9F8 DUP3 PUSH2 0x59D JUMP JUMPDEST SWAP2 POP PUSH2 0xA03 DUP4 PUSH2 0x59D JUMP JUMPDEST SWAP3 POP DUP3 DUP3 ADD SWAP1 POP DUP1 DUP3 GT ISZERO PUSH2 0xA1B JUMPI PUSH2 0xA1A PUSH2 0x9C1 JUMP JUMPDEST JUMPDEST SWAP3 SWAP2 POP POP JUMP JUMPDEST PUSH2 0xA2A DUP2 PUSH2 0x59D JUMP JUMPDEST DUP3 MSTORE POP POP JUMP JUMPDEST PUSH0 PUSH1 0x60 DUP3 ADD SWAP1 POP PUSH2 0xA43 PUSH0 DUP4 ADD DUP7 PUSH2 0x999 JUMP JUMPDEST PUSH2 0xA50 PUSH1 0x20 DUP4 ADD DUP6 PUSH2 0xA21 JUMP JUMPDEST PUSH2 0xA5D PUSH1 0x40 DUP4 ADD DUP5 PUSH2 0xA21 JUMP JUMPDEST SWAP5 SWAP4 POP POP POP POP JUMP JUMPDEST PUSH0 PUSH1 0x20 DUP3 ADD SWAP1 POP PUSH2 0xA78 PUSH0 DUP4 ADD DUP5 PUSH2 0xA21 JUMP JUMPDEST SWAP3 SWAP2 POP POP JUMP JUMPDEST PUSH2 0x104F DUP1 PUSH2 0xA8B PUSH0 CODECOPY PUSH0 RETURN INVALID PUSH1 0x80 PUSH1 0x40 MSTORE CALLVALUE DUP1 ISZERO PUSH2 0xF JUMPI PUSH0 DUP1 REVERT JUMPDEST POP PUSH1 0x4 CALLDATASIZE LT PUSH2 0xB2 JUMPI PUSH0 CALLDATALOAD PUSH1 0xE0 SHR DUP1 PUSH4 0x715018A6 GT PUSH2 0x6F JUMPI DUP1 PUSH4 0x715018A6 EQ PUSH2 0x1A0 JUMPI DUP1 PUSH4 0x8DA5CB5B EQ PUSH2 0x1AA JUMPI DUP1 PUSH4 0x95D89B41 EQ PUSH2 0x1C8 JUMPI DUP1 PUSH4 0xA9059CBB EQ PUSH2 0x1E6 JUMPI DUP1 PUSH4 0xDD62ED3E EQ PUSH2 0x216 JUMPI DUP1 PUSH4 0xF2FDE38B EQ PUSH2 0x246 JUMPI PUSH2 0xB2 JUMP JUMPDEST DUP1 PUSH4 0x6FDDE03 EQ PUSH2 0xB6 JUMPI DUP1 PUSH4 0x95EA7B3 EQ PUSH2 0xD4 JUMPI DUP1 PUSH4 0x18160DDD EQ PUSH2 0x104 JUMPI DUP1 PUSH4 0x23B872DD EQ PUSH2 0x122 JUMPI DUP1 PUSH4 0x313CE567 EQ PUSH2 0x152 JUMPI DUP1 PUSH4 0x70A08231 EQ PUSH2 0x170 JUMPI JUMPDEST PUSH0 DUP1 REVERT JUMPDEST PUSH2 0xBE PUSH2 0x262 JUMP JUMPDEST PUSH1 0x40 MLOAD PUSH2 0xCB SWAP2 SWAP1 PUSH2 0xCC8 JUMP JUMPDEST PUSH1 0x40 MLOAD DUP1 SWAP2 SUB SWAP1 RETURN JUMPDEST PUSH2 0xEE PUSH1 0x4 DUP1 CALLDATASIZE SUB DUP2 ADD SWAP1 PUSH2 0xE9 SWAP2 SWAP1 PUSH2 0xD79 JUMP JUMPDEST PUSH2 0x2F2 JUMP JUMPDEST PUSH1 0x40 MLOAD PUSH2 0xFB SWAP2 SWAP1 PUSH2 0xDD1 JUMP JUMPDEST PUSH1 0x40 MLOAD DUP1 SWAP2 SUB SWAP1 RETURN JUMPDEST PUSH2 0x10C PUSH2 0x314 JUMP JUMPDEST PUSH1 0x40 MLOAD PUSH2 0x119 SWAP2 SWAP1 PUSH2 0xDF9 JUMP JUMPDEST PUSH1 0x40 MLOAD DUP1 SWAP2 SUB SWAP1 RETURN JUMPDEST PUSH2 0x13C PUSH1 0x4 DUP1 CALLDATASIZE SUB DUP2 ADD SWAP1 PUSH2 0x137 SWAP2 SWAP1 PUSH2 0xE12 JUMP JUMPDEST PUSH2 0x31D JUMP JUMPDEST PUSH1 0x40 MLOAD PUSH2 0x149 SWAP2 SWAP1 PUSH2 0xDD1 JUMP JUMPDEST PUSH1 0x40 MLOAD DUP1 SWAP2 SUB SWAP1 RETURN JUMPDEST PUSH2 0x15A PUSH2 0x34B JUMP JUMPDEST PUSH1 0x40 MLOAD PUSH2 0x167 SWAP2 SWAP1 PUSH2 0xE7D JUMP JUMPDEST PUSH1 0x40 MLOAD DUP1 SWAP2 SUB SWAP1 RETURN JUMPDEST PUSH2 0x18A PUSH1 0x4 DUP1 CALLDATASIZE SUB DUP2 ADD SWAP1 PUSH2 0x185 SWAP2 SWAP1 PUSH2 0xE96 JUMP JUMPDEST PUSH2 0x353 JUMP JUMPDEST PUSH1 0x40 MLOAD PUSH2 0x197 SWAP2 SWAP1 PUSH2 0xDF9 JUMP JUMPDEST PUSH1 0x40 MLOAD DUP1 SWAP2 SUB SWAP1 RETURN JUMPDEST PUSH2 0x1A8 PUSH2 0x398 JUMP JUMPDEST STOP JUMPDEST PUSH2 0x1B2 PUSH2 0x3AB JUMP JUMPDEST PUSH1 0x40 MLOAD PUSH2 0x1BF SWAP2 SWAP1 PUSH2 0xED0 JUMP JUMPDEST PUSH1 0x40 MLOAD DUP1 SWAP2 SUB SWAP1 RETURN JUMPDEST PUSH2 0x1D0 PUSH2 0x3D3 JUMP JUMPDEST PUSH1 0x40 MLOAD PUSH2 0x1DD SWAP2 SWAP1 PUSH2 0xCC8 JUMP JUMPDEST PUSH1 0x40 MLOAD DUP1 SWAP2 SUB SWAP1 RETURN JUMPDEST PUSH2 0x200 PUSH1 0x4 DUP1 CALLDATASIZE SUB DUP2 ADD SWAP1 PUSH2 0x1FB SWAP2 SWAP1 PUSH2 0xD79 JUMP JUMPDEST PUSH2 0x463 JUMP JUMPDEST PUSH1 0x40 MLOAD PUSH2 0x20D SWAP2 SWAP1 PUSH2 0xDD1 JUMP JUMPDEST PUSH1 0x40 MLOAD DUP1 SWAP2 SUB SWAP1 RETURN JUMPDEST PUSH2 0x230 PUSH1 0x4 DUP1 CALLDATASIZE SUB DUP2 ADD SWAP1 PUSH2 0x22B SWAP2 SWAP1 PUSH2 0xEE9 JUMP JUMPDEST PUSH2 0x485 JUMP JUMPDEST PUSH1 0x40 MLOAD PUSH2 0x23D SWAP2 SWAP1 PUSH2 0xDF9 JUMP JUMPDEST PUSH1 0x40 MLOAD DUP1 SWAP2 SUB SWAP1 RETURN JUMPDEST PUSH2 0x260 PUSH1 0x4 DUP1 CALLDATASIZE SUB DUP2 ADD SWAP1 PUSH2 0x25B SWAP2 SWAP1 PUSH2 0xE96 JUMP JUMPDEST PUSH2 0x507 JUMP JUMPDEST STOP JUMPDEST PUSH1 0x60 PUSH1 0x3 DUP1 SLOAD PUSH2 0x271 SWAP1 PUSH2 0xF54 JUMP JUMPDEST DUP1 PUSH1 0x1F ADD PUSH1 0x20 DUP1 SWAP2 DIV MUL PUSH1 0x20 ADD PUSH1 0x40 MLOAD SWAP1 DUP2 ADD PUSH1 0x40 MSTORE DUP1 SWAP3 SWAP2 SWAP1 DUP2 DUP2 MSTORE PUSH1 0x20 ADD DUP3 DUP1 SLOAD PUSH2 0x29D SWAP1 PUSH2 0xF54 JUMP JUMPDEST DUP1 ISZERO PUSH2 0x2E8 JUMPI DUP1 PUSH1 0x1F LT PUSH2 0x2BF JUMPI PUSH2 0x100 DUP1 DUP4 SLOAD DIV MUL DUP4 MSTORE SWAP2 PUSH1 0x20 ADD SWAP2 PUSH2 0x2E8 JUMP JUMPDEST DUP3 ADD SWAP2 SWAP1 PUSH0 MSTORE PUSH1 0x20 PUSH0 KECCAK256 SWAP1 JUMPDEST DUP2 SLOAD DUP2 MSTORE SWAP1 PUSH1 0x1 ADD SWAP1 PUSH1 0x20 ADD DUP1 DUP4 GT PUSH2 0x2CB JUMPI DUP3 SWAP1 SUB PUSH1 0x1F AND DUP3 ADD SWAP2 JUMPDEST POP POP POP POP POP SWAP1 POP SWAP1 JUMP JUMPDEST PUSH0 DUP1 PUSH2 0x2FC PUSH2 0x58B JUMP JUMPDEST SWAP1 POP PUSH2 0x309 DUP2 DUP6 DUP6 PUSH2 0x592 JUMP JUMPDEST PUSH1 0x1 SWAP2 POP POP SWAP3 SWAP2 POP POP JUMP JUMPDEST PUSH0 PUSH1 0x2 SLOAD SWAP1 POP SWAP1 JUMP JUMPDEST PUSH0 DUP1 PUSH2 0x327 PUSH2 0x58B JUMP JUMPDEST SWAP1 POP PUSH2 0x334 DUP6 DUP3 DUP6 PUSH2 0x5A4 JUMP JUMPDEST PUSH2 0x33F DUP6 DUP6 DUP6 PUSH2 0x636 JUMP JUMPDEST PUSH1 0x1 SWAP2 POP POP SWAP4 SWAP3 POP POP POP JUMP JUMPDEST PUSH0 PUSH1 0x12 SWAP1 POP SWAP1 JUMP JUMPDEST PUSH0 DUP1 PUSH0 DUP4 PUSH20 0xFFFFFFFFFFFFFFFFFFFFFFFFFFFFFFFFFFFFFFFF AND PUSH20 0xFFFFFFFFFFFFFFFFFFFFFFFFFFFFFFFFFFFFFFFF AND DUP2 MSTORE PUSH1 0x20 ADD SWAP1 DUP2 MSTORE PUSH1 0x20 ADD PUSH0 KECCAK256 SLOAD SWAP1 POP SWAP2 SWAP1 POP JUMP JUMPDEST PUSH2 0x3A0 PUSH2 0x726 JUMP JUMPDEST PUSH2 0x3A9 PUSH0 PUSH2 0x7AD JUMP JUMPDEST JUMP JUMPDEST PUSH0 PUSH1 0x5 PUSH0 SWAP1 SLOAD SWAP1 PUSH2 0x100 EXP SWAP1 DIV PUSH20 0xFFFFFFFFFFFFFFFFFFFFFFFFFFFFFFFFFFFFFFFF AND SWAP1 POP SWAP1 JUMP JUMPDEST PUSH1 0x60 PUSH1 0x4 DUP1 SLOAD PUSH2 0x3E2 SWAP1 PUSH2 0xF54 JUMP JUMPDEST DUP1 PUSH1 0x1F ADD PUSH1 0x20 DUP1 SWAP2 DIV MUL PUSH1 0x20 ADD PUSH1 0x40 MLOAD SWAP1 DUP2 ADD PUSH1 0x40 MSTORE DUP1 SWAP3 SWAP2 SWAP1 DUP2 DUP2 MSTORE PUSH1 0x20 ADD DUP3 DUP1 SLOAD PUSH2 0x40E SWAP1 PUSH2 0xF54 JUMP JUMPDEST DUP1 ISZERO PUSH2 0x459 JUMPI DUP1 PUSH1 0x1F LT PUSH2 0x430 JUMPI PUSH2 0x100 DUP1 DUP4 SLOAD DIV MUL DUP4 MSTORE SWAP2 PUSH1 0x20 ADD SWAP2 PUSH2 0x459 JUMP JUMPDEST DUP3 ADD SWAP2 SWAP1 PUSH0 MSTORE PUSH1 0x20 PUSH0 KECCAK256 SWAP1 JUMPDEST DUP2 SLOAD DUP2 MSTORE SWAP1 PUSH1 0x1 ADD SWAP1 PUSH1 0x20 ADD DUP1 DUP4 GT PUSH2 0x43C JUMPI DUP3 SWAP1 SUB PUSH1 0x1F AND DUP3 ADD SWAP2 JUMPDEST POP POP POP POP POP SWAP1 POP SWAP1 JUMP JUMPDEST PUSH0 DUP1 PUSH2 0x46D PUSH2 0x58B JUMP JUMPDEST SWAP1 POP PUSH2 0x47A DUP2 DUP6 DUP6 PUSH2 0x636 JUMP JUMPDEST PUSH1 0x1 SWAP2 POP POP SWAP3 SWAP2 POP POP JUMP JUMPDEST PUSH0 PUSH1 0x1 PUSH0 DUP5 PUSH20 0xFFFFFFFFFFFFFFFFFFFFFFFFFFFFFFFFFFFFFFFF AND PUSH20 0xFFFFFFFFFFFFFFFFFFFFFFFFFFFFFFFFFFFFFFFF AND DUP2 MSTORE PUSH1 0x20 ADD SWAP1 DUP2 MSTORE PUSH1 0x20 ADD PUSH0 KECCAK256 PUSH0 DUP4 PUSH20 0xFFFFFFFFFFFFFFFFFFFFFFFFFFFFFFFFFFFFFFFF AND PUSH20 0xFFFFFFFFFFFFFFFFFFFFFFFFFFFFFFFFFFFFFFFF AND DUP2 MSTORE PUSH1 0x20 ADD SWAP1 DUP2 MSTORE PUSH1 0x20 ADD PUSH0 KECCAK256 SLOAD SWAP1 POP SWAP3 SWAP2 POP POP JUMP JUMPDEST PUSH2 0x50F PUSH2 0x726 JUMP JUMPDEST PUSH0 PUSH20 0xFFFFFFFFFFFFFFFFFFFFFFFFFFFFFFFFFFFFFFFF AND DUP2 PUSH20 0xFFFFFFFFFFFFFFFFFFFFFFFFFFFFFFFFFFFFFFFF AND SUB PUSH2 0x57F JUMPI PUSH0 PUSH1 0x40 MLOAD PUSH32 0x1E4FBDF700000000000000000000000000000000000000000000000000000000 DUP2 MSTORE PUSH1 0x4 ADD PUSH2 0x576 SWAP2 SWAP1 PUSH2 0xED0 JUMP JUMPDEST PUSH1 0x40 MLOAD DUP1 SWAP2 SUB SWAP1 REVERT JUMPDEST PUSH2 0x588 DUP2 PUSH2 0x7AD JUMP JUMPDEST POP JUMP JUMPDEST PUSH0 CALLER SWAP1 POP SWAP1 JUMP JUMPDEST PUSH2 0x59F DUP4 DUP4 DUP4 PUSH1 0x1 PUSH2 0x870 JUMP JUMPDEST POP POP POP JUMP JUMPDEST PUSH0 PUSH2 0x5AF DUP5 DUP5 PUSH2 0x485 JUMP JUMPDEST SWAP1 POP PUSH32 0xFFFFFFFFFFFFFFFFFFFFFFFFFFFFFFFFFFFFFFFFFFFFFFFFFFFFFFFFFFFFFFFF DUP2 EQ PUSH2 0x630 JUMPI DUP2 DUP2 LT ISZERO PUSH2 0x621 JUMPI DUP3 DUP2 DUP4 PUSH1 0x40 MLOAD PUSH32 0xFB8F41B200000000000000000000000000000000000000000000000000000000 DUP2 MSTORE PUSH1 0x4 ADD PUSH2 0x618 SWAP4 SWAP3 SWAP2 SWAP1 PUSH2 0xF84 JUMP JUMPDEST PUSH1 0x40 MLOAD DUP1 SWAP2 SUB SWAP1 REVERT JUMPDEST PUSH2 0x62F DUP5 DUP5 DUP5 DUP5 SUB PUSH0 PUSH2 0x870 JUMP JUMPDEST JUMPDEST POP POP POP POP JUMP JUMPDEST PUSH0 PUSH20 0xFFFFFFFFFFFFFFFFFFFFFFFFFFFFFFFFFFFFFFFF AND DUP4 PUSH20 0xFFFFFFFFFFFFFFFFFFFFFFFFFFFFFFFFFFFFFFFF AND SUB PUSH2 0x6A6 JUMPI PUSH0 PUSH1 0x40 MLOAD PUSH32 0x96C6FD1E00000000000000000000000000000000000000000000000000000000 DUP2 MSTORE PUSH1 0x4 ADD PUSH2 0x69D SWAP2 SWAP1 PUSH2 0xED0 JUMP JUMPDEST PUSH1 0x40 MLOAD DUP1 SWAP2 SUB SWAP1 REVERT JUMPDEST PUSH0 PUSH20 0xFFFFFFFFFFFFFFFFFFFFFFFFFFFFFFFFFFFFFFFF AND DUP3 PUSH20 0xFFFFFFFFFFFFFFFFFFFFFFFFFFFFFFFFFFFFFFFF AND SUB PUSH2 0x716 JUMPI PUSH0 PUSH1 0x40 MLOAD PUSH32 0xEC442F0500000000000000000000000000000000000000000000000000000000 DUP2 MSTORE PUSH1 0x4 ADD PUSH2 0x70D SWAP2 SWAP1 PUSH2 0xED0 JUMP JUMPDEST PUSH1 0x40 MLOAD DUP1 SWAP2 SUB SWAP1 REVERT JUMPDEST PUSH2 0x721 DUP4 DUP4 DUP4 PUSH2 0xA3F JUMP JUMPDEST POP POP POP JUMP JUMPDEST PUSH2 0x72E PUSH2 0x58B JUMP JUMPDEST PUSH20 0xFFFFFFFFFFFFFFFFFFFFFFFFFFFFFFFFFFFFFFFF AND PUSH2 0x74C PUSH2 0x3AB JUMP JUMPDEST PUSH20 0xFFFFFFFFFFFFFFFFFFFFFFFFFFFFFFFFFFFFFFFF AND EQ PUSH2 0x7AB JUMPI PUSH2 0x76F PUSH2 0x58B JUMP JUMPDEST PUSH1 0x40 MLOAD PUSH32 0x118CDAA700000000000000000000000000000000000000000000000000000000 DUP2 MSTORE PUSH1 0x4 ADD PUSH2 0x7A2 SWAP2 SWAP1 PUSH2 0xED0 JUMP JUMPDEST PUSH1 0x40 MLOAD DUP1 SWAP2 SUB SWAP1 REVERT JUMPDEST JUMP JUMPDEST PUSH0 PUSH1 0x5 PUSH0 SWAP1 SLOAD SWAP1 PUSH2 0x100 EXP SWAP1 DIV PUSH20 0xFFFFFFFFFFFFFFFFFFFFFFFFFFFFFFFFFFFFFFFF AND SWAP1 POP DUP2 PUSH1 0x5 PUSH0 PUSH2 0x100 EXP DUP2 SLOAD DUP2 PUSH20 0xFFFFFFFFFFFFFFFFFFFFFFFFFFFFFFFFFFFFFFFF MUL NOT AND SWAP1 DUP4 PUSH20 0xFFFFFFFFFFFFFFFFFFFFFFFFFFFFFFFFFFFFFFFF AND MUL OR SWAP1 SSTORE POP DUP2 PUSH20 0xFFFFFFFFFFFFFFFFFFFFFFFFFFFFFFFFFFFFFFFF AND DUP2 PUSH20 0xFFFFFFFFFFFFFFFFFFFFFFFFFFFFFFFFFFFFFFFF AND PUSH32 0x8BE0079C531659141344CD1FD0A4F28419497F9722A3DAAFE3B4186F6B6457E0 PUSH1 0x40 MLOAD PUSH1 0x40 MLOAD DUP1 SWAP2 SUB SWAP1 LOG3 POP POP JUMP JUMPDEST PUSH0 PUSH20 0xFFFFFFFFFFFFFFFFFFFFFFFFFFFFFFFFFFFFFFFF AND DUP5 PUSH20 0xFFFFFFFFFFFFFFFFFFFFFFFFFFFFFFFFFFFFFFFF AND SUB PUSH2 0x8E0 JUMPI PUSH0 PUSH1 0x40 MLOAD PUSH32 0xE602DF0500000000000000000000000000000000000000000000000000000000 DUP2 MSTORE PUSH1 0x4 ADD PUSH2 0x8D7 SWAP2 SWAP1 PUSH2 0xED0 JUMP JUMPDEST PUSH1 0x40 MLOAD DUP1 SWAP2 SUB SWAP1 REVERT JUMPDEST PUSH0 PUSH20 0xFFFFFFFFFFFFFFFFFFFFFFFFFFFFFFFFFFFFFFFF AND DUP4 PUSH20 0xFFFFFFFFFFFFFFFFFFFFFFFFFFFFFFFFFFFFFFFF AND SUB PUSH2 0x950 JUMPI PUSH0 PUSH1 0x40 MLOAD PUSH32 0x94280D6200000000000000000000000000000000000000000000000000000000 DUP2 MSTORE PUSH1 0x4 ADD PUSH2 0x947 SWAP2 SWAP1 PUSH2 0xED0 JUMP JUMPDEST PUSH1 0x40 MLOAD DUP1 SWAP2 SUB SWAP1 REVERT JUMPDEST DUP2 PUSH1 0x1 PUSH0 DUP7 PUSH20 0xFFFFFFFFFFFFFFFFFFFFFFFFFFFFFFFFFFFFFFFF AND PUSH20 0xFFFFFFFFFFFFFFFFFFFFFFFFFFFFFFFFFFFFFFFF AND DUP2 MSTORE PUSH1 0x20 ADD SWAP1 DUP2 MSTORE PUSH1 0x20 ADD PUSH0 KECCAK256 PUSH0 DUP6 PUSH20 0xFFFFFFFFFFFFFFFFFFFFFFFFFFFFFFFFFFFFFFFF AND PUSH20 0xFFFFFFFFFFFFFFFFFFFFFFFFFFFFFFFFFFFFFFFF AND DUP2 MSTORE PUSH1 0x20 ADD SWAP1 DUP2 MSTORE PUSH1 0x20 ADD PUSH0 KECCAK256 DUP2 SWAP1 SSTORE POP DUP1 ISZERO PUSH2 0xA39 JUMPI DUP3 PUSH20 0xFFFFFFFFFFFFFFFFFFFFFFFFFFFFFFFFFFFFFFFF AND DUP5 PUSH20 0xFFFFFFFFFFFFFFFFFFFFFFFFFFFFFFFFFFFFFFFF AND PUSH32 0x8C5BE1E5EBEC7D5BD14F71427D1E84F3DD0314C0F7B2291E5B200AC8C7C3B925 DUP5 PUSH1 0x40 MLOAD PUSH2 0xA30 SWAP2 SWAP1 PUSH2 0xDF9 JUMP JUMPDEST PUSH1 0x40 MLOAD DUP1 SWAP2 SUB SWAP1 LOG3 JUMPDEST POP POP POP POP JUMP JUMPDEST PUSH0 PUSH20 0xFFFFFFFFFFFFFFFFFFFFFFFFFFFFFFFFFFFFFFFF AND DUP4 PUSH20 0xFFFFFFFFFFFFFFFFFFFFFFFFFFFFFFFFFFFFFFFF AND SUB PUSH2 0xA8F JUMPI DUP1 PUSH1 0x2 PUSH0 DUP3 DUP3 SLOAD PUSH2 0xA83 SWAP2 SWAP1 PUSH2 0xFE6 JUMP JUMPDEST SWAP3 POP POP DUP2 SWAP1 SSTORE POP PUSH2 0xB5D JUMP JUMPDEST PUSH0 DUP1 PUSH0 DUP6 PUSH20 0xFFFFFFFFFFFFFFFFFFFFFFFFFFFFFFFFFFFFFFFF AND PUSH20 0xFFFFFFFFFFFFFFFFFFFFFFFFFFFFFFFFFFFFFFFF AND DUP2 MSTORE PUSH1 0x20 ADD SWAP1 DUP2 MSTORE PUSH1 0x20 ADD PUSH0 KECCAK256 SLOAD SWAP1 POP DUP2 DUP2 LT ISZERO PUSH2 0xB18 JUMPI DUP4 DUP2 DUP4 PUSH1 0x40 MLOAD PUSH32 0xE450D38C00000000000000000000000000000000000000000000000000000000 DUP2 MSTORE PUSH1 0x4 ADD PUSH2 0xB0F SWAP4 SWAP3 SWAP2 SWAP1 PUSH2 0xF84 JUMP JUMPDEST PUSH1 0x40 MLOAD DUP1 SWAP2 SUB SWAP1 REVERT JUMPDEST DUP2 DUP2 SUB PUSH0 DUP1 DUP7 PUSH20 0xFFFFFFFFFFFFFFFFFFFFFFFFFFFFFFFFFFFFFFFF AND PUSH20 0xFFFFFFFFFFFFFFFFFFFFFFFFFFFFFFFFFFFFFFFF AND DUP2 MSTORE PUSH1 0x20 ADD SWAP1 DUP2 MSTORE PUSH1 0x20 ADD PUSH0 KECCAK256 DUP2 SWAP1 SSTORE POP POP JUMPDEST PUSH0 PUSH20 0xFFFFFFFFFFFFFFFFFFFFFFFFFFFFFFFFFFFFFFFF AND DUP3 PUSH20 0xFFFFFFFFFFFFFFFFFFFFFFFFFFFFFFFFFFFFFFFF AND SUB PUSH2 0xBA4 JUMPI DUP1 PUSH1 0x2 PUSH0 DUP3 DUP3 SLOAD SUB SWAP3 POP POP DUP2 SWAP1 SSTORE POP PUSH2 0xBEE JUMP JUMPDEST DUP1 PUSH0 DUP1 DUP5 PUSH20 0xFFFFFFFFFFFFFFFFFFFFFFFFFFFFFFFFFFFFFFFF AND PUSH20 0xFFFFFFFFFFFFFFFFFFFFFFFFFFFFFFFFFFFFFFFF AND DUP2 MSTORE PUSH1 0x20 ADD SWAP1 DUP2 MSTORE PUSH1 0x20 ADD PUSH0 KECCAK256 PUSH0 DUP3 DUP3 SLOAD ADD SWAP3 POP POP DUP2 SWAP1 SSTORE POP JUMPDEST DUP2 PUSH20 0xFFFFFFFFFFFFFFFFFFFFFFFFFFFFFFFFFFFFFFFF AND DUP4 PUSH20 0xFFFFFFFFFFFFFFFFFFFFFFFFFFFFFFFFFFFFFFFF AND PUSH32 0xDDF252AD1BE2C89B69C2B068FC378DAA952BA7F163C4A11628F55A4DF523B3EF DUP4 PUSH1 0x40 MLOAD PUSH2 0xC4B SWAP2 SWAP1 PUSH2 0xDF9 JUMP JUMPDEST PUSH1 0x40 MLOAD DUP1 SWAP2 SUB SWAP1 LOG3 POP POP POP JUMP JUMPDEST PUSH0 DUP2 MLOAD SWAP1 POP SWAP2 SWAP1 POP JUMP JUMPDEST PUSH0 DUP3 DUP3 MSTORE PUSH1 0x20 DUP3 ADD SWAP1 POP SWAP3 SWAP2 POP POP JUMP JUMPDEST DUP3 DUP2 DUP4 MCOPY PUSH0 DUP4 DUP4 ADD MSTORE POP POP POP JUMP JUMPDEST PUSH0 PUSH1 0x1F NOT PUSH1 0x1F DUP4 ADD AND SWAP1 POP SWAP2 SWAP1 POP JUMP JUMPDEST PUSH0 PUSH2 0xC9A DUP3 PUSH2 0xC58 JUMP JUMPDEST PUSH2 0xCA4 DUP2 DUP6 PUSH2 0xC62 JUMP JUMPDEST SWAP4 POP PUSH2 0xCB4 DUP2 DUP6 PUSH1 0x20 DUP7 ADD PUSH2 0xC72 JUMP JUMPDEST PUSH2 0xCBD DUP2 PUSH2 0xC80 JUMP JUMPDEST DUP5 ADD SWAP2 POP POP SWAP3 SWAP2 POP POP JUMP JUMPDEST PUSH0 PUSH1 0x20 DUP3 ADD SWAP1 POP DUP2 DUP2 SUB PUSH0 DUP4 ADD MSTORE PUSH2 0xCE0 DUP2 DUP5 PUSH2 0xC90 JUMP JUMPDEST SWAP1 POP SWAP3 SWAP2 POP POP JUMP JUMPDEST PUSH0 DUP1 REVERT JUMPDEST PUSH0 PUSH20 0xFFFFFFFFFFFFFFFFFFFFFFFFFFFFFFFFFFFFFFFF DUP3 AND SWAP1 POP SWAP2 SWAP1 POP JUMP JUMPDEST PUSH0 PUSH2 0xD15 DUP3 PUSH2 0xCEC JUMP JUMPDEST SWAP1 POP SWAP2 SWAP1 POP JUMP JUMPDEST PUSH2 0xD25 DUP2 PUSH2 0xD0B JUMP JUMPDEST DUP2 EQ PUSH2 0xD2F JUMPI PUSH0 DUP1 REVERT JUMPDEST POP JUMP JUMPDEST PUSH0 DUP2 CALLDATALOAD SWAP1 POP PUSH2 0xD40 DUP2 PUSH2 0xD1C JUMP JUMPDEST SWAP3 SWAP2 POP POP JUMP JUMPDEST PUSH0 DUP2 SWAP1 POP SWAP2 SWAP1 POP JUMP JUMPDEST PUSH2 0xD58 DUP2 PUSH2 0xD46 JUMP JUMPDEST DUP2 EQ PUSH2 0xD62 JUMPI PUSH0 DUP1 REVERT JUMPDEST POP JUMP JUMPDEST PUSH0 DUP2 CALLDATALOAD SWAP1 POP PUSH2 0xD73 DUP2 PUSH2 0xD4F JUMP JUMPDEST SWAP3 SWAP2 POP POP JUMP JUMPDEST PUSH0 DUP1 PUSH1 0x40 DUP4 DUP6 SUB SLT ISZERO PUSH2 0xD8F JUMPI PUSH2 0xD8E PUSH2 0xCE8 JUMP JUMPDEST JUMPDEST PUSH0 PUSH2 0xD9C DUP6 DUP3 DUP7 ADD PUSH2 0xD32 JUMP JUMPDEST SWAP3 POP POP PUSH1 0x20 PUSH2 0xDAD DUP6 DUP3 DUP7 ADD PUSH2 0xD65 JUMP JUMPDEST SWAP2 POP POP SWAP3 POP SWAP3 SWAP1 POP JUMP JUMPDEST PUSH0 DUP2 ISZERO ISZERO SWAP1 POP SWAP2 SWAP1 POP JUMP JUMPDEST PUSH2 0xDCB DUP2 PUSH2 0xDB7 JUMP JUMPDEST DUP3 MSTORE POP POP JUMP JUMPDEST PUSH0 PUSH1 0x20 DUP3 ADD SWAP1 POP PUSH2 0xDE4 PUSH0 DUP4 ADD DUP5 PUSH2 0xDC2 JUMP JUMPDEST SWAP3 SWAP2 POP POP JUMP JUMPDEST PUSH2 0xDF3 DUP2 PUSH2 0xD46 JUMP JUMPDEST DUP3 MSTORE POP POP JUMP JUMPDEST PUSH0 PUSH1 0x20 DUP3 ADD SWAP1 POP PUSH2 0xE0C PUSH0 DUP4 ADD DUP5 PUSH2 0xDEA JUMP JUMPDEST SWAP3 SWAP2 POP POP JUMP JUMPDEST PUSH0 DUP1 PUSH0 PUSH1 0x60 DUP5 DUP7 SUB SLT ISZERO PUSH2 0xE29 JUMPI PUSH2 0xE28 PUSH2 0xCE8 JUMP JUMPDEST JUMPDEST PUSH0 PUSH2 0xE36 DUP7 DUP3 DUP8 ADD PUSH2 0xD32 JUMP JUMPDEST SWAP4 POP POP PUSH1 0x20 PUSH2 0xE47 DUP7 DUP3 DUP8 ADD PUSH2 0xD32 JUMP JUMPDEST SWAP3 POP POP PUSH1 0x40 PUSH2 0xE58 DUP7 DUP3 DUP8 ADD PUSH2 0xD65 JUMP JUMPDEST SWAP2 POP POP SWAP3 POP SWAP3 POP SWAP3 JUMP JUMPDEST PUSH0 PUSH1 0xFF DUP3 AND SWAP1 POP SWAP2 SWAP1 POP JUMP JUMPDEST PUSH2 0xE77 DUP2 PUSH2 0xE62 JUMP JUMPDEST DUP3 MSTORE POP POP JUMP JUMPDEST PUSH0 PUSH1 0x20 DUP3 ADD SWAP1 POP PUSH2 0xE90 PUSH0 DUP4 ADD DUP5 PUSH2 0xE6E JUMP JUMPDEST SWAP3 SWAP2 POP POP JUMP JUMPDEST PUSH0 PUSH1 0x20 DUP3 DUP5 SUB SLT ISZERO PUSH2 0xEAB JUMPI PUSH2 0xEAA PUSH2 0xCE8 JUMP JUMPDEST JUMPDEST PUSH0 PUSH2 0xEB8 DUP5 DUP3 DUP6 ADD PUSH2 0xD32 JUMP JUMPDEST SWAP2 POP POP SWAP3 SWAP2 POP POP JUMP JUMPDEST PUSH2 0xECA DUP2 PUSH2 0xD0B JUMP JUMPDEST DUP3 MSTORE POP POP JUMP JUMPDEST PUSH0 PUSH1 0x20 DUP3 ADD SWAP1 POP PUSH2 0xEE3 PUSH0 DUP4 ADD DUP5 PUSH2 0xEC1 JUMP JUMPDEST SWAP3 SWAP2 POP POP JUMP JUMPDEST PUSH0 DUP1 PUSH1 0x40 DUP4 DUP6 SUB SLT ISZERO PUSH2 0xEFF JUMPI PUSH2 0xEFE PUSH2 0xCE8 JUMP JUMPDEST JUMPDEST PUSH0 PUSH2 0xF0C DUP6 DUP3 DUP7 ADD PUSH2 0xD32 JUMP JUMPDEST SWAP3 POP POP PUSH1 0x20 PUSH2 0xF1D DUP6 DUP3 DUP7 ADD PUSH2 0xD32 JUMP JUMPDEST SWAP2 POP POP SWAP3 POP SWAP3 SWAP1 POP JUMP JUMPDEST PUSH32 0x4E487B7100000000000000000000000000000000000000000000000000000000 PUSH0 MSTORE PUSH1 0x22 PUSH1 0x4 MSTORE PUSH1 0x24 PUSH0 REVERT JUMPDEST PUSH0 PUSH1 0x2 DUP3 DIV SWAP1 POP PUSH1 0x1 DUP3 AND DUP1 PUSH2 0xF6B JUMPI PUSH1 0x7F DUP3 AND SWAP2 POP JUMPDEST PUSH1 0x20 DUP3 LT DUP2 SUB PUSH2 0xF7E JUMPI PUSH2 0xF7D PUSH2 0xF27 JUMP JUMPDEST JUMPDEST POP SWAP2 SWAP1 POP JUMP JUMPDEST PUSH0 PUSH1 0x60 DUP3 ADD SWAP1 POP PUSH2 0xF97 PUSH0 DUP4 ADD DUP7 PUSH2 0xEC1 JUMP JUMPDEST PUSH2 0xFA4 PUSH1 0x20 DUP4 ADD DUP6 PUSH2 0xDEA JUMP JUMPDEST PUSH2 0xFB1 PUSH1 0x40 DUP4 ADD DUP5 PUSH2 0xDEA JUMP JUMPDEST SWAP5 SWAP4 POP POP POP POP JUMP JUMPDEST PUSH32 0x4E487B7100000000000000000000000000000000000000000000000000000000 PUSH0 MSTORE PUSH1 0x11 PUSH1 0x4 MSTORE PUSH1 0x24 PUSH0 REVERT JUMPDEST PUSH0 PUSH2 0xFF0 DUP3 PUSH2 0xD46 JUMP JUMPDEST SWAP2 POP PUSH2 0xFFB DUP4 PUSH2 0xD46 JUMP JUMPDEST SWAP3 POP DUP3 DUP3 ADD SWAP1 POP DUP1 DUP3 GT ISZERO PUSH2 0x1013 JUMPI PUSH2 0x1012 PUSH2 0xFB9 JUMP JUMPDEST JUMPDEST SWAP3 SWAP2 POP POP JUMP INVALID LOG2 PUSH5 0x6970667358 0x22 SLT KECCAK256 0xC8 PUSH10 0x219A1D1AB23215D4FC75 SLOAD SSTORE XOR CALLER 0xD2 SIGNEXTEND NUMBER 0xE0 LOG0 CALLDATASIZE MOD PUSH10 0x4B409B5CAC313A886473 PUSH16 0x6C634300081A0033A264697066735822 SLT KECCAK256 GAS 0xC6 0xDA STATICCALL NUMBER 0xD2 0xD2 TSTORE STOP 0xC4 PUSH24 0x136F1D07FD3E0B0F02ED2C3F3740B3D78885B0D50864736F PUSH13 0x634300081A0033000000000000 "
				},
				"gasEstimates": {
					"creation": {
						"codeDepositCost": "1880200",
						"executionCost": "1981",
						"totalCost": "1882181"
					},
					"external": {
						"createToken(string,string,uint256)": "infinite",
						"creatorTokens(address,uint256)": "infinite",
						"deployedTokens(uint256)": "5009",
						"getAllTokens()": "infinite",
						"getTokensByCreator(address)": "infinite"
					}
				},
				"methodIdentifiers": {
					"createToken(string,string,uint256)": "5b060530",
					"creatorTokens(address,uint256)": "db3fa4cc",
					"deployedTokens(uint256)": "ec81aadb",
					"getAllTokens()": "2a5c792a",
					"getTokensByCreator(address)": "d5c71275"
				}
			},
			"storageLayout": {
				"storage": [
					{
						"astId": 983,
						"contract": "contracts/TokenFactory.sol:TokenFactory",
						"label": "deployedTokens",
						"offset": 0,
						"slot": "0",
						"type": "t_array(t_address)dyn_storage"
					},
					{
						"astId": 988,
						"contract": "contracts/TokenFactory.sol:TokenFactory",
						"label": "creatorTokens",
						"offset": 0,
						"slot": "1",
						"type": "t_mapping(t_address,t_array(t_address)dyn_storage)"
					}
				],
				"types": {
					"t_address": {
						"encoding": "inplace",
						"label": "address",
						"numberOfBytes": "20"
					},
					"t_array(t_address)dyn_storage": {
						"base": "t_address",
						"encoding": "dynamic_array",
						"label": "address[]",
						"numberOfBytes": "32"
					},
					"t_mapping(t_address,t_array(t_address)dyn_storage)": {
						"encoding": "mapping",
						"key": "t_address",
						"label": "mapping(address => address[])",
						"numberOfBytes": "32",
						"value": "t_array(t_address)dyn_storage"
					}
				}
			},
			"userdoc": {
				"kind": "user",
				"methods": {},
				"version": 1
			}
		}
	}
}